:020000040800F2
:10000000FF7F00204565000895650008956500089C
:1000100095650008956500089565000800000000DA
:1000200000000000000000000000000095650008CE
:10003000956500080000000095650008E1120008C1
:1000400095650008956500089565000895650008A8
:100050009565000895650008956500089565000898
:100060009565000895650008956500089565000888
:100070009565000895650008956500089565000878
:100080009565000895650008956500089565000868
:100090002D1A00089565000895650008956500080B
:1000A0009565000895650008956500089565000848
:1000B000956500089565000875220008956500089B
:1000C0009565000895650008956500089565000828
:1000D0009565000895650008956500089565000818
:1000E0009565000895650008956500089565000808
:1000F00095650008956500089565000895650008F8
:1001000000000000000000000000000095650008ED
:1001100095650008956500089565000895650008D7
:1001200095650008956500089565000895650008C7
:1001300095650008956500080000000000000000BB
:1001400095650008956500089565000800000000A9
:10015000000000000000000000000000000000009F
:10016000000000000000000095650008956500088B
:10017000956500080000000000000000000000007D
:08018000000000009565000875
:1001C00010B5054C237833B9044B13B10448AFF391
:1001D00000800123237010BD9C0A00200000000055
:1001E000A8B10008084B10B51BB108490848AFF387
:1001F00000800848036803B910BD074B002BFBD0F3
:10020000BDE81040184700BF00000000A00A002011
:10021000A8B100089C0A00200000000000000000B7
:1002200000000000000000000000000000000000CE
:1002300000000000000000000000000000000000BE
:1002400090F800F06DE9024520F007016FF0000C16
:1002500010F0070491F820F040F049804FF00004BE
:100260006FF00700D1E9002391F840F000F1080099
:1002700082FA4CF2A4FA8CF283FA4CF3A2FA8CF3D1
:100280004BBBD1E9022382FA4CF200F10800A4FA38
:100290008CF283FA4CF3A2FA8CF3E3B9D1E904238C
:1002A00082FA4CF200F10800A4FA8CF283FA4CF3C3
:1002B000A2FA8CF37BB9D1E9062301F1200182FA7D
:1002C0004CF200F10800A4FA8CF283FA4CF3A2FA83
:1002D0008CF3002BC6D0002A04BF04301A4612BA91
:1002E000B2FA82F2FDE8024500EBD2007047D1E994
:1002F000002304F00305C4F100004FEAC50514F023
:10030000040F91F840F00CFA05F562EA05021CBFF3
:1003100063EA050362464FF00004A9E7000000000D
:1003200001F0FF01102A2BDB10F0070F08D010F8A6
:10033000013B013A8B422DD010F0070F42B3F6D1AA
:10034000F0B441EA012141EA014122F007047FF0C3
:1003500000070023F0E80256083C85EA010586EA1A
:10036000010685FA47F5A3FA87F586FA47F6A5FA56
:1003700087F68EB9EED1F0BC01F0FF0102F0070262
:1003800032B110F8013B013A83EA010313B1F8D10D
:100390000020704701387047002D06BF35460338EE
:1003A000073815F0010F07D1013015F4807F02BF27
:1003B000013015F4C03F0130F0BC0138704700BF78
:1003C000844641EA000313F003036DD1403A41D360
:1003D00051F8043B40F8043B51F8043B40F8043B1F
:1003E00051F8043B40F8043B51F8043B40F8043B0F
:1003F00051F8043B40F8043B51F8043B40F8043BFF
:1004000051F8043B40F8043B51F8043B40F8043BEE
:1004100051F8043B40F8043B51F8043B40F8043BDE
:1004200051F8043B40F8043B51F8043B40F8043BCE
:1004300051F8043B40F8043B51F8043B40F8043BBE
:1004400051F8043B40F8043B51F8043B40F8043BAE
:10045000403ABDD2303211D351F8043B40F8043B4E
:1004600051F8043B40F8043B51F8043B40F8043B8E
:1004700051F8043B40F8043B103AEDD20C3205D35E
:1004800051F8043B40F8043B043AF9D2043208D056
:10049000D2071CBF11F8013B00F8013B01D30B88C8
:1004A00003806046704700BF082A13D38B078DD0A6
:1004B00010F003038AD0C3F10403D21ADB071CBF78
:1004C00011F8013B00F8013B80D331F8023B20F8E2
:1004D000023B7BE7043AD9D3013A11F8013B00F81B
:1004E000013BF9D20B7803704B7843708B788370A3
:1004F0006046704781F0004102E000BF83F0004396
:1005000030B54FEA41044FEA430594EA050F08BFAE
:1005100090EA020F1FBF54EA000C55EA020C7FEA72
:10052000645C7FEA655C00F0E2804FEA5454D4EBEF
:100530005555B8BF6D420CDD2C4480EA020281EAB9
:10054000030382EA000083EA010180EA020281EAF1
:100550000303362D88BF30BD11F0004F4FEA013143
:100560004FF4801C4CEA113102D0404261EB410152
:1005700013F0004F4FEA03334CEA133302D05242D8
:1005800063EB430394EA050F00F0A780A4F1010494
:10059000D5F1200E0DDB02FA0EFC22FA05F28018CE
:1005A00041F1000103FA0EF2801843FA05F35941B4
:1005B0000EE0A5F120050EF1200E012A03FA0EFC33
:1005C00028BF4CF0020C43FA05F3C01851EBE3715D
:1005D00001F0004507D54FF0000EDCF1000C7EEB7A
:1005E00000006EEB0101B1F5801F1BD3B1F5001FB8
:1005F0000CD349085FEA30004FEA3C0C04F10104D7
:100600004FEA445212F5800F80F09A80BCF1004FFF
:1006100008BF5FEA500C50F1000041EB045141EA81
:10062000050130BD5FEA4C0C404141EB010111F482
:10063000801FA4F10104E9D191F0000F04BF01462D
:100640000020B1FA81F308BF2033A3F10B03B3F10B
:1006500020020CDA0C3208DD02F1140CC2F10C029B
:1006600001FA0CF021FA02F10CE002F11402D8BFF9
:10067000C2F1200C01FA02F120FA0CFCDCBF41EAC5
:100680000C019040E41AA2BF01EB0451294330BD94
:100690006FEA04041F3C1CDA0C340EDC04F1140471
:1006A000C4F1200220FA04F001FA02F340EA030048
:1006B00021FA04F345EA030130BDC4F10C04C4F18E
:1006C000200220FA02F001FA04F340EA030029466E
:1006D00030BD21FA04F0294630BD94F0000F83F4B8
:1006E000801306BF81F480110134013D4EE77FEA9B
:1006F000645C18BF7FEA655C29D094EA050F08BFE7
:1007000090EA020F05D054EA000C04BF19461046C7
:1007100030BD91EA030F1EBF0021002030BD5FEA0B
:10072000545C05D14000494128BF41F0004130BD33
:1007300014F580043CBF01F5801130BD01F0004587
:1007400045F0FE4141F470014FF0000030BD7FEAFA
:10075000645C1ABF194610467FEA655C1CBF0B46F5
:10076000024650EA013406BF52EA033591EA030F0C
:1007700041F4002130BD00BF90F0000F04BF002104
:10078000704730B54FF4806404F132044FF0000537
:100790004FF0000150E700BF90F0000F04BF0021B0
:1007A000704730B54FF4806404F1320410F0004516
:1007B00048BF40424FF000013EE700BF42004FEA11
:1007C000E2014FEA31014FEA02701FBF12F07F438E
:1007D00093F07F4F81F06051704792F0000F14BF8B
:1007E00093F07F4F704730B54FF4607401F00045CF
:1007F00021F0004120E700BF50EA010208BF704726
:1008000030B54FF000050AE050EA010208BF70471A
:1008100030B511F0004502D5404261EB41014FF483
:10082000806404F132045FEA915C3FF4DCAE4FF087
:1008300003025FEADC0C18BF03325FEADC0C18BF6E
:10084000033202EBDC02C2F1200300FA03FC20FABF
:1008500002F001FA03FE40EA0E0021FA02F114440C
:10086000C1E600BF70B54FF0FF0C4CF4E06C1CEA21
:1008700011541DBF1CEA135594EA0C0F95EA0C0F96
:1008800000F0DEF82C4481EA030621EA4C5123EA09
:100890004C5350EA013518BF52EA033541F4801138
:1008A00043F4801338D0A0FB02CE4FF00005E1FBEB
:1008B00002E506F00042E0FB03E54FF00006E1FB35
:1008C00003569CF0000F18BF4EF0010EA4F1FF0478
:1008D000B6F5007F64F5407404D25FEA4E0E6D41B8
:1008E00046EB060642EAC62141EA55514FEAC520C9
:1008F00040EA5E504FEACE2EB4F1FD0C88BFBCF545
:10090000E06F1ED8BEF1004F08BF5FEA500E50F1F5
:10091000000041EB045170BD06F0004646EA0101BB
:1009200040EA020081EA0301B4EB5C04C2BFD4EBED
:100930000C0541EA045170BD41F480114FF0000EE6
:10094000013C00F3AB8014F1360FDEBF002001F054
:10095000004170BDC4F10004203C35DA0C341BDCCE
:1009600004F11404C4F1200500FA05F320FA04F0A0
:1009700001FA05F240EA020001F0004221F00041D4
:1009800010EBD37021FA04F642EB06015EEA430E47
:1009900008BF20EAD37070BDC4F10C04C4F1200577
:1009A00000FA04F320FA05F001FA04F240EA02002A
:1009B00001F0004110EBD37041F100015EEA430EFB
:1009C00008BF20EAD37070BDC4F1200500FA05F21B
:1009D0004EEA020E20FA04F301FA05F243EA02039A
:1009E00021FA04F001F0004121FA04F220EA0200A9
:1009F00000EBD3705EEA430E08BF20EAD37070BDEF
:100A000094F0000F0FD101F00046400041EB0101CE
:100A100011F4801F08BF013CF7D041EA060195F0B0
:100A2000000F18BF704703F00046520043EB03036A
:100A300013F4801F08BF013DF7D043EA0603704757
:100A400094EA0C0F0CEA135518BF95EA0C0F0CD062
:100A500050EA410618BF52EA4306D1D181EA0301A8
:100A600001F000414FF0000070BD50EA410606BFA2
:100A70001046194652EA430619D094EA0C0F02D1E7
:100A800050EA013613D195EA0C0F05D152EA03362C
:100A90001CBF104619460AD181EA030101F000414A
:100AA00041F0FE4141F470014FF0000070BD41F093
:100AB000FE4141F4780170BD70B54FF0FF0C4CF46D
:100AC000E06C1CEA11541DBF1CEA135594EA0C0F8C
:100AD00095EA0C0F00F0A7F8A4EB050481EA030ED9
:100AE00052EA03354FEA013100F088804FEA0333C0
:100AF0004FF0805545EA131343EA12634FEA02228E
:100B000045EA111545EA10654FEA00260EF000414E
:100B10009D4208BF964244F1FD0404F5407402D2A0
:100B20005B084FEA3202B61A65EB03055B084FEA31
:100B300032024FF480104FF4002CB6EB020E75EB2E
:100B4000030E22BFB61A754640EA0C005B084FEA56
:100B50003202B6EB020E75EB030E22BFB61A7546D3
:100B600040EA5C005B084FEA3202B6EB020E75EB1E
:100B7000030E22BFB61A754640EA9C005B084FEA96
:100B80003202B6EB020E75EB030E22BFB61A7546A3
:100B900040EADC0055EA060E18D04FEA051545EA92
:100BA00016754FEA06164FEAC30343EA52734FEA3B
:100BB000C2025FEA1C1CC0D111F4801F0BD141EAB4
:100BC00000014FF000004FF0004CB6E711F4801F19
:100BD00004BF01430020B4F1FD0C88BFBCF5E06FF9
:100BE0003FF6AFAEB5EB030C04BFB6EB020C5FEA09
:100BF000500C50F1000041EB045170BD0EF0004E5E
:100C00004EEA113114EB5C04C2BFD4EB0C0541EA8F
:100C1000045170BD41F480114FF0000E013C90E68C
:100C200045EA060E8DE60CEA135594EA0C0F08BF50
:100C300095EA0C0F3FF43BAF94EA0C0F0AD150EA4F
:100C400001347FF434AF95EA0C0F7FF425AF1046E2
:100C500019462CE795EA0C0F06D152EA03353FF40A
:100C6000FDAE1046194622E750EA410618BF52EA87
:100C700043067FF4C5AE50EA41047FF40DAF52EA5B
:100C800043057FF4EBAE12E74FF0FF3C06E000BFF8
:100C90004FF0010C02E000BF4FF0010C4DF804CD05
:100CA0004FEA410C7FEA6C5C4FEA430C18BF7FEAC5
:100CB0006C5C1BD001B050EA410C0CBF52EA430CF3
:100CC00091EA030F02BF90EA020F0020704710F173
:100CD000000F91EA030F58BF994208BF90422CBF02
:100CE000D8176FEAE37040F0010070474FEA410CFB
:100CF0007FEA6C5C02D150EA013C07D14FEA430C19
:100D00007FEA6C5CD6D152EA033CD3D05DF8040B89
:100D1000704700BF8446104662468C4619466346BB
:100D200000E000BF01B5FFF7B7FF002848BF10F192
:100D3000000F01BD4DF808EDFFF7F4FF0CBF0120D7
:100D400000205DF808FB00BF4DF808EDFFF7EAFF53
:100D500034BF012000205DF808FB00BF4DF808ED0E
:100D6000FFF7E0FF94BF012000205DF808FB00BF03
:100D70004DF808EDFFF7CEFF94BF012000205DF88D
:100D800008FB00BF4DF808EDFFF7C4FF34BF01209A
:100D900000205DF808FB00BF4FEA410C7FEA6C5C65
:100DA00002D150EA013C0AD14FEA430C7FEA6C5C65
:100DB00002D152EA033C02D14FF0000070474FF0DD
:100DC000010070474FEA410212F5001215D211D509
:100DD0006FF47873B3EB625212D94FEAC12343F038
:100DE000004343EA505311F0004F23FA02F018BFBA
:100DF000404270474FF00000704750EA013005D183
:100E000011F0004008BF6FF0004070474FF0000045
:100E1000704700BF53B94AB9002908BF00281CBF5A
:100E20004FF0FF314FF0FF3000F07EB9ADF1080C0C
:100E30006DE904CE00F006F8DDF804E0DDE90223F8
:100E400004B070472DE9F0478C460E460446089DD5
:100E5000002B50D18A4217466CD9B2FA82FEBEF1FD
:100E6000000F0BD0CEF1200420FA04F401FA0EF6A4
:100E700044EA060C02FA0EF700FA0EF44FEA17499C
:100E8000220CBCFBF9F01FFA87F809FB10C642EAF6
:100E9000064600FB08F3B34209D9F61900F1FF3208
:100EA00080F02281B34240F21F8102383E44F61A9C
:100EB000A2B2B6FBF9F309FB136642EA064403FB50
:100EC00008F8A04509D9E41903F1FF3280F00A813E
:100ED000A04540F20781023B3C44C8EB040443EACE
:100EE00000400021002D62D024FA0EF400232C6073
:100EF0006B60BDE8F0878B4207D9002D55D00021EB
:100F000085E841000846BDE8F087B3FA83F100297F
:100F100040F09080B34202D3824200F2F880841AFB
:100F200066EB03060120B446002D40D085E8101082
:100F3000BDE8F08712B90127B7FBF2F7B7FA87FED1
:100F4000BEF1000F35D1F31B4FEA17481FFA87FC9B
:100F50000121B3FBF8F0220C08FB103642EA0646EA
:100F60000CFB00F3B34207D9F61900F1FF3202D2AD
:100F7000B34200F2CE801046F61AA2B2B6FBF8F3E6
:100F800008FB136642EA06440CFB03FCA44507D9A0
:100F9000E41903F1FF3202D2A44500F2B5801346F2
:100FA000CCEB040443EA00409CE729462846BDE810
:100FB000F087CEF1200106FA0EF307FA0EF720FAB9
:100FC00001F94FEA1748CE4049EA0309B6FBF8FA9F
:100FD0004FEA194408FB1A661FFA87FC44EA0643E5
:100FE0000AFB0CF29A4200FA0EF40AD9DB190AF154
:100FF000FF3180F087809A4240F28480AAF1020A91
:101000003B449B1A1FFA89F9B3FBF8F108FB113333
:1010100049EA034301FB0CF69E4207D9DB1901F1B3
:10102000FF326BD29E4269D902393B449B1B41EA95
:101030000A418EE7C1F1200E22FA0EF48B402343C1
:1010400020FA0EF706FA01F44FEA134C26FA0EF6D0
:101050003C43B6FBFCF9270C0CFB19661FFA83F81E
:1010600047EA064609FB08F7B74202FA01F200FA1E
:1010700001FA08D9F61809F1FF3041D2B7423FD939
:10108000A9F102091E44F61BA0B2B6FBFCF40CFB4E
:10109000146640EA064704FB08F8B84507D9FF186C
:1010A00004F1FF3028D2B84526D9023C1F4444EA57
:1010B0000940C8EB0707A0FB02894F4544464E464E
:1010C00014D329D065B3BAEB040367EB060707FA1C
:1010D0000EFECB40CF404EEA030385E88800002196
:1010E000BDE8F0871346F8E61046E0E6B8EB0204E8
:1010F00069EB03060138E5E70446D8E7114695E7B2
:101100008146C0E78A467CE7023B3C4448E7084604
:101110000AE702383E442FE7C245E7D33E46D1E70F
:101120002946BDE8F08700BF704700BF07B5F8B992
:10113000684600F00DFA08B10F4804E001A800F07D
:1011400007FA18B10D4805F0F5FA11E00099CB1E29
:10115000072B03D90A4805F09BFA09E0094A0199CF
:101160000093D05C11B104F0F9FD01E004F004FE3D
:1011700003B05DF804FB00BFC0B10008D2B10008A5
:10118000FBB1000892B3000807B558B9684604F0EF
:1011900069FFBDF90430BDF90220BDF90010034814
:1011A00005F076FA03B05DF804FB00BF28B2000832
:1011B0001FB5F8B901A804F07FFF9FED106ADDEDBF
:1011C000036A9DED027ADDED017A0D4866EE866ACE
:1011D00027EE067A67EE867AFDEEE66ABDEEC77AFE
:1011E000FDEEE77A16EE903A17EE102A17EE901AF7
:1011F00005F04EFA05B05DF804FB00BF0000804327
:101200005BB2000808B558B904F0FEFD054B06496D
:10121000002808BF19460548BDE8084005F038BA5F
:1012200008BD00BF92B200088AB200089BB2000855
:1012300008B5032004F092FDFEE7000070B590B001
:10124000012306930793002308934FF4803302246D
:101250000E9306A84FF4E0130D940F9301F096F847
:1012600010BB0F23019303904FF480630590214638
:1012700001A80294049301F077FB0446A0B901F0A1
:1012800039FD00F097FA124D285D013404F032FD6B
:10129000082CF9D10021084604F07CFD04F0CAFEB8
:1012A00020B10C4805F046FAFFF7C2FF04F0E2FE59
:1012B00018B9094D04462E4604E00848F2E700F04C
:1012C000A3FF346000F0AEF82B68012BFAD1F6E7EB
:1012D00092B30008B4B20008F40B0020D6B20008A4
:1012E00001F01ABD07B540B9684600F031F901A810
:1012F00000F02EF9009B019A1A6003B05DF804FB20
:1013000007B538B901A800F023F9019903480A6824
:1013100005F0BEF903B05DF804FB00BF9AB3000806
:101320002DE9F041154608B9334820E009B93348A2
:101330001DE022B1324B4C1E1E6803460AE03148C4
:1013400015E013F8012B002A4DD03244013C5278AD
:1013500012074BD5671C18462146F2D11B78002B8B
:1013600047D0294905F01AFB064610B927482849F5
:1013700037E0284905F08EFA0446A0B9224905F065
:101380000DFB064690B90C3555F80C1C89B355F881
:10139000042C1AB1204805F07BF9F4E755F8083C15
:1013A00001209847EFE74FF0000809E04FF00208EE
:1013B00006E03046394605F06DFA044620B10C359A
:1013C0002F68002FF5D10AE0B8F1000F03D01348C1
:1013D000394605F05DF96B684046984709E01048CA
:1013E000314605F055F94FF0FF3402E00029B8D13D
:1013F000F9E72046BDE8F081E5B3000806B400082F
:10140000F801002016B4000839B4000840B4000800
:10141000C9B4000870B4000875B4000881B40008AD
:1014200086B4000873B53F4D2B6823B13E4805F0E4
:101430002FF900232B600DF1070000F02CFA002893
:101440006ED19DF80730082B01D07F2B0DD1374C82
:10145000226852B1364805F01BF9364A1368013B41
:1014600013602368013B23605AE0212B15D1324BD6
:101470001B68002B54D0314C3149204605F030FA1E
:101480002146304805F004F92046FEF7D9FE274BE7
:101490001860284B04441C6025E02B4A12681A444B
:1014A000527812F0970212D020490A684F2A9FBF43
:1014B000204C20680370451C97BF013207209DF81F
:1014C0000700256098BF0A6005F0F6F828E00D2BAC
:1014D00026D1184B1A481B6818491A7005F000FAF3
:1014E000154B01221A600A20124C05F0E5F80F4B4B
:1014F00020681E680246311A11444F294FF000013E
:1015000002D802F8011BF6E719600C4E0F4B22605F
:1015100030461A685021FFF703FF012326602B6035
:1015200002B070BD00000020BBB40008B80A002063
:10153000C2B4000808000020BC0A0020600F002090
:10154000100F0020C6B40008F8010020040000209D
:1015500010B508490446002005F020FA30B10021FA
:101560000A4605F0EFFA2060002010BD4FF0FF3072
:1015700010BD00BF39B4000810B50649044600206C
:1015800005F00CFA10B12060002010BD4FF0FF30C4
:1015900010BD00BF39B400082DE9F04F804689B076
:1015A00092460D46002944D003AC00EB01090646E3
:1015B0002746C8EB0A014E453144C8EB060325D047
:1015C00013F00F0B03D11C4805F062F83C461B4B8F
:1015D00016F8011B1B681A480B445B7813F0970F31
:1015E00008BF2E2204F1010314BF21702270019361
:1015F0001C4605F04DF8BBF10F0F019BD9D100221D
:101600001A7039460F4805F043F8D2E7002315F069
:101610000F0523700DD01C46C5F110039C4204D267
:10162000094805F035F80134F6E70648394605F073
:101630002FF809B0BDE8F08FCFB40008F801002002
:10164000D5B40008DBB40008E1B40008012838B5BF
:101650001DD002280E4C0F4D09D10F4805F06AF835
:1016600021682A680D48BDE8384005F011B82046C9
:10167000FFF76EFF10B92846FFF76AFF2068296858
:101680000246FFF789FF23682A681344236038BDA8
:10169000C00A00200C000020E5B400087DB6000858
:1016A00008B50A4B1A680AB9094A1A6018686B46E5
:1016B0000144994206D904F06FFF0C2303604FF0F8
:1016C000FF3008BD014B196008BD00BFC40A0020EF
:1016D000E01D00204FF0FF3070474FF4005353607F
:1016E0000020704701207047002070471C4B70B5E8
:1016F0001B68044698471B4B9C4206462DD11A4B4B
:10170000B3F80811B3F80C2192B212FA81F101F08A
:101710007F01A3F80811B3F80A118A1A92B2A3F84C
:101720000A210022A3F80C21B3F80811B3F80A210A
:1017300092B289B21C4682B18B187F2B88BFC1F14F
:10174000800295B221442A468631064804F03EF8CC
:10175000044804F049F8A4F80C51304670BD00BFAD
:10176000D4110020B00F0020C80A00202DE9F0435A
:10177000044685B0B0B972B60C481422D0F8209156
:1017800000F58875214600F5887095E8E00104F0C1
:1017900031FF62B606488DE8800333462A4621466B
:1017A00004F076FF05B0BDE8F08300BFC80A002052
:1017B000CBB6000810B5174C20680023194602224A
:1017C000406804F0BFFF20680023194602228068A9
:1017D00004F0B8FF2068104CC068002319460222AC
:1017E00004F0B0FF00220D49204603F010FC0C4924
:1017F0000C4B4A691A6020460B4B4B6103F01CFCF2
:1018000020460A4903F0DBFF2046BDE8104003F004
:101810001ABC00BF28060020B00F002024010020C1
:1018200058000020D4110020ED16000864010020AB
:1018300030B572B6104D4FF492730A440C4603FB58
:101840000053B3F88450ADB2601A9DB1944211D0E8
:10185000B3F8820080B21D5C04F8015B013000F037
:101860007F00A3F88200B3F88400013880B2A3F8A7
:101870008400E6E762B630BDC80A002011460020A9
:101880001A46FFF7D5BF08B50122FFF7D1FFB0FA1E
:1018900080F0400908BD014608B50020FFF7F3FFBE
:1018A000003018BF012008BDF8B5374E4FF49273D1
:1018B0007F2A03FB006306D9D3F810210132C3F855
:1018C00010210120F8BDB3F80A4112FA84F47F2CEC
:1018D00082BFD3F814410134C3F814414FF492731A
:1018E00003FB0063B3F80A4112FA84F47F2CF9D8A1
:1018F00072B6D3F818411444C3F818414FF49274E7
:101900000A4404FB0064914218D0B4F80A319BB237
:101910007F2B13D8B4F8065111F8017BADB26319CF
:10192000013505F07F05A4F8065183F88670B4F8F8
:101930000A3101339BB2A4F80A31E4E74FF4927301
:1019400003FB0063B3F8082195B2B3F80A2192B201
:10195000AB187F2B88BFC5F1800290B90B4F97F869
:10196000FC31032B0DD194B27119224686313846D1
:1019700003F02CFF384603F037FF10B9024BA3F8F1
:101980000C4162B60020F8BDC80A0020B00F00204C
:10199000F8B51D461446D718BC4226460FD03378FA
:1019A0000A2B04F1010404D1012206490020FFF7AB
:1019B0007BFF012231460020FFF776FFECE7284647
:1019C000F8BD00BF3EB4000810B5174C4FF4927339
:1019D00003FB0040B0F8843012FA83F37F2B06D962
:1019E000D0F81C310133C0F81C31012010BDD0F8F3
:1019F00020311344C0F820310A44914211D0B0F88C
:101A0000803011F8014B9BB2C454013303F07F03C3
:101A1000A0F88030B0F8843001339BB2A0F8843055
:101A2000EBE7002010BD00BFC80A0020014801F00C
:101A3000E5BE00BFBC12002010B50A46B8B1A9B17E
:101A40008C8889794368102905D0202905D0082978
:101A500005D1E05C10BDE05A10BDE05810BD036830
:101A60001268034804F014FE002010BD084610BDA3
:101A700075B7000838B50C46A8B1A1B18D88897931
:101A80004368102905D0202905D0082906D1EA5439
:101A900002E0EA5200E0EA50002038BD0368226804
:101AA000024804F0F5FD012038BD00BF75B70008FD
:101AB00030B585B098B1427904790A4D012393403D
:101AC000E140013B0B40016807480092012A98BFA2
:101AD0002846019002941A46044804F0D9FD05B046
:101AE00030BD00BFAFB70008A9B70008B5B7000800
:101AF00073B516461D460446D8B183881944019132
:101B00008379009301680C48134604F0C1FDA46872
:101B100044B175B1236833B120463146FFF7C8FFA1
:101B20000834F7E72DB10A2002B0BDE8704004F098
:101B3000C3BD02B070BD00BFDEB7000870B50E4671
:101B40000546A8B190E806000A4804F0A1FDAC687B
:101B500004B970BD23685BB121462846FFF76CFFCE
:101B60003346024669682046FFF7C2FF0C34F1E7AE
:101B700070BD00BF19B8000838B50546092004F04B
:101B80009BFD0824296889B1094804F081FDEB68B0
:101B900004444BB1074804F07BFD0444462C03D9B0
:101BA000054804F075FD08240C35EBE738BD00BF8F
:101BB000C6B40008B2B7000841B8000838B50546F9
:101BC000092004F079FD0824296899B10A4804F035
:101BD0005FFDEB682044C4B253B1084804F058FDDF
:101BE0002044C4B2462C03D9054804F051FD082412
:101BF0000C35E9E738BD00BFC6B40008B2B700082D
:101C000041B800082DE9F041022886B018D105A896
:101C1000FFF7B2FC10B9059E654C0DE0654804F075
:101C200089FD6348FFF7A8FF634836E02946304640
:101C300004F030FE08B30C342568002DF6D114E012
:101C400002A8FFF799FC10B9029E594C09E05B48C5
:101C500004F070FD1DE0304604F01CFE0546F8B1AE
:101C60000C3421680029F6D10FE03146544804F0C5
:101C70000FFD4F48FFF780FF97E02946514804F0D9
:101C800007FDA068FFF79AFF06E031464E4804F0D2
:101C9000FFFC4748FFF770FF4C4804F04BFD84E021
:101CA00003A8FFF769FC08B129460FE0A568039E69
:101CB000296829B1304604F0EDFD58B10C35F7E73D
:101CC0004349304604F0E6FD08BB01212046FFF7FA
:101CD00035FF6AE004A8FFF74FFC60B9AE68DDF895
:101CE00010803768CFB13946404604F0D3FD002854
:101CF00031D00836F5E729462046FFF79DFE01233F
:101D00000246059061682846FFF7F2FE4DE0226822
:101D10003048314604F0BCFCB3E704F03DFC3A46E1
:101D200007603946049804F00DFF059004F034FC78
:101D3000036823B10499284804F0AAFC35E0059A09
:101D400029462046FFF796FE059B2A68216823480E
:101D500004F09EFC29E005A8FFF7FAFB10B1296802
:101D60001F48E9E729462046FFF766FE727996F894
:101D700004E0059901239340013B20FA0EF703FA92
:101D80000EF21F400B4003FA0EF320EA02021A4340
:101D900029462046FFF76EFE059B019300973368A6
:101DA0002A6821680F4804F073FC06B0BDE8F08192
:101DB000A05B010844B8000833BA000888BA0008DC
:101DC00064BB00089FBB0008C4BB0008FEBB000842
:101DD00000BC0008B7BA000836BB000854BB0008B6
:101DE000F4BA00081FBB0008474B5A6942F0805202
:101DF00030B55A61DA6A22F4F87242F48072DA621B
:101E00005A6942F000525A61DA6A22F4785242F476
:101E10000052DA625A6942F400325A615A6987B054
:101E200042F4802200245A610325102301A94FF0B7
:101E300090400193029503940495059400F0F0FFFF
:101E4000022301A931480193029503940495059456
:101E500000F0E6FF2E484FF0A0424FF4803380E8B8
:101E60000C000423436101238460C4600461846125
:101E7000C461036244628462C36204634463846332
:101E800002F0A6F8014610B1224804F001FC2248F5
:101E9000224B4FF4803C042280E80810426100236A
:101EA00001228360C36003618361C3610262436294
:101EB0008362C26203634363836302F089F801466D
:101EC00010B1174804F0E4FB1648174B04224FF4F6
:101ED000803480E818004261002301228360C360DF
:101EE00003618361C361026243628362C26203630E
:101EF0004363836302F06CF8014610B10B4804F0B1
:101F0000C7FB07B030BD00BF00100240000400480E
:101F10002412002080B60108701200200001005039
:101F2000A7B60108D811002000040050CEB6010861
:101F300010B5102386B04FF0060E01248DE818402E
:101F4000694600231C4803930493059302F0C0F9EB
:101F5000014608B1194827E0174802F021F9014667
:101F600008B1174820E06421134802F076F90146D1
:101F700008B1144818E0104802F0A5F948F2E80446
:101F8000604340F6FF74B0FBF4F0C0F55F502B24C3
:101F90001C3090FBF4F000F57434074802F042F96D
:101FA0009034014628B1084804F072FB4FF0FF302E
:101FB00000E0204606B010BD24120020F5B601084E
:101FC0001EB701083BB7010866B7010810B586B017
:101FD00001230093019306230293694600231848C6
:101FE00003930493059302F073F9014608B1154871
:101FF0001DE0134802F0D4F8014608B1124816E07B
:1020000064210F4802F029F9014608B10F480EE09B
:102010000B480F4C02F057F9604340F6FF74B0FBD9
:10202000F4F4074802F0FEF8014628B1094804F02C
:102030002FFB4FF0FF3000E0204606B010BD00BF80
:1020400070120020F5B601081EB701083BB7010861
:10205000A086010066B7010810B586B00123009381
:1020600001930623029369460023184803930493BF
:10207000059302F02DF9014608B115481DE01348FB
:1020800002F08EF8014608B1124816E064210F48AC
:1020900002F0E3F8014608B10F480EE00B480F4C80
:1020A00002F011F9604340F6FF74B0FBF4F4074806
:1020B00002F0B8F8014628B1094804F0E9FA4FF0F7
:1020C000FF3000E0204606B010BD00BFD811002050
:1020D000F5B601081EB701083BB70108A08601004C
:1020E00066B70108104AD36943F00403D3610F4B6C
:1020F0001A6822F010021A60400048F69F429A6265
:10210000D8621A6822F002021A60DA6842F001020C
:10211000DA601A6842F001021A60054A136843F057
:1021200080431360704700BF001002400008004069
:1021300000E100E0144B5A6942F400225A61DA6966
:1021400042F00202DA61114B1A6842F400321A605E
:102150005A685A609A689A605A6A42F002025A6251
:102160000B4B48F69F429A624200DA62D863DA6902
:1021700042F06002DA611A6A42F480721A621A68E6
:1021800042F001021A607047001002400008004847
:1021900000040040044B1A6A22F480721A621A6822
:1021A00022F001021A60704700040040B0B90C4AE6
:1021B000136823F0804313600A4B1A6822F001026F
:1021C0001A60DA6822F00102DA601A6842F002024C
:1021D0001A60054AD36923F00403D361704700BF36
:1021E00000E100E0000800400010024008B548B9D6
:1021F000FFF7FAFDFFF79CFE4FF4FA60BDE80840D8
:10220000FFF770BF08BD000008B5124804F092FA4D
:10221000114B12481A6842F2107392FBF3F103FB60
:10222000112204F035FA0E4B0E481A684FF47A73F7
:1022300092FBF3F103FB112204F02AFA0A4B1A680D
:1022400042F20F739A42D4BF08480948BDE80840DB
:1022500004F070BA82B70108FC0B002093B70108A4
:10226000F80B0020B7B70108F00B0020D3B7010826
:10227000DAB7010838B5224B1A69D2073FD51A6977
:10228000204C22F001021A6123681C2B25461FDD19
:10229000FFF74EFE1C4B1D4C1860FFF797FE2060A9
:1022A000FFF7DAFE1A4B226818601A4B9A4209DDD2
:1022B00042F20F73984205DC0420FFF73BFF164BF8
:1022C00001221A60154B01221A6000232B6038BDD1
:1022D000114D2A68012A10D1FFF75CFF104A138BB9
:1022E00023F480731B041B0C1383538B9BB243F4A6
:1022F0008073538300232B6023680133236038BD30
:1023000000080040EC0B0020FC0B0020F80B002024
:10231000F00B002070110100000C0020F40B0020D5
:10232000000800481549D1F8883043F47003C1F81B
:102330008830134B1A6842F001021A605868114A3B
:1023400002405A601A6822F0847222F480321A60C5
:102350001A6822F480221A605A6822F4FE025A6037
:10236000DA6A22F00F02DA62186B074A02401A6337
:1023700000229A604FF000638B60704700ED00E030
:10238000001002400CC07FF8CCFC00FF0368DB07A4
:102390002DE9F047044604D423689F0700F1C58067
:1023A00055E1C14D6B6803F00C03042B07D06B683B
:1023B00003F00C03082B28D16B68DE0325D54FF4FE
:1023C000003292FAA2F3B3FA83F3C3F3421343F059
:1023D0000103012B01D1296804E092FAA2F2B2FABA
:1023E00082F2696A4FF4003393FAA3F3B3FA83F3EA
:1023F000012203F01F0302FA03F30B42CCD06368FF
:102400009342C9D00120BDE8F087A84E0023337065
:1024100000F08AFC4FF4003781464FF0010841F28A
:10242000883A97FAA7F3B3FA83F3C3F3421343F05E
:102430000103012B01D12A6804E097FAA7F3B3FA4C
:1024400083F36A6A97FAA7F3B3FA83F303F01F03DF
:1024500008FA03F3134208D000F066FCC9EB000051
:102460005045DED90320BDE8F08723793370EB6A4D
:1024700023F00F02A3681343EB626668012E29D193
:1024800000F052FC4FF40037804641F2883997FA49
:10249000A7F3B3FA83F3C3F3421343F00103012B11
:1024A00001D12A6804E097FAA7F3B3FA83F36A6AC2
:1024B00097FAA7F3B3FA83F303F01F0306FA03F3C3
:1024C00013427FF469AF00F02FFCC8EB00004845D1
:1024D000DDD9C7E700F028FC4FF40036804601271D
:1024E00041F2883996FAA6F3B3FA83F3C3F34213A1
:1024F00043F00103012B01D12A6804E096FAA6F308
:10250000B3FA83F36A6A96FAA6F3B3FA83F303F095
:102510001F0307FA03F313423FF43EAF00F004FC3D
:10252000C8EB00004845DDD99CE75F4D6B6813F0B0
:102530000C0F07D06B6803F00C03082B25D16B68D8
:10254000D80322D4022292FAA2F3B3FA83F3C3F39C
:10255000421343F00103012B01D1296804E092FAF0
:10256000A2F2B2FA82F2696A022393FAA3F3B3FAEF
:1025700083F3012203F01F0302FA03F30B422FD06F
:10258000236993427FF43EAF2AE02269484BB2B3FD
:1025900001261E6000F0C8FB0227804697FAA7F3C9
:1025A000B3FA83F3C3F3421343F00103012B01D1C8
:1025B0002A6804E097FAA7F3B3FA83F36A6A97FAF2
:1025C000A7F3B3FA83F303F01F0306FA03F31342EE
:1025D00006D100F0A9FBC8EB00006428DED941E772
:1025E0002A68F82393FAA3F3B3FA83F36169DBB2A1
:1025F00001FA03F322F0F80213432B6027E01A607C
:1026000000F092FB02268046012796FAA6F3B3FA61
:1026100083F3C3F3421343F00103012B01D12A6872
:1026200004E096FAA6F3B3FA83F36A6A96FAA6F37D
:10263000B3FA83F303F01F0307FA03F3134206D040
:1026400000F072FBC8EB00006428DED90AE72368BB
:10265000190704D423685A0740F1A9804CE0A26905
:10266000114D144B42B301261E6000F05DFB0227A2
:10267000804697FAA7F3B3FA83F397FAA7F3B3FA6E
:1026800083F36A6A97FAA7F3B3FA83F303F01F039D
:1026900006FA03F31342DDD100F046FBC8EB00005D
:1026A0006428E6D9DEE600BF0010024002100240B6
:1026B00000004242800442421A6000F035FB0226CC
:1026C0008046012796FAA6F3B3FA83F396FAA6F3A7
:1026D000B3FA83F36A6A96FAA6F3B3FA83F303F0C4
:1026E0001F0307FA03F31342B4D000F01DFBC8EB3D
:1026F00000006428E6D9B5E6984D994EEB6943F0A1
:102700008053EB61336843F48073336000F00CFB5B
:1027100007463368DB054ED52B6A23F005032B6291
:1027200000F002FB02268146B046012796FAA6F386
:10273000B3FA83F396FAA6F3B3FA83F3C3F342131F
:1027400043F00203022B0CBF2A6A6A6A98FAA8F3C4
:10275000B3FA83F303F01F0307FA03F3134230D1F4
:102760002B6AE66823F005033343012E2B623AD12E
:1027700000F0DAFA02278146B84697FAA7F3B3FACF
:1027800083F397FAA7F3B3FA83F3C3F3421343F047
:102790000203022B0CBF2A6A6A6A98FAA8F3B3FAFA
:1027A00083F303F01F0306FA03F3134212D0E26926
:1027B000002A41D18FE000F0B7FAC01B6428A8D9E5
:1027C00050E600F0B1FA41F28833C9EB00009842BC
:1027D000ACD947E600F0A8FA41F28833C9EB000013
:1027E0009842CAD93EE600F09FFA02268146B046DA
:1027F000012796FAA6F3B3FA83F396FAA6F3B3FA8F
:1028000083F3C3F3421343F00203022B0CBF2A6A83
:102810006A6A98FAA8F3B3FA83F303F01F0307FA7E
:1028200003F31342C3D000F07FFA41F28833C9EBBF
:1028300000009842DDD915E6484D6B6803F00C03A3
:10284000082B3FF4DFAD474E0023022A33605ED1F0
:1028500000F06AFA4FF0007781464FF0010897FACE
:10286000A7F3B3FA83F3C3F3421343F00103012B3D
:1028700034D12A6897FAA7F3B3FA83F303F01F035E
:1028800008FA03F313424FF0010A2DD1616A226A5C
:102890006B680A4323F4741313436B60C6F800A0FB
:1028A00000F042FA4FF000760746544696FAA6F337
:1028B000B3FA83F3C3F3421343F00103012B1AD19C
:1028C0002A6896FAA6F3B3FA83F303F01F0304FA17
:1028D00003F3134215D00020BDE8F08797FAA7F361
:1028E000B3FA83F36A6AC5E700F01EFAC9EB000089
:1028F0006428B4D9B6E596FAA6F3B3FA83F36A6A04
:10290000DFE700F011FAC01B6428CFD9AAE500F078
:102910000BFA4FF000740746012694FAA4F3B3FAB9
:1029200083F3C3F3421343F00103012B01D12A685F
:1029300004E094FAA4F3B3FA83F36A6A94FAA4F372
:10294000B3FA83F303F01F0306FA03F31342C2D072
:1029500000F0EAF9C01B6428DFD983E500100240CB
:102960000070004060004242AD4A136803F0070364
:102970008B422DE9F04104460E4680F0A680136894
:1029800023F007030B431360136803F00703994216
:1029900002D00120BDE8F08101688F0706D5A1486B
:1029A000436823F0F002A36813434360CE070BD4BF
:1029B00021684D0740F123819A48436823F4E0627F
:1029C000E368134343601AE16268964D012A15D10A
:1029D0004FF4003191FAA1F3B3FA83F3C3F3421336
:1029E00043F00103012B01D1286804E091FAA1F121
:1029F000B1FA81F1686A4FF400332AE0022A15D156
:102A00004FF0007191FAA1F3B3FA83F3C3F34213C9
:102A100043F00103012B01D1286804E091FAA1F1F0
:102A2000B1FA81F1686A4FF0007312E0022191FA65
:102A3000A1F3B3FA83F3C3F3421343F00103012B71
:102A400001D1286804E091FAA1F1B1FA81F1686A34
:102A5000022393FAA3F3B3FA83F3012103F01F03D4
:102A600001FA03F3034294D06B6823F003031A4383
:102A70006A6000F059F96368012B064641F2883715
:102A80000CD16B6803F00C03042B91D000F04CF9CF
:102A9000801BB842F5D90320BDE8F081022B0FD18D
:102AA0006B6803F00C03082B82D000F03DF9801B0B
:102AB000B842F5D9EFE700F037F9801BB842EAD801
:102AC0006B6813F00C0FF6D172E70168880706D522
:102AD0005448436823F0F002A36813434360CA07D5
:102AE0000CD44F4A136823F0070333431360136871
:102AF00003F007039E427FF44CAF59E76268494DEB
:102B0000012A15D14FF4003191FAA1F3B3FA83F3FE
:102B1000C3F3421343F00103012B01D1286804E001
:102B200091FAA1F1B1FA81F1686A4FF400332AE019
:102B3000022A15D14FF0007191FAA1F3B3FA83F391
:102B4000C3F3421343F00103012B01D1286804E0D1
:102B500091FAA1F1B1FA81F1686A4FF0007312E0C5
:102B6000022191FAA1F3B3FA83F3C3F3421343F0C2
:102B70000103012B01D1286804E091FAA1F1B1FA17
:102B800081F1686A022393FAA3F3B3FA83F3012174
:102B900003F01F0301FA03F303423FF4FAAE6B683C
:102BA00023F003031A436A6000F0BEF86368012B48
:102BB000074641F288380AD16B6803F00C03042BF6
:102BC0008FD000F0B1F8C01B4045F5D963E7022B68
:102BD00010D16B6803F00C03082B82D000F0A4F82E
:102BE000C01B4045F5D956E700F09EF8C01B404594
:102BF0003FF651AF6B6813F00C0FF5D171E70B077F
:102C000007D5084A2169536823F4605343EAC10396
:102C100053600F2000F05BF80020BDE8F08100BF9A
:102C20000020024000100240154910B54C6804F025
:102C30000C03082B21D14FF4701393FAA3F3B3FACA
:102C400083F304F47012DBB222FA03F30D4AC96A6B
:102C5000D25C0F2393FAA3F3B3FA83F301F00F01CD
:102C6000DBB221FA03F30849C85CE30352BF07480B
:102C7000074BB3FBF0F0504310BD054810BD00BF3B
:102C8000001002405FB801084FB8010800093D007C
:102C900000127A0008B5FFF7C7FF094B5A68F02306
:102CA00093FAA3F3B3FA83F302F0F002DBB222FA51
:102CB00003F3044AD35CD840034B186008BD00BF3F
:102CC000001002403FB8010810000020704710B506
:102CD0000446FFF7DFFF4FF47A73B0FBF3F000F028
:102CE00089F8002221464FF0FF3000F043F8002021
:102CF00010BD0000074A08B5136843F010031360C5
:102D0000032000F025F80F20FFF7E1FFFFF7DEFFBB
:102D1000002008BD00200240024A136801331360FE
:102D2000704700BF040C0020014B1868704700BFBB
:102D3000040C002013B50190FFF7F6FF0446FFF7DF
:102D4000F3FF019B001B9842F9D302B010BD0000B5
:102D5000074AD36823F4E0631B041B0C43F0BF63F2
:102D6000000243F4003300F4E0600343D360704793
:102D700000ED00E0174BDB68C3F3022330B5C3F16D
:102D800007041D1D042C28BF0424062D4FF0010547
:102D900005FA04F404F1FF348CBF033B00230C401C
:102DA0009C4005FA03F3013B1A40002842EA040262
:102DB0004FEA0212AFBF00F1604000F00F00064B77
:102DC000D2B2A5BF00F56140D2B21A5480F80023F8
:102DD00030BD00BF00ED00E014ED00E0420901232A
:102DE00000F01F0003FA00F0014B43F82200704787
:102DF00000E100E00138B0F1807F0AD2064B074ABB
:102E00005860F02182F823100020072298601A6091
:102E100070470120704700BF10E000E000ED00E0C7
:102E20002DE9F74FDFF87CC10B68DFF87CE10193F7
:102E30004FF0010800236446019A08FA03F535EAC9
:102E4000020240F0A6804A6822F01009B9F1020F90
:102E500014D14FEAD30A00EB8A0A03F0070BDAF821
:102E600020704FEA8B0B0F2606FA0BF627EA0606B0
:102E70000F6907FA0BF73743CAF820704FEA430A85
:102E80000326076806FA0AF6F64302F0030B3740FA
:102E90000BFA0AFB09F1FF394BEA0707B9F1010FF9
:102EA000076012D8876807EA060BCF6807FA0AF9A5
:102EB00049EA0B0787604768C2F3001927EA05074C
:102EC00009FA03F949EA07074760C7683E408F6877
:102ED00007FA0AF73E43C660D6005AD5DEF81860F6
:102EE00023F0030909F1804946F0010609F580390C
:102EF000CEF8186003F0030AD9F808704FEA8A0A7E
:102F00000F2606FA0AF6B0F1904F27EA060715D009
:102F1000234EB04214D006F58066B04212D006F5BA
:102F20008066B04210D006F58066B0420ED006F53D
:102F30008066B04214BF0626052608E0002606E09B
:102F4000012604E0022602E0032600E0042606FA39
:102F50000AF63E43C9F80860DCF80060EF4312F45B
:102F6000803F0CBF3E402E432660666812F4003F4F
:102F70000CBF3E402E436660A66812F4801F0CBF53
:102F80003E402E43A660E668920254BF3E402E4368
:102F9000E6600133102B7FF44FAF03B0BDE8F08F34
:102FA0000004004800040140001002400369194277
:102FB00014BF0120002070470AB10183704741838C
:102FC000704738B50446002847D0022380F84131C5
:102FD00002F034FC0022656804F129031146012047
:102FE000AA4203F11C030DD003F81D2C03F81C0C9E
:102FF00003F81A1C43F8111C43F80D1C43F8091C74
:103000000132EDE7002204F1B5031146AA4203F1B3
:103010001C034FF000000DD003F81D2C03F81C1CFE
:1030200003F81A1C43F8111C43F80D1C43F8091C43
:103030000132EBE723680122A3F840204FF43D4220
:10304000A3F84000A3F84400A3F85000A3F84020E0
:1030500084F8240084F8410138BD012038BD08B54A
:10306000012100F0FAFE002008BD90F84031012B4C
:103070000FD0012380F8403121B903688022A3F8E2
:103080004C2001E080F82410002380F840311846DD
:10309000704702207047F0B54CB2002C01F07F065B
:1030A0004FF01C05B5BF05FB060105FB01012831EA
:1030B000B431E40F0E704C70CB7090F84031CA60A0
:1030C000012B00F08181012380F84031CC780A780F
:1030D0000368032C2FD8DFE804F002220D1712B288
:1030E00033F82240A4B224F4EC4424F0700444F4F5
:1030F00000741EE012B233F8224024F4EC4424F0B1
:1031000070042404240C14E012B233F82240A4B258
:1031100024F4EC4424F0700444F4C06409E012B2D6
:1031200033F82240A4B224F4EC4424F0700444F4B4
:10313000806423F822400A7815B242F4004233F842
:10314000254024F0F0042405240D42F0800222439F
:1031500023F825208C7A0A78002C75D14D788C883C
:1031600008263DB3B3F85050ADB216FB025203EB44
:10317000420264086400C2F800440C7833F824204A
:1031800052060BD533F8242022F0F0021205120D5E
:1031900042F4004242F0C00223F82420097833F8B8
:1031A000212022F4E04222F040021204120C82F0AC
:1031B0002002FEE0B3F85070BFB216FB0272043278
:1031C00003F580656408640045F81240B3F85020A8
:1031D0000C7892B216FB0422CE683E2E02F1060253
:1031E0000BD9C6F34F14F70604BF04F1FF34A4B2A1
:1031F0006FEAC4646FEA544406E0C6F34F04F6076E
:1032000044BF0134A4B2A402A4B245F812400C7821
:1032100033F8242052040BD533F8242022F0F00296
:103220001205120D42F4404242F0800223F824209D
:10323000097833F8212022F4804222F0700212042F
:10324000120C82F44052B4E012B203F5806533F8F8
:10325000224024F4F8742405240D44F4014444F07D
:10326000800423F82240B3F850600C780822B6B2EC
:1032700012FB0466CC886408640045F81640B3F875
:1032800050400E78A4B212FB06420C890432640846
:10329000640045F812400C784A7824B2002A46D1DE
:1032A00033F8242057040BD533F8242022F0F00201
:1032B0001205120D42F4404242F0800223F824200D
:1032C0000C7833F8242056060BD533F8242022F04E
:1032D000F0021205120D42F4004242F0C00223F83F
:1032E00024200C7833F8242022F0F0021205120D6D
:1032F00042F4004242F0C00223F824200C7833F854
:10330000242022F4804222F070021204120C82F473
:10331000405242F4004242F0800223F8242009780F
:1033200033F8212022F0C0021205120D41E033F8DB
:10333000242055040BD533F8242022F0F002120586
:10334000120D42F4404242F0800223F824200C780F
:1033500033F8242052060BD533F8242022F0F00253
:103360001205120D42F4004242F0C00223F824205C
:103370000C7833F8242022F0F0021205120D42F4EA
:10338000404242F0800223F824200C7833F82420B5
:1033900022F0C0021205120D42F4004242F08002F7
:1033A00023F82420097833F8212022F0F002920437
:1033B000920C42F4004242F0800223F821200023C4
:1033C00080F840311846F0BD0220F0BD4BB2002B12
:1033D00030B54FF01C0201F07F04B5BF02FB0401C1
:1033E00002FB01012831B431DB0F0C704B7090F8F7
:1033F0004031012B00F0BF80012380F840310A7872
:103400008D7A4C78036812B21DBB84B133F8224028
:1034100064065BD533F8224024F0F0042405240D23
:1034200044F4004444F0C00423F822404EE033F852
:103430002240650440F18D8033F8224024F0F004EE
:103440002405240D44F4404444F0800423F8224031
:103450007FE0002C42D133F8224064040BD533F8CE
:10346000224024F0F0042405240D44F4404444F0A8
:10347000800423F822400C7833F8242055060BD51D
:1034800033F8242022F0F0021205120D42F400421B
:1034900042F0C00223F824200C7833F8242022F0D4
:1034A000F0021205120D42F4004242F0C00223F86D
:1034B00024200C7833F8242022F0F0029204920C9D
:1034C00042F4004242F0800223F82420097833F8C5
:1034D000212022F0C0021205120D41E033F82240F3
:1034E00064040BD533F8224024F0F0042405240DA5
:1034F00044F4404444F0800423F822400C7833F82C
:10350000242052060BD533F8242022F0F0021205B5
:10351000120D42F4004242F0C00223F824200C783D
:1035200033F8242022F0F0021205120D42F440423A
:1035300042F0800223F824200C7833F8242022F073
:10354000C0021205120D42F4004242F0800223F83C
:103550002420097833F8212022F0F0029204920C02
:1035600042F4004242F0800223F82120002380F838
:103570004031184630BD022030BD70B501F07F01EA
:103580001C2404FB0104C4F8C4200022C4F8C83081
:10359000C4F8CC2084F8B52084F8B41090F84031F9
:1035A000012B65D0012380F84031D4F8C830D4F81D
:1035B000C0501C26AB4288BF5B1B06FB01068CBFBC
:1035C000C4F8C830C4F8C82096F8BE20046888BF84
:1035D0002B4612B196F8B5201ABBB4F8505096F8A5
:1035E000B420ADB205EBC2053E2B05F1060504F58E
:1035F00080660BD9C3F34F12DB0604BF02F1FF3222
:1036000092B26FEAC2626FEA524206E0C3F34F021F
:10361000DB0744BF013292B2920292B246F8152003
:103620000CE0012A0AD1B4F8502096F8B45092B2B6
:1036300002EBC50204EB4202C2F80C341C2303FB6C
:10364000010191F8B42034F8223023F4804323F0B0
:1036500070031B041B0C83F4405343F4004343F0FA
:10366000800324F82230002380F84031184670BDD2
:10367000022070BD01F07F011C2303FB0100B0F8A4
:10368000CC007047F8B501F07F061C2101FB060154
:1036900004468A63CB63002201230A6481F829303F
:1036A00081F8286090F84001984200F0A58084F8E5
:1036B0004031CD6B4B6B1C279D4288BFED1A07FB39
:1036C00006478CBFCD63CA6397F8322088BF1D467A
:1036D000ABB28AB9BA8DB96B206800F09CFB216847
:1036E00097F82830B1F8502092B202EBC30301EBF7
:1036F0004303C3F8045465E097F8292020681ABBF7
:10370000B0F8501097F8282089B201EBC2013E2D85
:1037100001F1060100F580670BD9C5F34F12ED06E4
:1037200004BF02F1FF3292B26FEAC2626FEA524204
:1037300006E0C5F34F02ED0744BF013292B2920298
:1037400092B247F811200CE0012A0AD1B0F85020BB
:1037500097F8281092B202EBC10200EB4202C2F8C5
:103760000C541C2505FB064205FB064592F8281063
:1037700030F8211049064CBF128ED28DA96B00F093
:103780004AFB95F82930226863B995F8281032F879
:10379000213023F0F0031B051B0D43F4004343F0DD
:1037A000C0030DE0012B0DD195F8281032F821301F
:1037B00023F0F0031B051B0D43F4404343F080034B
:1037C00022F821301C2303FB0646226896F82810B5
:1037D00032F8213023F4E04323F040031B041B0C98
:1037E00083F0300343F4004343F08003002022F8C9
:1037F000213084F84001F8BD0220F8BD0368B3F819
:1038000044302DE9F7430446180411D42368B3F873
:103810004420510540F1D4814FF6FF322046A3F8F1
:10382000442002F074F800212046FFF71EFCC7E197
:103830000023ADF806304FF01C0808272068B0F8C8
:1038400044309BB21904ADF80430DFD5BDF8045004
:1038500015F00F0540F0B680BDF80410038801F0A4
:10386000100189B259BB23F4E14323F070031B0418
:103870001B0C0380B0F850309AB294F8283017FB34
:10388000032300EB4300A26BD0F80434C3F3090315
:1038900023641344A363204602F02DF894F82430E7
:1038A000002BCBD0E26B002AC8D194F824302168D9
:1038B00043F08003A1F84C3084F82420BEE79BB28B
:1038C000ADF80630BDF806301A051FD5B0F85030F7
:1038D00094F8B4209BB217FB023300EB4303B4F817
:1038E000B820D3F80C34C3F30903C4F8CC3004F582
:1038F000A27100F0A1FA2268138823F070031B055F
:103900001B0D1380204601F0E7FF97E7BDF8063056
:103910001B0493D5038823F070031B051B0D038044
:10392000B0F8503094F8B4209BB217FB023300EB90
:103930004303D3F80C34C3F30903C4F8CC3063B1A8
:10394000B4F8B820D4F8C41000F076FAD4F8C42043
:10395000D4F8CC301344C4F8C4300021204601F020
:10396000C1FF2268D4F8C050B2F850103E2D89B281
:1039700001F1060102F580600BD9C5F34F13EE0685
:1039800004BF03F1FF339BB26FEAC3636FEA534393
:1039900006E0C5F34F03ED0744BF01339BB29B0222
:1039A0009BB240F81130138823F4804323F0700356
:1039B0001B041B0C83F4405343F4004343F0800387
:1039C00013803BE70FFA85F930F829309BB2ADF848
:1039D0000630BDF806301E0477D530F8293023F0C4
:1039E00070031B051B0D20F8293008FB054191F8D9
:1039F000BE30ABB9B0F8503091F8B4209BB217FB91
:103A0000023300EB4303D3F80C64C6F30906E6B3B4
:103A1000B1F8B820D1F8C410334600F00DFA34E004
:103A200091F8B4301AB230F8222012F4804FB0F876
:103A3000502092B217FB032300EB430308D0D3F8C6
:103A40000464C6F309067EB13346B1F8BA2007E034
:103A5000D3F80C64C6F3090636B1B1F8BC2033467E
:103A6000D1F8C41000F0E8F908FB0543226893F888
:103A7000B41032F8213023F0F0031B051B0D43F482
:103A8000004343F0C00322F8213008FB0541D1F880
:103A9000CC30D1F8C4203344C1F8CC30D1F8C83090
:103AA0003244C1F8C4201BB1D1F8C000864207D20D
:103AB00008FB0543204693F8B41001F013FF04E01F
:103AC00091F8B4102046FFF758FDBDF806301806EF
:103AD0007FF5B4AE206830F8293023F4E14323F0B9
:103AE00070031B041B0C20F8293008FB054191F8DA
:103AF0003230A3B9B0F8503091F828209BB217FBB0
:103B0000023300EB4303D3F80434C3F309030B641B
:103B1000002B36D08A8D896B00F07DF931E091F869
:103B200028301AB230F8222012F0400FB0F850209E
:103B300092B217FB032300EB430307D0D3F80434FE
:103B4000C3F309030B645BB1CA8D06E0D3F80C34F0
:103B5000C3F309030B641BB10A8E896B00F05BF998
:103B600008FB0543226893F8281032F8213023F02F
:103B7000F0031B051B0D43F4404343F0800322F880
:103B80002130236808FB0545B3F8502091B295F821
:103B9000282017FB021203EB420395F82810D3F8F4
:103BA0000424AB6BC2F309022A641A44EB6BAA63C8
:103BB000204613B901F09FFE40E6FFF763FD3DE6A6
:103BC0002368B3F84420520444BF4BF6FF72A3F8B5
:103BD0004420B3F84420970444BF4DF6FF72A3F885
:103BE0004420B3F84420D60413D5B3F8402022F083
:103BF00004021204120CA3F840204FF43D42A3F833
:103C00004020204601F091FE23684EF6FF72A3F893
:103C100044202368B3F84420150518D54FF2FF72ED
:103C2000A3F84420B3F8402092B242F00802A3F86F
:103C30004020B3F8402092B242F00402A3F84020A2
:103C4000B3F84430D80402D4204601F06DFE236856
:103C5000B3F84420910506D54FF6FF52A3F844204F
:103C6000204601F050FE2368B3F84420D20544BF3B
:103C70004FF6FF62A3F8442003B0BDE8F08390F84C
:103C80004031012B10B547D04CB201231C2280F8E3
:103C90004031002C01F07F03B5BF02FB030202FBA1
:103CA00001022832B43201219170D9B2E30F1170B0
:103CB0005370026879B913889BB223F4804323F0D0
:103CC000400383F4805383F0100343F4004343F034
:103CD000800313801BE009B2002C32F8213008DA8F
:103CE00023F4E04323F040031B041B0C83F0100378
:103CF00007E023F4804323F070031B041B0C83F4C0
:103D0000805343F4004343F0800322F82130002322
:103D100080F84031184610BD022010BD4BB2002B78
:103D200010B54FF01C0201F07F04B5BF02FB040187
:103D300002FB01012831B431DB0F00228A700C70C4
:103D40004B7090F84031012B49D0012380F840316D
:103D50000C784B78026824B2DBB132F824305B0671
:103D60000BD532F8243023F0F0031B051B0D43F470
:103D7000004343F0C00322F82430097832F82130A0
:103D800023F4E04323F040031B041B0C83F03003B7
:103D90001AE032F824305B040BD532F8243023F0DB
:103DA000F0031B051B0D43F4404343F0800322F84E
:103DB0002430097832F8213023F4804323F0700353
:103DC0001B041B0C83F4405343F4004343F0800373
:103DD00022F82130002380F84031184610BD02201F
:103DE00010BD11F0800F30B54FF01C051BBF01F066
:103DF0007F0405FB040005FB0100283008BFB43038
:103E000012B98272838004E00122C3801B0C82728B
:103E10000381002030BD013300F5806010B55B10D8
:103E200000EB42020024A34205D031F8020B22F835
:103E300024000134F7E710BD013300F5806010B5B0
:103E40005B1000EB42020024A34205D052F824008C
:103E500021F814000134F7E710BD704770470000E7
:103E600003689A6812F00C0F70B5044601D1002067
:103E700070BD9A68900110D5E269012A0DD1A2693E
:103E8000012A0AD1204A1968490602D4013AFAD116
:103E900031E040221A600C2101E060290BD09A68C1
:103EA000560706D59A6895075EBF9A6842F01002D9
:103EB0009A600C2910D09A68100706D59A68920764
:103EC0005EBF9A6842F020029A60602902D06C2995
:103ED00004D001E0082502E0042500E00C25FEF7EF
:103EE00023FF064623689B681D42C0D0FEF71CFFD7
:103EF000801B0B28F6D9042384F84530A36C43F0CB
:103F00000103A364012070BD0194090038B5036862
:103F10000446986800F00300012801D0002038BD55
:103F20001A68D207FAD59A6802F00D02012A09D15F
:103F30009A6842F002029A6003221A60FEF7F4FEC9
:103F4000054607E0042384F84530A36C43F00103E1
:103F5000A36438BD23689B68DB07DFD5FEF7E4FE6A
:103F6000401B0228F6D9042384F84530A36C43F0A3
:103F70000103A364012038BD38B503689A6802F0D4
:103F80000302012A044604D11A68D20701D5002091
:103F900038BD99680D4A0A407AB99A6842F0010220
:103FA0009A60FEF7C1FE054623681B68DB07EED466
:103FB000FEF7BAFE401B0228F6D9042384F84530E8
:103FC000A36C43F00103A364012038BD3F000080CF
:103FD00070B5044694B0002800F0B98090F84530E0
:103FE0000BB1002016E0FFF739FF23689B68DE0065
:103FF000F7D42046FFF78AFF01280BD0022384F86C
:10400000453023689A6822F040529A609A6842F0DC
:1040100080529A6023689A6802F04052B2F1805F41
:1040200007D0042284F84520A26C42F00102A26469
:10403000012094F84520042A00F086809A6812F046
:10404000040140F081800222B3F1A04F84F84520A2
:104050004D4A7ED0934240F088804FF0A0420192BA
:1040600002F54072996801F00301012902D1196833
:10407000CD070AD4019900296ED08D6805F003059B
:10408000012D69D10968C90766D5D9683F4AE66834
:10409000E5690A40DA60A26B012AA26842EA0602D8
:1040A0000CBF00214FF4805142EA45320A43616A55
:1040B000012906D12DB9A16A013942EA414242F4EF
:1040C0008032E16A01291AD0314DAB4203D005F5A7
:1040D0008075AB4210D1B1F5307F08D0B1F5807F4B
:1040E00008D0B1F5E07F08BF4FF4807104E04FF4D1
:1040F000E07101E04FF43071256B2A430A4399685F
:1041000011F00C0F0BD1D968A56921F4804121F081
:104110000201D960616B490041EA85310A43D968DF
:104120000A43DA601A6B22F00F021A632269012A2D
:1041300004D1226A196B013A0A431A630023A3646B
:10414000012384F845301CE0042384F84530012025
:1041500017E001920F4A85E7916821F440319160A0
:1041600095686168294391608FE7094D0A4AAB421F
:1041700001D1019203E093420CBF01950191074ADE
:1041800070E714B070BD00BF0001005007C0F0FF21
:1041900000040050000300500005005000070050CC
:1041A00090F84430012B10B5044631D0012380F83B
:1041B0004430FFF7E1FE012826D094F84530222B49
:1041C0000CBF3223122384F845300023A3642368F4
:1041D0001C22B3F1A04F1A6002D00E4A934204D1C0
:1041E0000D4A9268D1060BD004E00C4A9268D206C0
:1041F00006D002E0B3F1A04F02D0094A934203D1A6
:104200009A6842F004029A60002384F8443010BD9A
:10421000022010BD000100500003005000070050B4
:104220000004005038B590F84430012B044612D0F9
:10423000012580F844506C21FFF712FEA84206D0F9
:104240002046FFF763FEA84218BF84F845500023BC
:1042500084F8443038BD022038BDF8B54369082BD6
:1042600004460D460CBF08260C26FEF75DFD0746EA
:1042700023681A68164210D16A1CFAD03DB903238C
:1042800084F84530002384F844300120F8BDFEF75F
:104290004BFDC01B8542EBD2F1E7A2690AB90C22A3
:1042A0001A6094F84530042B0BD094F84530352B28
:1042B00007D094F84530252B0CBF3523152384F8FF
:1042C00045300020F8BD03680C221A60186C704756
:1042D000F0B590F84430012B95B000F0F7800368FA
:1042E0009C680122670780F8442000F1E6804D6851
:1042F0000C68042D4FF006020CD81E6B6A431F2574
:10430000954026EA05051D631D6B04FA02F22A4357
:104310001A632CE0092D0DD86A435E6B1E3A1F25E7
:10432000954026EA05055D635D6B04FA02F22A43B7
:104330005A631CE00E2D0DD86A439E6B3C3A1F2534
:10434000954026EA05059D639D6B04FA02F22A4317
:104350009A630CE06A43DE6B5A3A1F25954026EAC1
:104360000505DD63DD6B04FA02F22A43DA639A681D
:1043700012F00C0F7DD10A2C4FEA44028D680DD942
:1043800022449F691E3A0726964027EA06069E6148
:104390009E6905FA02F232439A610BE05F6922449A
:1043A0000726964027EA06065E615E6905FA02F274
:1043B00032435A61DD680E69C5F3C1056A004D6973
:1043C000013E9540A206032E2FD8DFE806F0020D2D
:1043D00018231F6E7C4E3E401E661E6E46F0004641
:1043E000324315431D6644E05F6E774E3E405E6685
:1043F0005E6E46F00046324315435D6639E09F6EBF
:10440000714E3E409E669E6E46F000463243154316
:104410009D662EE0DF6E6C4E3E40DE66DE6E46F040
:10442000004632431543DD6623E01D6E05F0F84576
:10443000954202BF1D6E25F000451D665D6E05F0BC
:10444000F845AA4202BF5D6E25F000455D669D6E8F
:1044500005F0F845AA4202BF9D6E25F000459D6615
:10446000DD6E05F0F845AA4202BFDA6E22F0004286
:10447000DA669A6802F00302012A02D11A68D607A6
:1044800019D4CA68012A23D0D3F8B0100122A2405F
:1044900021EA0202C3F8B020B3F1A04F40D04B494B
:1044A0004B4A4C4DAB4208BF0A46102C3AD191689A
:1044B00011F4000F42D0002303E0042380F84530BC
:1044C0001346002280F8442018467BE0022079E061
:1044D000D3F8B050A2402A430A2CC3F8B0208D680C
:1044E0000FD904EB44019E69A1F11B020721914001
:1044F00026EA01019961996905FA02F20A439A6173
:10450000CAE7611C5E6901EB410107228A4026EA85
:1045100002025A615E6905FA01F232435A61BBE751
:104520002A4AC2E7112C03D1916811F0807FC1E7BC
:10453000122CC0D1916811F4800FBBE7B3F1A04FEA
:1045400024490DD08B4202D14FF0A04108E022490E
:10455000224D8B4201D1019503E0AB4218BF0021EF
:104560000191996801F00301012902D11968CD0771
:1045700009D4019961B18D6805F00305012D07D1BA
:104580000968C90704D5042380F84530012398E75A
:10459000102C07D1B3F1A04F8DD1936843F40003E1
:1045A000936088E7112C06D1B3F1A04F83D19368B3
:1045B00043F08073F4E7122C7FF47DAF936843F4EB
:1045C0008003EDE715B0F0BD00F0FF83000300505D
:1045D000000700500001005000040050000500508A
:1045E00030B50568064C68680440039820430343CF
:1045F000C1F309010B4343EA02426A6030BD00BFC8
:10460000009800FC70B504460D46FEF78DFB23684C
:104610000646986910F0100039D094F83520122A17
:1046200007D094F83520522A03D094F83520622A16
:1046300012D15A6890010FD45A6842F480425A60ED
:104640000AE09A69920611D4691CFAD035B1FEF7D6
:104650006BFB801B854201D32368F2E7012384F8BA
:104660003530002384F83430032070BD1022DA6125
:104670002022DA615968064A0A405A60042384F805
:1046800036300120002384F8350084F8343070BDC2
:1046900000E800FE2DE9F04104460E4690461D4616
:1046A000FEF742FB0746B8F1000F25D12268936957
:1046B00036EA03030ED0691CF9D07DB1FEF734FB56
:1046C000C01B8542F2D209E06B1C06D1936936EA21
:1046D0000303F9D00020BDE8F08145B9012384F837
:1046E0003530002384F834300320BDE8F081FEF734
:1046F0001BFBC01B8542F1D32268E7E770B5044677
:104700000D46FEF711FB064623689B699B0619D4EC
:1047100029462046FFF776FFB0B96DB994F83630D8
:1047200043F0200384F83630012384F83530002329
:1047300084F83430032070BDFEF7F6FA801B854202
:10474000E2D2EBE7002070BD012070BD70B50446D9
:104750000D46FEF7E9FA064623689B699B071BD4C2
:1047600029462046FFF74EFFC0B96A1CF4D06DB948
:1047700094F8363043F0200384F83630012384F86F
:104780003530002384F83430032070BDFEF7CCFAB6
:10479000801B8542E0D2EBE7002070BD012070BD98
:1047A00073B51E464FF400530446009315464FF070
:1047B0008073F2B2FFF714FF06992046FFF7C6FF99
:1047C00028B194F83630042B0DD1012017E0012ECA
:1047D00023680AD1EDB29D62069B0022802120460B
:1047E000FFF758FF58B1032009E02A0A9A62069998
:1047F0002046FFF7ABFF0028E3D12368EAE702B0C9
:1048000070BD73B51E464FF4005304460093154621
:104810000023F2B2FFF7E4FE06992046FFF796FF69
:1048200028B194F83630042B0DD1012017E0012E69
:1048300023680AD1EDB29D62069B002240212046EA
:10484000FFF728FF58B1032009E02A0A9A62069967
:104850002046FFF77BFF0028E3D12368EAE702B098
:1048600070BD704710B50446002841D090F835302F
:104870000BB9FFF7F6FF022384F835302368E168AF
:104880001A6822F001021A60626822F070621A61EE
:104890009A6822F400429A60A26842B1012903D1C9
:1048A00042F400429A6007E042F404429A6002290E
:1048B00004BF4FF400625A605A68216942F00072E6
:1048C00042F400425A6062690A43A16942EA012245
:1048D000DA60E169226A0A431A601A6842F001024A
:1048E0001A600020012384F8360084F8353010BDAA
:1048F000012010BD704710B5044688B1026802233C
:1049000080F83530136823F001031360FFF7F2FFDE
:10491000002084F8360084F8340084F8350010BD97
:10492000012010BD2DE9F34790F83550DDF82880BF
:10493000BDF82C60DDF830A0EDB2012D04468946AB
:104940007ED1B8F1000F01D101207AE0002EFBD01A
:104950000768BF6917F4004772D190F834E0BEF1E0
:10496000010F6DD04FF0520E80F835E080F83450D2
:1049700080F83670CDF800A0FFF712FF20B194F850
:10498000363084F8347041E0FF2E00900AD94FF0A1
:104990008073FF2249462046FFF722FEFF2508F1DB
:1049A000FF3823E04FF00073F2B249462046FFF78C
:1049B00017FE3546F3E7236818F8012F9A62013E87
:1049C000013DB6B219D1D6B153462A4680212046C0
:1049D000FFF760FEE0B9FF2E00951BD94FF0807302
:1049E000FF2249462046FFF7FBFDFF2551462046A2
:1049F000FFF7ACFE0028DED006E0002EF6D119212C
:104A00002046FFF77BFE70B194F83630042B9BD024
:104A1000032016E04FF00073F2B249462046FFF73C
:104A2000DFFD3546E2E723682022DA615968064A4D
:104A30000A405A60012384F8353084F8340000E0DD
:104A4000022002B0BDE8F08700E800FE2DE9F34740
:104A500090F83550DDF82880BDF82C60DDF830A0E6
:104A6000EDB2012D0446894640F08380B8F1000F75
:104A700001D101207EE0002EFBD00768BF6917F44A
:104A8000004776D190F834E0BEF1010F71D04FF0BD
:104A9000620E80F835E080F8345080F83670CDF83A
:104AA00000A0FFF7AEFE20B194F8363084F83470E1
:104AB0004EE04FF41053FF2E00930AD94FF080734D
:104AC000FF2249462046FFF78BFDFF2508F1FF38FE
:104AD00023E04FF00073F2B249462046FFF780FD15
:104AE0003546F3E72368013E5B6A08F8013F013D64
:104AF000B6B224D12EB353462A4680212046FFF772
:104B0000C9FD38BBFF2E009510D94FF08073FF22EE
:104B100049462046FFF764FDFF2553460022042145
:104B20002046FFF7B7FD0028DCD013E04FF00073FC
:104B3000F2B249462046FFF753FD3546EDE7002E19
:104B4000EBD119212046FFF7D9FD28B194F8363072
:104B5000042B8ED003200DE023682022DA615968EF
:104B6000064A0A405A60012384F8353084F834003C
:104B700000E0022002B0BDE8F08700BF00E800FEC0
:104B800090F83500704703685A6822F0E0025A60D6
:104B90004268B2F5827F0AD18268B2F5004F02D036
:104BA000B2F5806F03D11A6822F040021A60826A5F
:104BB000B2F5005F07D11A6822F400521A601A6831
:104BC00042F400521A60012380F85D30002380F81F
:104BD0005C30032070472DE9F04105460F4616462C
:104BE0001C46FEF7A1F880462B689A683A40B2420C
:104BF0000ED0621CF9D024B92846BDE8F041FFF779
:104C0000C2BFFEF791F8C8EB00008442ECD2F3E794
:104C10000020BDE8F0812DE9F34107460E46154618
:104C20001C46FEF781F8804639688A683240AA42FD
:104C300015D0B6F5C06F04D11DB90B7BDBB28DF872
:104C40000730631CF1D01CB93846FFF79CFF07E022
:104C5000FEF76AF8C8EB00008442E5D2F4E70020D2
:104C600002B0BDE8F08138B500220B460D464FF486
:104C7000C0510446FFF7CFFF024668B92B4680219A
:104C80002046FFF7A8FF024630B92B464FF4C0611B
:104C90002046FFF7C0FF30B194F85E3043F02003A8
:104CA00084F85E30032038BD704770B50446002894
:104CB0004CD0022380F85D30FFF7F6FF2168E268F0
:104CC0000B68B2F5E06F23F040030B604FF0000378
:104CD00003D91846B2F5706F01E04FF4805018BF49
:104CE000A362236B2BB9B2F5E06F8CBF02230123C3
:104CF0002363A5686668A3692E4325692E43656909
:104D00002E43E5692E43256A2E43A56A2E4303F4FC
:104D1000007535430D60256B022D02BF0D6845F40B
:104D200000650D60656A2A43656B1B0C154303F033
:104D3000040245EA020303434B60E36A0B6100206F
:104D4000012384F85E0084F85D3070BD012070BDE1
:104D5000704710B5044688B10268022380F85D30C0
:104D6000136823F040031360FFF7F2FF002084F87C
:104D70005E0084F85D0084F85C0010BD012010BD69
:104D80002DE9F74F90F85D500C9E4FF0000B012D70
:104D90000446894692469846ADF806B001D00220F6
:104DA0002FE1002900F02A81002A00F02781002B42
:104DB00000F02481FDF7B8FF94F85C30012B074622
:104DC000EDD0052384F85D30A36A84F85C50B3F518
:104DD000005F84F85EB0C4F840A0A4F84680A4F850
:104DE0004480C4F83890A4F83E80A4F83C8022683F
:104DF00007D1136823F400531360136843F400537E
:104E00001360E1685368B1F5E06F02D8B8F1010FA3
:104E100002D923F4805301E043F4805353601368B4
:104E200058065EBF136843F040031360B1F5E06FAE
:104E300049D9E38FB4F84600002B33D0226891683B
:104E4000890710D5A16B013B31F8025BD5609BB29D
:104E5000A163E3873BB9A36AB3F5005F02BF1368A0
:104E600043F48053136068B123689A68D20709D568
:104E7000DA68236C23F8022B2364B4F84630013B34
:104E8000A4F84630751CD4D036B9012384F85D30BF
:104E9000002384F85C30B3E0FDF746FFC01B864278
:104EA000C7D2F2E70028DFD1A36AB3F5005F40F074
:104EB000858058E021688B68980708D4B4F846309C
:104EC0003BBB731C47D1E28F002AF3D11DE0022ABD
:104ED000A36B06D933F8020BC860023AA363E287DA
:104EE00006E05A1CA2631B780B73E38F013BE38738
:104EF000E38F002BE2D1A36AB3F5005F01BF226804
:104F0000136843F480531360D8E7B4F84630002B9D
:104F1000CAD022689168C907D3D5012B236C10D958
:104F2000D16823F8021B2364B4F84630023B9BB2DD
:104F3000012BA4F84630C4D8536843F4805353601F
:104F4000BFE7591C2164127B1A70B4F84630013B4C
:104F5000A4F84630B5E7002E97D0FDF7E5FEC01B5C
:104F60008642B0D291E70222334611462046FFF72F
:104F700032FE28B194F85E3043F0020384F85E30CC
:104F8000E368B3F5706F236802D1DB689BB213E06E
:104F9000226B1B7BADF80630022A0FD13346114637
:104FA0002046FFF718FE28B194F85E3043F0020364
:104FB00084F85E3023681B7BADF80630314620460E
:104FC000FFF751FEE0B92568AA68012312F010012D
:104FD00084F85D3094F85E200AD042F0020284F832
:104FE0005E206FF01002AA6084F85C00184608E0AA
:104FF000101C84F85C1018BF012002E0284600E075
:10500000032003B0BDE8F08F90F85D00704708B54D
:1050100080B1D0F8143213B10023C0F8143209B1B2
:10502000C0F81012012380F8FC31027000F07EFC01
:10503000002008BD022008BD19B1C0F814120020DC
:1050400070470220704708B500F0AEFC002008BD94
:1050500008B5D0F814320BB9022008BD1B68984778
:105060000028F9D108BD08B5D0F814325B6898471C
:10507000002008BD38B5044600F50275284600F04A
:10508000CAF8012394F80812C4F8F431B4F80E32C7
:10509000C4F8F83101F01F03012B0CD006D3022B0A
:1050A0000ED12946204600F0F7F90EE029462046A9
:1050B00000F0D0F809E02946204600F0D5F904E0D8
:1050C00001F08001204600F087FC002038BD38B593
:1050D0000446154609BBD0F8F431032B26D1D0F88D
:1050E0000C11D0F8102191420AD98B1A9A4228BF8C
:1050F0001A46C0F80C3192B2294600F066FA15E063
:10510000D0F814321B6923B190F8FC21032A00D196
:105110009847204600F061FA08E0D0F814329B6905
:1051200023B190F8FC21032A00D19847002038BD14
:1051300038B504461546A9BBD0F8F431022B29D165
:10514000C269036A9A4206D9D21AC261294692B24A
:1051500000F024FA1EE08269B2FBF3F503FB15258B
:105160005DB9934209D8D0F8F8319A4205D22A465F
:1051700000F014FAC4F8F8510CE0D4F81432DB68EB
:105180002BB194F8FC21032A01D1204698472046F0
:1051900000F02EFA94F80032012B0CD1002384F891
:1051A000003208E0D0F814325B6923B190F8FC219A
:1051B000032A00D19847002038BD38B500220446A4
:1051C00011464025402300F0F6FB2B46C4F8105151
:1051D00000228021204600F0EEFB012384F8FC3100
:1051E000D4F8183225622BB1D4F8143221795B68D7
:1051F00020469847002038BD01740020704708B54C
:1052000090F8FC21032A04D1D0F81432DB6903B1F1
:105210009847002008BD0B7803704B784370CA781C
:105220008B7803EB022343804A790B7903EB02234B
:105230008380CA798B7903EB0223C380704710B552
:105240008021044600F0C8FB20460021BDE8104044
:1052500000F0C2BB73B54B7804460D46092B00F233
:10526000F980DFE813F0CB00E200F700DE00F70082
:1052700075000A00F700BB0091004B881A0A013A3A
:10528000062A00F2E780DFE812F007000B001700A3
:10529000E500E5003C004700D0F810321B6817E03D
:1052A000027CD0F814320AB99B6A00E0DB6A0DF187
:1052B0000600984702233AE0DBB2052B00F2CA80D1
:1052C000DFE803F0030B0F13171BD0F810325B68F5
:1052D000207C0DF1060198472AE0D0F810329B6837
:1052E000F6E7D0F81032DB68F2E7D0F810321B692D
:1052F000EEE7D0F810325B69EAE7D0F810329B692C
:10530000E6E7037C002B40F0A580D0F814320DF1C5
:1053100006005B6B98470BE0037C002B40F09A8003
:10532000D0F814320DF106001B6B98470723437029
:10533000BDF80620002A00F09180EB88002B00F0D9
:105340008D809A4228BF1A46ADF80620014664E0D7
:105350008B88002B7ED1CB88002B7BD190F8FC3141
:105360008E78032B06F07F0674D080F8FE613146FC
:1053700000F053FB204600F030F90EB1022300E0AC
:10538000012384F8FC3169E08978364E01293170B7
:1053900060D890F8FC31022B02D0032B08D059E0E2
:1053A000002953D001210323416080F8FC310FE034
:1053B00031B9022380F8FC314160FFF754FE45E02B
:1053C0004168012942D0C9B2FFF74DFE31786160D2
:1053D0002046FFF73DFE022838D13BE0CA88012A6B
:1053E00038D190F8FC31022B03D0032B32D1011DB0
:1053F00013E00146002341F8083F0EE090F8FC312D
:10540000023B012B26D80123C360D0F804320BB134
:105410000323C360022204F10C01204600F0B1F81E
:105420001CE04B88012B19D108E090F8FC31023BBD
:10543000012B0FD84B88012B10D10023C4F8043264
:10544000D4F8143229469B6820469847204600F03D
:10545000C4F803E029462046FFF7F1FE002002B021
:1054600070BD00BF080C002038B590F8FC31032B4C
:1054700004460D460CD10B79012B09D8D0F8143213
:105480009B689847EB882BB9204600F0A6F801E00E
:10549000FFF7D5FE002038BD70B54E788A88012E02
:1054A00004460D46D3B210D026D3032E4BD190F82C
:1054B000FC21022A27D0032A43D14A8892B95E06EA
:1054C00010D0194600F088FA0CE090F8FC21022A6E
:1054D00019D0032A35D14A88AABB590608D01946E3
:1054E00000F081FAD4F8143229469B682046984788
:1054F000204600F072F826E090F8FC51022D02D010
:10550000032D06D01DE05A061DD0194600F064FA9E
:1055100019E003F07F0512F0800F00EB0515194626
:1055200014BF143505F5827500F064FA10B101233B
:105530002B6000E0286002222946204600F021F876
:1055400001E0FFF77CFE002070BD30B5C0B105461C
:105550002B1A15F8014BDBB2002CF9D15B0002339A
:1055600013800B7003234B700138022310F8015F86
:1055700035B15A1CD2B2CD540233DBB28C54F5E7AC
:1055800030BD10B513460222C0F8F42183610A46EB
:10559000C361002100F048FA002010BD08B5134691
:1055A0000A46002100F040FA002008BD10B513465D
:1055B0000322C0F8F421C0F808310A46C0F80C31C3
:1055C000002100F038FA002010BD08B513460A4645
:1055D000002100F030FA002008BD08B50423C0F80F
:1055E000F43100231A46194600F01EFA002008BDC7
:1055F00008B50523C0F8F43100231A46194600F017
:105600001AFA002008BDD0F818321BB10020C3F8E8
:105610001402704702207047D0F81C3210B5D0F841
:1056200018425BB194F80002FF2807D09B6894F8F9
:10563000012221469847FF2384F80032002010BD44
:105640004323038000487047140000204323038055
:1056500000487047E0000020432303800048704763
:105660009C0000200A23038000487047900000201F
:1056700038B50546D0F8184200F0E4F9D5F81832EC
:10568000C4F80C024BB1D5F81C32D4F80402DB6824
:1056900004F503719847002038BD022038BDF8B5E5
:1056A0000C46097801F06003202B064622D1E288DF
:1056B0006378CAB10906D0F818520BD5D0F81C127D
:1056C00018468F682946B847E28829463046FFF7D2
:1056D00058FF0FE085F80032E38885F80132E28850
:1056E0002946FFF763FF05E0D0F81C1218468C68C6
:1056F0001146A0470020F8BD10B58121044600F0F6
:1057000064F90121204600F060F98221204600F072
:105710005CF9D4F8183253B1D4F81C325B6898475E
:10572000D4F8180200F098F90023C4F818320020C9
:1057300010BDF8B5037C044643B94FF40073022250
:10574000812100F038F94FF4007305E04023022274
:10575000812100F030F9402302220121204600F08F
:105760002AF9082303228221204600F024F94FF46D
:10577000077000F06DF90646C4F81802E8B1D4F8D5
:105780001C321B689847277C0025C6F81452C6F8BF
:1057900018524FB94FF40073D6F804220121204665
:1057A00000F049F93846F8BD4023D6F8042201211B
:1057B000204600F040F92846F8BD0120F8BD19B197
:1057C000C0F81C120020704702207047D0F8183231
:1057D0000020C3F80812C3F810227047D0F818321E
:1057E0000020C3F80412704738B5D0F8185275B1CC
:1057F000D5F814426CB9B5F81032D5F808228121D9
:1058000000F012F90123C5F81432204638BD0220F9
:1058100038BD012038BDD0F8182210B562B1047C23
:1058200014B94FF4007300E04023D2F804220121A0
:1058300000F001F9002010BD022010BD2DE9F0415B
:10584000244C636943F400336361636986B043F4B5
:10585000802363614FF4C056112300254FF00308E5
:105860000E2701A94FF09040029301960395CDF8C1
:1058700010800597FDF7D4FA2A4631464FF0904044
:10588000FDF79AFB0120FDF755FA012231464FF052
:105890009040FDF791FB022301A94FF09040029345
:1058A00001960395CDF810800597FDF7B9FAE369E5
:1058B00043F40003E361A36943F00103A3612A46B3
:1058C00005211420FDF756FA1420FDF787FA06B0DB
:1058D000BDE8F0810010024000F5A271D0F874011B
:1058E000FFF7C8BB1C2303FB0103D0F87401D3F8F6
:1058F000C420FFF7ECBB1C2303FB0103D0F87401A9
:105900009A6BFFF715BCD0F87401FFF778BC10B59F
:1059100004460121D0F87401FFF76EFCD4F874013D
:10592000BDE81040FFF749BC7047704738B51C4AC6
:1059300005461C48C5F820020823002480E80C0016
:105940000223C46003618360C0F87451FDF739FB22
:10595000224621464023D5F82002FEF742FA802352
:1059600022461946D5F82002FEF73BFA2246C0230C
:105970008121D5F82002FEF734FA22464FF48873CD
:105980000121D5F82002FEF72CFA4FF4807322464D
:105990008221D5F82002FEF724FA204638BD00BF48
:1059A000005C0040BC12002008B5D0F82002FDF7D2
:1059B00056FB002008BD10B51C46D0F82002134647
:1059C0002246FDF768FB002010BD08B5D0F8200284
:1059D000FDF7FCFC002008BD08B5D0F82002FEF75A
:1059E0004EF9002008BD08B5D0F82002FEF796F960
:1059F000002008BD11F0800FD0F8202218BF01F060
:105A00007F034FF01C0015BF00FB032100FB0121A9
:105A100091F82A0091F8B600704708B5D0F8200236
:105A2000FDF723FB002008BD08B5D0F82002FDF7E4
:105A300029FE002008BD08B5D0F82002FDF79DFD25
:105A4000002008BD08B5D0F82002FDF713FE08BD00
:105A5000004870470C0C00207047000012230B8098
:105A600000487047C0B8010804230B800048704705
:105A70006FB8010830B50024E3B293420DD2030F92
:105A8000092B94BF3033373301F8143001EB440352
:105A9000002500015D700134EEE730BD1A2310B51A
:105AA000094A0B80094B50681B681468181808D005
:105AB00007490822FFF7DEFF204606490422FFF7C8
:105AC000D9FF054810BD00BFB0F7FF1FACF7FF1F9F
:105AD00042010020520100204001002010B5044C7A
:105AE00004480A462146FFF730FD204610BD00BF9E
:105AF0003414002073B8010810B5044C04480A4659
:105B00002146FFF722FD204610BD00BF34140020BF
:105B100094B8010810B5044C04480A462146FFF722
:105B200014FD204610BD00BF34140020A7B80108A2
:105B300010B5044C04480A462146FFF706FD2046EE
:105B400010BD00BF34140020B2B801080020704717
:105B500008B50A6801460020FBF736FF0248FFF748
:105B60005AFE002008BD00BFB00F002008B5034951
:105B70000348FFF733FE002008BD00BFA415002036
:105B8000B00F0020202812D0212819D10D4B1A68FF
:105B90000A701A68120A4A705A888A70DA78CA70CB
:105BA0001A790A715A794A719B798B7108E0054B11
:105BB0000A681A600A791A714A795A718A799A714F
:105BC000002070475C01002010B51C4C86B02046B8
:105BD000FFF71AFA00282ED1194B23601823E3612E
:105BE0000723E3624FF4E063E3604FF40073A361C3
:105BF0004FF482736360134BA06060612061A06208
:105C0000206260629A6942F480529A615A6942F451
:105C100000325A61E023019302230293032303908D
:105C200004934FF09040052301A90593FDF7F8F880
:105C30002046FFF73AF806B010BD00BF3C0E00202A
:105C400000300140001002407FB506AA002302F890
:105C5000013D0B4B8DF80F001B6800930DF10F01F8
:105C600001230848FFF78CF820B10648FFF771F8C8
:105C7000FFF7AAFF9DF8170007B05DF804FB00BF0F
:105C8000740100203C0E002030B5164C87B0204631
:105C9000FEF776FF18BB144B23603223A360134D2D
:105CA000206101236061E0612062E3606B6910485C
:105CB00043F480236B61C023019302230293039377
:105CC0000323049304230DEB03010593FDF7A8F8C8
:105CD000EB6943F40013EB612046FEF7C3FD07B008
:105CE00030BD00BF9C0E0020005400400010024058
:105CF0000004004870B5044686B068B101280BD096
:105D0000022809D0032807D0042805D0052803D08D
:105D1000062801D0072804D10D4A536943F4001323
:105D200053610C4B0C4D33F8146055F82400019668
:105D300001230293039301A903230493FDF770F851
:105D40000022314655F82400FDF736F906B070BD43
:105D500000100240D2B8010880010020044B33F843
:105D60001010044B012253F82000FDF725B900BFA5
:105D7000D2B8010880010020044B33F81010044B06
:105D8000002253F82000FDF717B900BFD2B8010870
:105D90008001002010B5194B86B018B95A6942F439
:105DA00000325A619A6942F001029A6169B901238D
:105DB00001930223039303230493114B029153F89D
:105DC000200001A9FDF72CF816E0012914D10323C6
:105DD00004930C4B02930A4B019153F820000024CA
:105DE00001A90394FDF71CF8062022460F21FCF7B9
:105DF000C1FF0620FCF7F2FF06B010BD0010024004
:105E0000780100200000111008B5034B012153F860
:105E10002000FDF7CBF808BD780100202DE9F04304
:105E2000164C174D636987B043F400136361002675
:105E30004FF008084FF00109032701A92846CDF8C3
:105E40000480CDF8089003960497FCF7E9FF4A46D2
:105E500041462846FDF7B0F8636943F400136361D7
:105E600001A9062328460193029604970396FCF79E
:105E7000D7FFFFF7A9FE07B0BDE8F083001002408E
:105E800000100048012A70B50D46064688BF41F053
:105E900040050C48144608210022FDF78DF82846DD
:105EA000FFF7D2FE34B116F8010B013CFFF7CCFE30
:105EB000A4B2F7E7012208210248BDE87040FDF7CF
:105EC0007BB800BF00100048012A70B58CBF41F0BC
:105ED000C00541F08005064614460C480022082102
:105EE000FDF76AF82846FFF7AFFE3CB10020FFF748
:105EF000ABFE013C06F8010BA4B2F6E70122082133
:105F00000248BDE87040FDF757B800BF00100048D8
:105F1000164B5A6970B542F400125A615A69144D11
:105F200042F4001286B05A61042300240DEB0301F1
:105F3000032628460193029403940496FCF770FF0D
:105F4000224621460820FCF715FF0820FCF746FFF3
:105F5000302301A928460193029404960394FCF788
:105F60005FFFFFF791FE06B070BD00BF001002405A
:105F70000010004810B50E4A0E48536986B043F42D
:105F800000135361302301930B4B0293002403232E
:105F900001A904930394FCF743FF224621460A20FB
:105FA000FCF7E8FE0A20FCF719FF06B010BD00BFA1
:105FB00000100240001000480000111010B586B01B
:105FC00006AC0A4B04F8012D1B68029301230A4614
:105FD0000193014600940648FEF7A4FC20B1044852
:105FE000FEF789FCFFF750FE06B010BD7C010020D3
:105FF0009C0E00207FB506AA002302F8013D0B4B42
:106000001B68029301238DE80C000A4601460848EC
:10601000FEF71CFD20B10648FEF76DFCFFF734FECD
:106020009DF8170007B05DF804FB00BF7C0100205D
:106030009C0E002038B5094C6368984733280BD173
:10604000074D23682C6040F6470098472B68902046
:106050001B6A9847002038BD012038BDA0010020F0
:10606000D40E0020024B1B689B6A03B1184770478F
:10607000D40E002038B50E4C63689847D4282546C6
:106080000FD10C4C2B68256041F23F0098472368E4
:1060900000201B6A9847236810205B6A98470020FD
:1060A00038BD63689847D528EBD0012038BD00BFC4
:1060B000CC010020D80E0020024B1B689B6A03B164
:1060C00018477047D80E002010B50446FFF720FF90
:1060D000E2B220213220FFF771FF0022232132207B
:1060E000BDE81040FFF76ABF08B5FFF711FF0F21A9
:1060F0003220BDE80840FFF77DBF08B524213220DB
:10610000FFF778FF60F07F02D2B224213220BDE891
:106110000840FFF753BF10B5212104463220FFF796
:1061200069FF00F00C02224321213220BDE810401B
:10613000FFF744BF10B5212104463220FFF75AFF74
:1061400000F0F702224321213220BDE81040FFF782
:1061500035BF2DE9F347232106463220FFF74AFFDA
:10616000242104463220FFF745FF28213220FFF783
:1061700041FF29214FFA80FA3220FFF73BFF2A2105
:106180004FFA80F83220FFF735FF2B2147B232203B
:10619000FFF730FF2C2145B23220FFF72BFF2D21D6
:1061A0004FFA80F93220FFF725FF630640B216D47C
:1061B0000AEB082807EB0525ADF80080ADF8025082
:1061C00009EB002004F03004202CADF8040011D0BD
:1061D000302C11D0102C0CBF022301230DE008EB52
:1061E0000A2805EB0725ADF80080ADF8025000EB5A
:1061F0000920E7E7042300E00C23BDF800209BB250
:1062000012FB03F23280BDF8022012FB03F272800F
:10621000BDF8042012FB03F3B38002B0BDE8F087A1
:1062200010B5212104463220FFF7E4FE00F0FB0206
:10623000224321213220BDE81040FFF7BFBE10B538
:10624000222104463220FFF7D5FE40EA0402D2B2F2
:1062500022213220BDE81040FFF7B0BE10B5382132
:1062600004463220FFF7C6FE40EA0402D2B23821CB
:106270003220FFF7A3FE0A223A213220FFF79EFECA
:1062800005223B213220FFF799FE05223C213220D6
:10629000FFF794FE32223D211046BDE81040FFF783
:1062A0008DBE08B5FFF766FE8020FFF7C8FF04200B
:1062B000FFF7B6FF1020BDE80840FFF7CFBF37B5A6
:1062C00002AC002305468DF80730FFF7A7FD04F860
:1062D000015D012220462021FFF7D4FD2D0A012275
:1062E000232120468DF80750FFF7CCFD03B030BDC9
:1062F00007B5FFF793FD0DF1070001220F21FFF70E
:10630000E3FD9DF8070003B05DF804FB07B501222B
:106310000DF107002421FFF7D7FD9DF8073001227A
:1063200063F07F0324210DF107008DF80730FFF79C
:10633000A9FD03B05DF804FB13B500230446012258
:106340000DF1060030218DF806308DF80730FFF78B
:10635000BBFD0DF1070001222221FFF7B5FD9DF8DD
:10636000063023F07F038DF806309DF8073023F0C8
:1063700020031C430DF10600012230218DF8074057
:10638000FFF780FD012222210DF10700FFF77AFDC2
:1063900002B010BD13B50122044622210DF1070001
:1063A000FFF792FD24B99DF8073063F07F0307E003
:1063B000012C07D19DF8073023F0080343F00803B0
:1063C0008DF80730012222210DF10700FFF75AFD59
:1063D00002B010BD13B50122044622210DF10700C1
:1063E000FFF772FD24B99DF8073003F07F0305E045
:1063F000012C05D19DF8073023F008038DF80730F4
:10640000012222210DF10700FFF73CFD02B010BD73
:1064100013B50122044621210DF10700FFF754FDB9
:106420009DF8070020F03F0020438DF8070001226F
:1064300021210DF10700FFF725FD02B010BD13B5B6
:106440000122044624210DF10700FFF73DFD9DF8D0
:10645000070020F0100020438DF8070001222421BE
:106460000DF10700FFF70EFD02B010BDF0B587B0CB
:10647000044606A8002304AD00F8113D01222321A3
:106480000293ADF80C300493AB80FFF71DFD06229C
:10649000282102A8FFF718FD9DF807309DF8097024
:1064A0009DF808E09DF80B009DF80A609DF80D200E
:1064B0009DF80C1013F0400F1AD10EEB072706EBD6
:1064C0000020ADF81070ADF8120001EB022203F0CD
:1064D0003003102BADF8142015D0202B16D09FEDD3
:1064E000157ADFED157A002B08BFB0EE677A0FE062
:1064F00007EB0E2700EB0620ADF81070ADF8120088
:1065000002EB0122E3E79FED0D7A01E09FED0C7AAB
:106510002046002335F9132007EE902AF8EEE77A9B
:10652000013367EE877A032BE0EC017AF2D107B0F2
:10653000F0BD00BF0000000000000C4100008C41D5
:1065400000008C42DFF834D0002103E00C4B5B5894
:10655000435004310B480C4B42189A42F6D30B4A75
:1065600002E0002342F8043B094B9A42F9D3FBF7BF
:10657000D9FE00F017F8FAF761FEFEE7FF7F002072
:1065800084BB0108000000209C0A00209C0A002017
:10659000E01D0020FEE70000014B1868704700BFB7
:1065A0002806002070B50F4E0F4D761BB61018BF91
:1065B000002405D0013455F8043B9847A642F9D190
:1065C0000A4E0B4D761B04F0EFFDB61018BF0024E9
:1065D00006D0013455F8043B9847A642F9D170BD66
:1065E00070BD00BF78BB010878BB010880BB010803
:1065F00078BB010870B4840746D0541E002A41D0ED
:10660000CDB2034602E0621EE4B3144603F8015B18
:106610009A07F8D1032C2ED9CDB245EA05250F2CC7
:1066200045EA054519D903F110022646103E0F2E02
:1066300042F8105C42F80C5C42F8085C42F8045CDA
:1066400002F11002F2D8A4F1100222F00F0204F0BD
:106650000F041032032C13440DD91E462246043A6F
:10666000032A46F8045BFAD8221F22F00302043200
:10667000134404F003042CB1C9B21C4403F8011BF9
:10668000A342FBD170BC704714460346C2E700BF6B
:106690000FB400B5074983B004AB086853F8042B66
:1066A0008168019300F05CFA03B05DF804EB04B07C
:1066B000704700BF28060020034B1B6801469A68FC
:1066C000184604F023B900BF28060020F0B505469F
:1066D00089B008460C46F9F7B3FDAB6B144F049430
:1066E0000126441C04A9022203940590AC68069775
:1066F000079601910292B3B1B4F90C309A0406D412
:10670000626E43F4005322F40052A3816266214674
:10671000284601AA03F092F8002814BF4FF0FF307A
:106720000A2009B0F0BD284602F034FFE4E700BFBC
:10673000F0B90108024B01461868FFF7C7BF00BF58
:10674000280600202DE9F043514C256883B004460B
:106750000F4690461E4615B1AB6B002B79D0B8F1B1
:10676000020F04D0B8F1010F7FD8002E7DDB214647
:10677000284602F07BFE216B41B104F140039942AF
:1067800002D0284602F072FF00232363B4F90C30D4
:106790000022A26162601A0654D423F44A6323F0F3
:1067A0000303B8F1020FA38139D001AB6A46214639
:1067B000284603F0FDF9A3891843A08126B327B327
:1067C000AB6B002B4DD0009BB4F90C0027609E42B0
:1067D0001CBF40F40060A081B8F1010F08BF40F079
:1067E000010083B208BFA08103F0080080B22761D6
:1067F000666118B313F001002FD000207642A66125
:10680000A06003B0BDE8F083009E304603F044FA78
:10681000074668B3A38943F08003A381D0E7002033
:1068200004F1430243F0020300250121A381A56086
:1068300022602261616103B0BDE8F083A06003B013
:10684000BDE8F0832169284602F010FFB4F90C304E
:10685000A3E7284602F09EFE81E7A66003B0BDE8EC
:10686000F083284602F096FEADE74FF0FF30E2E7F6
:10687000DDF80090B14506D0484603F00DFA074612
:1068800008B14E46C6E7B4F90C304FF0FF30C7E709
:1068900028060020114B30B41D6810F8014B2B194D
:1068A00022465B7803F00303012B11F8013B08BF7C
:1068B00004F12002EC18647804F00304012C06D0E3
:1068C000D21A01D1002BE8D1104630BC70472033DA
:1068D000D21AE2D0104630BC704700BFF801002049
:1068E00080EA0102844612F0030F4FD111F0030F2A
:1068F00032D14DF8044D11F0040F51F8043B0BD088
:10690000A3F101329A4312F0803F04BF4CF8043BDC
:1069100051F8043B16D100BF51F8044BA3F10132EA
:106920009A4312F0803FA4F101320BD14CF8043BA2
:10693000A24312F0803F04BF51F8043B4CF8044BD3
:10694000EAD023460CF8013B13F0FF0F4FEA332344
:10695000F8D15DF8044B704711F0010F06D011F823
:10696000012B0CF8012B002A08BF704711F0020F11
:10697000BFD031F8022B12F0FF0F16BF2CF8022BFC
:106980008CF8002012F47F4FB3D1704711F8012B1F
:106990000CF8012B002AF9D1704700BF024B1A688E
:1069A00001235C3200F002B828060020F0B420B3C6
:1069B00007460D4617F8016B01E0A64216D015F800
:1069C000014B002CF9D1EEB13E460C4616F8015BA6
:1069D00000E073B114F8013B9D42FAD15DB1002390
:1069E0003B70166006463046F0BC704763B13846CF
:1069F000DEE73746E8E72E46F3E710680028D7D1F0
:106A00000646F0E71660EEE7176006460370EAE711
:106A10002DE9F04F494C82460E46D4F800E000E0E4
:106A20002646344614F8015B0EEB0500407800F072
:106A3000080000F0FF0C0028F2D12D2D54D02B2D92
:106A400004BF7578B41C5BB1102B5ED04FF0FF38DB
:106A5000B8FBF3F803FB08FB6FEA0B0B994607E062
:106A6000302D46D00A23DFF8D88099464FF0050B29
:106A7000002738460CE0303DAB4219DD7E1C05D0C6
:106A8000404522D81FD009FB0050012714F8015BB4
:106A90000EEB0506767816F0040FECD116F003061F
:106AA00006D0012E14BF57263726AD1BAB42E5DCBE
:106AB000002F0FDBBCF1000F00D0404242B17FB984
:106AC0001160BDE8F08F5D45DDDD4FF0FF37DDE79C
:106AD000BDE8F08F2223CAF800304FF0FF305AB3E0
:106AE000611E1160BDE8F08FB41C75784FF0010C89
:106AF000A9E7237803F0DF03582B0DD0082399462C
:106B00004FF0070B6FF06048B2E7302D0ED12078C0
:106B100000F0DF00582809D14FF0100965784B4686
:106B20004FF00F0B02346FF07048A1E74FF00F0BDE
:106B30006FF0704899469BE7BDE8F08FF8010020A0
:106B40009999991910B4044C13460A4601462068D5
:106B50005DF8044BFFF75CBF280600200000000032
:106B60002DE9F04FC1B01C4604911646054606902B
:106B700003F01AF8036813931846F9F761FB0A94B7
:106B800012901DB1AB6B002B00F023810498B0F97B
:106B90000C2093B2990407D4416E42F4005321F4BF
:106BA0000051838141669BB21A0740F1DD80049A4F
:106BB0001269002A00F0D88003F01A030A2B00F0B3
:106BC000E1809FED877B00238DED107B0E93259355
:106BD000249315930793DFF814A230AB23939946BF
:106BE000B04698F800304446EBB1252B02D11AE0AC
:106BF000252B03D014F8013F002BF9D1C8EB040575
:106C00008DB1249B259AC9F8008001332A44072BB3
:106C1000C9F804502592249300F3C28009F10809B1
:106C2000079B2B4407932378002B00F0C28000239E
:106C30001A468DF86F301946089303934FF0FF3BC7
:106C4000637804F101085D4608F10108A3F1200012
:106C5000582800F25984DFE810F00F045704570455
:106C60001804570457045704570457045704620381
:106C7000490457045D00090157042501700370039E
:106C80007003700370037003700370037003570484
:106C9000570457045704570457045704570457041C
:106CA000570480039D0357049D035704570457045A
:106CB0005704EB03570457042C0157045704570497
:106CC00057045704550157045704B4025704570496
:106CD00057045704570457045704570457045704DC
:106CE000F5020F039D039D039D033F030F0357040C
:106CF0005704460357045003CB0064002004570494
:106D000028045704F20357045704FA0308980A9317
:106D100040420890039B43F00403039398F800302B
:106D200092E70A98AB46002104688DF86F10071DA2
:106D30000398302378228B458DF870304FF0000592
:106D40008DF8712040F00203C0F2FB8320F0800335
:106D500043F00203039354EA05030A9700F0CC833F
:106D60000F460D9220485DE20499069801F0B8FAAA
:106D7000002841F03C80049B9B8903F01A030A2BF6
:106D80007FF41FAF0499B1F90E30002BFFF619AF55
:106D900023463246069801F06DFA41B0BDE8F08F07
:106DA00023AA0499069804F043F848B90DF1C009E4
:106DB00036E7259B23B10698049923AA04F038F8F6
:106DC000049B9B89590601F11280079841B0BDE8E8
:106DD000F08F069802F0DEFBD8E600BFAFF300802C
:106DE000000000000000000028BA010848BA0108AD
:106DF0000D93AB46002A41F01C82039A12F0200347
:106E000064D00A9F073727F00703002703F1080122
:106E1000BB450A91D3E900458DF86F70C0F2B88682
:106E200022F08003039354EA050300F0828330AE1E
:106E3000E20842EA4572E90804F007030D461446E9
:106E4000303354EA050206F8013DF1D1039AD20726
:106E500040F19680302B00F093803022731E06F8AC
:106E6000012C30AAD21A09921E468CE098F8003004
:106E70002A2B08F1010401F0AE81A3F130000928AA
:106E800098BF002501F25E8114F8013B05EB8505F2
:106E900000EB4505A3F130000928F5D945EAE57571
:106EA000A046D3E6039B43F08003039398F8003099
:106EB000CAE60D93AB46002A41F0B481039B43F030
:106EC00010030393039A12F020039AD1039911F04F
:106ED000100200F034860A988DF86F30BBF1000F75
:106EE000046800F104074FF00005C0F250860A461E
:106EF00022F08002039254EA05020A9700F01983F7
:106F00001F4694E70D93AB46002A41F0AA81039BEC
:106F100043F010030393039A12F0200300F0FA8465
:106F20000A9F073727F00703002703F10801BB4535
:106F30000A91D3E900458DF86F70C0F2238522F0E5
:106F40008003039354EA050300F0BC81002D08BFC1
:106F50000A2CC0F01B8530AE204629460A220023A9
:106F6000F9F758FF303206F8012D20462946002354
:106F70000A22F9F74FFF04460D4654EA0503EBD108
:106F800030AB9B1B0993099B5B45B8BF5B460593E0
:106F900000230F9317B1059B01330593039B13F057
:106FA00002030B9302D0059B02330593039B13F05E
:106FB00084030C9340F0D282089B059A9D1A002D01
:106FC00040F3CC82102D2599249AA84F27DD1496E2
:106FD00048461024B946049E2F46069D04E0103F03
:106FE000102F00F1080016DD0132A04B2492103161
:106FF000072A259180E81800F1DD23AA31462846AA
:1070000003F016FF00287FF4DBAE103F102F259908
:10701000249A30A8E8DC149E3D464F468146013252
:107020006C18072A25942492C9F80070C9F80450F6
:1070300000F328849DF86F7009F1080977B1249B4B
:10704000013301340DF16F010122072B25942493A4
:1070500089E8060000F3A08309F108090B9B6BB1D6
:10706000249B013302341CA90222072B259424936C
:1070700089E8060000F39C8309F108090C9B802B2A
:1070800000F0D082099BC3EB0B07002F33DD784A59
:10709000249B0B92102F22DD22464FF0100B069DF1
:1070A000049C04E0103F102F09F1080916DD01339C
:1070B0001032072B2592249389E8000CF2DD23AAD5
:1070C0002146284603F0B4FE00287FF479AE103F35
:1070D000102F259A249B0DF1C009E8DC14460133DA
:1070E0000B9A24933C44072B259489E8840000F3F1
:1070F000478309F10809039BDD0500F13182249BD8
:107100000999C9F8006001330C44072B2594C9F88C
:107110000410249300F31E8309F10809039B580708
:107120003FD5089B059A9D1A002D3ADD102D249B12
:107130004E4F23DD22461026DDF818B0049C04E0F3
:10714000103D102D09F1080917DD0133474924933B
:107150001032072B259289E84200F1DD23AA21464F
:10716000584603F065FE00287FF42AAE103D102D2E
:10717000259A249B0DF1C009E7DC144601332C4409
:10718000072B25942493C9F80070C9F8045008DD32
:1071900023AA0499069803F04BFE00287FF410AE52
:1071A000259C079B089A05998A42ACBF9B185B18DF
:1071B0000793002C40F0DA82002324930DF1C009DC
:1071C0000FE50D93AB46002A41F04780039B294809
:1071D0009C0640F146810A9F073727F00703D3E951
:1071E000004503F108020A92039A12F0010700F029
:1071F000EB8254EA050300F07F859DF834208DF87A
:1072000071200027039A8DF86F703023BB458DF8ED
:10721000703042F00203C0F2248722F0800343F072
:107220000203039330AE230904F00F0143EA057310
:107230002A091C461546435C06F8013D54EA05033D
:10724000F1D19DE60A990D930A688DF898200023E4
:107250000A461F468DF86F30043201230593BB4662
:107260000F970A92099326AE98E600BFF4B9010879
:1072700048BA010814BA01080D93AB46002A40F041
:10728000C987039B9B0674D50A9F073727F007071A
:10729000D7E9002307F108010A9114461D46002A88
:1072A00073F10003C0F23A84BBF1000F9DF86F70D8
:1072B000C0F26883039B23F08003039354EA050321
:1072C0007FF444AEBBF1000F40F008844FF0000B98
:1072D000CDF824B030AE56E6039B43F04003039351
:1072E00098F80030B0E498F800306C2B00F0C885B6
:1072F000039840F010000390A6E4002A40F08E8727
:10730000039B9F0640F1E1840A9A07991368CD1701
:107310000846043229460A92C3E9000161E40A9C46
:107320002368089318460028234603F10403FFF658
:10733000EDAC0A9398F8003086E4A3F13000002306
:107340001C4618F8013B04EB840400EB4404A3F151
:1073500030000928F5D9089478E40D93AB46002A4B
:1073600040F07387039B43F010030393039B9B063A
:107370008AD4039BDF0600F19482039B5E0640F1F2
:1073800090820A99B1F900400431E51722462B4654
:107390000A9184E70D93AB46002A40F04E87039B89
:1073A0000A9F1D0707F1070740F1848427F00703B0
:1073B00093ED007B8DED107B03F108020A92DDE96D
:1073C000101222F0004316911793DDE916454FF095
:1073D000FF3220462946B54BF9F7DEFC002840F085
:1073E000EA834FF0FF32B14B20462946F9F7B6FC4D
:1073F000002840F0E08300220023DDE91001F9F7C6
:10740000A3FC002840F025869DF86F70A84EA94B7C
:10741000039921F0800103910D9903224FF0000B95
:1074200005924729D8BF1E460992CDF83CB0B1E578
:10743000039B43F00803039398F8003004E40D9392
:10744000AB46002A3FF467AD8DF86F1063E50D93EE
:10745000AB46002A40F0FD86039B97489C063FF50B
:10746000BAAE039BD90640F196830A9A13460433B9
:1074700014680A930025B7E698F8003000297FF4D5
:10748000E3AB01222021FFF7DFBB039B43F00103A5
:10749000039398F80030FFF7D7BB039B43F020031A
:1074A000039398F80030FFF7CFBB0A9A0D93166844
:1074B00000248DF86F40171D002E00F0A385002DCD
:1074C000C0F218852A4621463046F8F729FF0028E1
:1074D00000F00086831B0993A34623EAE3730A970F
:1074E0000593CDF83CB09DF86F7053E598F80030E7
:1074F00001222B21FFF7A8BB6F480D92BBF1000FB3
:1075000040F073815F46E1E60D93002A40F09986D2
:107510000D9A002A3FF44DAC002301211F4605912E
:107520008DF898208DF86F309B460F93099126AE09
:1075300034E5BBF1000F00F0BE85002700240025D4
:1075400075E45D4803930D9254EA05030A974FF0E2
:1075500000077FF467AE0024002563E6259C6DE5F7
:107560000D9B652B40F3AE8000220023DDE9100166
:10757000F9F7E0FB002800F03A81249B4F4AC9F854
:107580000020013301340122072B25942493C9F8EC
:10759000042000F3CB8309F108091D9B0E9A934246
:1075A00003DB039BD8077FF5B9AD249B1299139A8F
:1075B000C9F8002001330C44072B2594C9F80410A6
:1075C000249300F3678409F108090E9B5D1E002DCA
:1075D0007FF7A4AD3A4A249B0B92102D40F3B4815F
:1075E0001026069FDDF810B005E009F10809103DEE
:1075F000102D40F3A98101331034072B25942493D7
:10760000C9F800A0C9F80460EFDD23AA594638463E
:1076100003F00EFC00287FF4D3AB259C249B0DF1D6
:10762000C009E4E7089B059A9F1A002F7FF72AAD4F
:10763000234A249B0B92102F2BDD4A462146B94644
:1076400010253746069C049E06E0A9F11009B9F101
:10765000100F02F1080218DD01331031072B2591BC
:107660002493C2F800A05560EFDD23AA31462046DE
:1076700003F0DEFB00287FF4A3ABA9F11009B9F1F8
:10768000100F2599249B30AAE6DC3E460C464F4657
:10769000914601330B9A24933C44072B259489E8A7
:1076A000840000F32B8209F10809EBE4FFFFEF7F70
:1076B00008BA010804BA010828BA010844BA010846
:1076C00048BA01080E9B249D012B40F3D08101355F
:1076D00001340123072D25942495C9F80060C9F8C9
:1076E000043000F3E18109F10809129A139BC9F8EB
:1076F000003001351444072D25942495C9F8042041
:1077000000F3DF8109F1080900230022DDE91001FF
:10771000F9F710FB0E9B002840F0CC80013B0135AF
:1077200001361C44072D24952594C9F80060C9F83A
:10773000043000F3AC8109F10809159AC9F8042056
:10774000013514441FAB072D25942495C9F800304A
:107750007FF7E2AC23AA0499069803F069FB00289E
:107760007FF42EAB259C0DF1C009D7E423AA049920
:10777000069803F05DFB00283FF41EADFFF720BB29
:1077800023AA0499069803F053FB00287FF418AB52
:10779000259C0DF1C009AEE423AA0499069803F0D4
:1077A00047FB00287FF40CAB259C0DF1C00955E484
:1077B00023AA0499069803F03BFB00287FF400AB52
:1077C000259C0DF1C00959E4BBF1000F8DF86F70D5
:1077D000C0F20A8322F08003039354EA05037FF486
:1077E00021ADBBF1000F3FF48DAE0027B3E61D9D28
:1077F000002D40F3A7820F9B0E9A9342A8BF134619
:10780000002B1D460DDD249BC9F8006001332C447C
:10781000072B2594C9F80450249300F37C8309F1C5
:1078200008090F9B002DA8BF5B1B002B1D4640F3D2
:10783000BE80B94A249B0B92102D40F36A822246E7
:107840001027DDF818B0049C05E009F10809103D87
:10785000102D40F35D8201331032072B25922493C3
:10786000C9F800A0C9F80470EFDD23AA21465846E4
:1078700003F0DEFA00287FF4A3AA259A249B0DF1D9
:10788000C009E4E723AA0499069803F0D1FA002876
:107890007FF496AA9DF86F70259C0DF1C009FFF743
:1078A000CDBB0A9A146813460433E5170A9322469F
:1078B0002B46F4E45E1E002E7FF73FAF964B0B93F2
:1078C000102E40F31081CDF824801027B046DDF84B
:1078D00018B0049E07E009F10809A8F11008B8F1F2
:1078E000100F40F3FD8001351034072D25942495A9
:1078F000C9F800A0C9F80470EDDD23AA3146584646
:1079000003F096FA00287FF45BAA259C249D0DF1D4
:10791000C009E2E7039911F0100220D00A988DF80F
:107920006F30BBF1000F046800F104074FF0000551
:1079300026DB0A4622F08002039254EA05020A97E7
:107940001F467FF403ABBDE401330B9A24932C4410
:10795000072B259489E824007FF7DEABFAE603992C
:1079600011F0400340F047820A998DF86F30BBF167
:10797000000F0C6801F104074FF0000580F2198137
:107980000A971F4654EA05037FF4E0AA40AE30345C
:1079900006F8414DFFF7F4BA23AA0499069803F0BC
:1079A00047FA00287FF40CAA259C0DF1C0090F9A14
:1079B0001D9B324417460E9A934247DB039AD20727
:1079C00044D40E990E44F51BCB1A9D42A8BF1D4608
:1079D000002D2E460DDD249AC9F8007001322C448A
:1079E000072A2594C9F80450249200F3238309F14F
:1079F0000809002EACBF9D1B1D46002D7FF78EABE6
:107A0000454A249B0B92102D9EDD1026069FDDF823
:107A100010B004E009F10809103D102D94DD013388
:107A20001034072B25942493C9F800A0C9F80460EA
:107A3000F0DD23AA5946384603F0FAF900287FF40E
:107A4000BFA9259C249B0DF1C009E5E7249A129853
:107A50001399C9F8001001320444072A2594C9F883
:107A60000400249200F3708209F10809A9E7039B3E
:107A7000DF073FF52CAE013501340123072D259496
:107A80002495C9F80060C9F804307FF754AE23AAE2
:107A90000499069803F0CCF900287FF491A9259C5D
:107AA000249D0DF1C00948E623AA0499069803F025
:107AB000BFF900287FF484A9259C249D0DF1C009FD
:107AC00013E623AA0499069803F0B2F900287FF47C
:107AD00077A9259C249D0DF1C00915E6002455E7E2
:107AE0004646DDF824800B9B01353444072D259450
:107AF000249589E848007FF71EAEC8E723AA0499B9
:107B0000069803F095F900287FF45AA9259C0DF1F9
:107B1000C009FFF7B7BA00BF48BA010864424FF086
:107B20002D0765EB4505BBF1000F8DF86F70FFF673
:107B30000DAA039B23F080030393FFF707BA039971
:107B400011F0400315D00A988DF86F20BBF1000F9B
:107B5000048800F104074FF0000518DB21F08003D2
:107B6000039354EA05030A973FF4E3AC1746FFF783
:107B70005EB90A998DF86F30BBF1000F0C6801F106
:107B800004074FF0000502DB039AFFF7B1B90A972B
:107B90000027FFF74CB90A9A039B13F0400F1346D6
:107BA00003F104030CBF146814880A930025FFF73F
:107BB0001BBB039ABEE6DDE9100102460B46F9F74E
:107BC000EBF8002840F0D8820D9BBBF1FF3F23F07B
:107BD000200700F04382472F00F04C81119B039A4D
:107BE000002B42F480720B92C0F24F829DED107B0D
:107BF0008DED187B002305930D9B662B00F03482DE
:107C0000462B00F00F81452F0CBF0BF101055D469F
:107C100021AA1EAB019200932A461DAB02219DEDC5
:107C2000180B069800F064FC0D9B672B064640F08D
:107C30006A82039BDA0740F19D82741900220023B7
:107C4000DDE91801F9F776F8002840F06281219B00
:107C50009C4206D930215A1C21921970219B9C42CA
:107C6000F9D89B1B472F0E9300F04C810D9B652B81
:107C700040F358820D9B662B1D9B0F9300F03582BD
:107C80000F9A0E998A42C0F20982039BDB0700F12A
:107C9000608222EAE273099267220D92059A002A15
:107CA00040F01E8105930B9B039393469DF86F70E4
:107CB000FFF770B927F0070797ED007B07F108037E
:107CC0008DED107B0A93FFF77ABB039BDE060BD486
:107CD000039B5D0608D50A9A136804320A92BDF820
:107CE0001C201A80FEF77DBF0A9A136804320A929C
:107CF000079A1A60FEF775BF0027BB458DF86F70B5
:107D0000FFF629AC039B23F080030393FFF7F6BB38
:107D1000144601330B9A24932C44072B259489E8AD
:107D200024003FF739AE09F1080940E623AA049977
:107D3000069803F07DF800287FF442A8259C0DF1F9
:107D4000C0092AE4249BB74AC9F800200133013452
:107D50000122072B25942493C9F804207DDC09F126
:107D600008092DB90E9B1BB9039BD9077FF5D6A92E
:107D7000249B1299139AC9F8002001330C44072B55
:107D80002594C9F80410249300F3CE8109F1080961
:107D90006D42002D40F39780A34A0B92102D40F3C3
:107DA000C78022461027DDF818B0049C05E009F1D1
:107DB0000809103D102D40F3BA8001331032072B13
:107DC00025922493C9F800A0C9F80470EFDD23AA16
:107DD0002146584603F02CF800287EF4F1AF259A8E
:107DE000249B0DF1C009E4E70A9FFFF7ADBB4FF0FC
:107DF000FF30FEF7EBBF0A988DF86F20BBF1000F44
:107E0000048800F104074FF00005C0F29F8121F0C3
:107E10008003039354EA05030A9717467FF496A854
:107E2000FFF750BA21AA1EAB019200935A461DAB30
:107E300003219DED180B069800F05AFB5D4606469F
:107E40000D9B462B06EB05047FF4F8AE3378302B00
:107E500000F0A1811D9D2C44F0E623AA0499069808
:107E600002F0E6FF00287EF4ABAF1D9D259C0DF1CE
:107E7000C00976E7BBF1000F08BF4FF0010BADE67C
:107E8000039B43F02003039308F1010898F80030A6
:107E9000FEF7DABE23AA0499069802F0C9FF00286B
:107EA0007EF48EAF259C0DF1C009FFF78EBB23AA8F
:107EB0000499069802F0BCFF00287EF481AF259C4F
:107EC000249B0DF1C0090E99C9F8006001330C44E0
:107ED000072B25942493C9F804107FF71DA939E4D2
:107EE0002D2705930B9B03938DF86F704FF0000BBC
:107EF000FFF751B83046F8F7A3F9A34603460990B7
:107F0000FFF7EBBA1D9BD81C2BDB9B4529DB0F939E
:107F1000B6E62346A5E623AA0499069802F088FF50
:107F200000287EF44DAF259C0DF1C00979E414467C
:107F300001330B9A24932C44072B259489E82400C1
:107F4000B5DC09F10809BEE723AA0499069802F0F6
:107F50006FFF00287EF434AF1D9B259C0DF1C009F6
:107F60002FE50D9A023A0D92013B002B9DF834202B
:107F70001D93B8BF5B428DF87C20B4BF2D222B220D
:107F8000092B8DF87D2040F3ED800DF18B00044628
:107F9000264A82FB0321DA17C2EBA10202EB82011F
:107FA000A3EB410303F13001092A134604F8011D34
:107FB000EEDC21463033DAB201F8012D884240F27E
:107FC00035810DF17E01234601E013F8012B01F804
:107FD000012B9842F9D1431C1B1B0DF17E02134467
:107FE0001FAA9B1A0E9A1593012A1344099340F372
:107FF000E880099B129A1344002209930F9223EA06
:10800000E3734BE6062D2B4628BF0623099323EA8C
:10801000E373B3460A970F9637460593044EFEF76F
:10802000B9BF00BF44BA010848BA0108676666666E
:108030003CBA010823AA0499069802F0F9FE002828
:108040007EF4BEAE1D9B0E9A259CD31A0DF1C0097D
:10805000CFE42D278DF86F70FFF7D8B94FF0060BDE
:10806000BCE50393FFF7DEB821AA1EAB0192009393
:108070005A461DAB03219DED180B069800F038FA07
:108080005D46064600EB0B04E0E6DDE9101202F166
:10809000004319932D2318910593ADE5129A0E9B79
:1080A00013440F9A0993002A40F38380672223EA3E
:1080B000E3730D92F2E5039BDB075F4605D540AE07
:1080C000302306F8413DFEF75BBFCDF824B030AE5B
:1080D000FEF759BF25EAE5730A970593099583468C
:1080E0000F909DF86F70FEF755BF002B40F3818015
:1080F000BBF1000F46D1039AD10743D41A46099227
:1081000023EAE373CAE50D9B472B7FF496AD039BEF
:10811000DC073FF595AE219B472FA3EB06030E939B
:108120003FF4F0AE1D9B1FE723AA0499069802F0C6
:108130007FFE00287EF444AE1D9D259C249B0DF1FE
:10814000C00925E6A0460025FEF780BD0A97174620
:1081500018E4129A0F9B1344672209930D9223EAA5
:10816000E3739BE5303330228DF87F308DF87E202D
:1081700020AB35E7219B74E53C4E3D4B9DF86F707D
:10818000FFF746B90F9B129A9D1805EB0B03099355
:1081900023EAE37382E500220023DDE91801F8F702
:1081A000C9FD00287FF456AEC5F101051D952C448C
:1081B00044E50F9B099AC3F101031A44134609923F
:1081C00074E7039B13F001037FF413AF0F93099B34
:1081D00023EAE37362E50A9898F8013005680430F1
:1081E000002D0A90A046BEF62FAD4FF0FF35FEF7EA
:1081F0002BBDBBF1000F02D1039BDA0707D5129B01
:108200005D1C05EB0B03099323EAE37346E50123A9
:10821000099343E58DF86F10FFF733B88DF86F10B1
:10822000FFF76EB88DF86F10FEF748BE0DF17E03B4
:10823000D6E68DF86F10FEF7E0BD8DF86F10FFF7F2
:10824000AEB88DF86F10FFF763B98DF86F10FFF7B8
:1082500089B88DF86F10FFF7FFB88DF86F10FEF733
:10826000B5BF8DF86F10FEF752BE00BF10BA0108FF
:108270000CBA0108F0B50C46ADF26C4D8989666EFA
:10828000E589199621F00201666AADF80E500025C5
:10829000E769ADF80C10099606951AAE4FF48065A3
:1082A0006946009604960295059507970646FEF7DF
:1082B00057FC051E07DB3046694601F0D7F8002859
:1082C00018BF4FF0FF35BDF80C305B0603D5A3890E
:1082D00043F04003A38128460DF26C4DF0BD00BF72
:1082E00038B5304B1B6805460C4613B19A6B002A13
:1082F00038D0B4F90C2093B218070CD52069A8B176
:1083000013F001021ED0636900225B42A361A260E8
:10831000F0B1002038BDD9063CD5580726D42069D5
:1083200042F00803A3819BB20028E9D103F4207234
:10833000B2F5007FE4D02846214601F069FCA3890C
:108340002069DDE7990758BF6269A2600028E0D183
:10835000B4F90C301A06DDD543F04003A3814FF089
:10836000FF3038BD184601F015F9C2E7216B51B155
:1083700004F14003994204D0284601F077F9B4F99A
:108380000C200023236300232069636022F0240271
:108390002060C5E742F0400209232B604FF0FF3018
:1083A000A28138BD28060020024B13B1024800F01C
:1083B00005B8704700000000A99500080023014699
:1083C0001A46184602F094BD02690B69934200F305
:1083D0008D802DE9F04F03F1FF3801F1140700F112
:1083E000140B57F828205BF828304FEA880483B034
:1083F0000132B3FBF2F90BEB0403009407EB040A20
:108400000193B9F1000F39D00025BC46DE462B465A
:108410005CF8046BDEF80020B4B209FB0455360C9E
:108420002C0C09FB0644ADB25B1BA6B213FA82F317
:10843000C6EB124606EB23469BB243EA0643E245EF
:108440004EF8043B4FEA14454FEA2643E0D2009B26
:108450005BF8033093B9019C231F9B450CD254F861
:10846000043C4BB9A4F1080302E01A68043B1AB9B2
:108470009B4508F1FF38F8D3C0F81080044602F09D
:108480003BF900282EDB09F101095D46002357F86E
:10849000041B28688AB29A1A090C12FA80F2C1EBFE
:1084A000104303EB224391B241EA0341BA4545F838
:1084B000041B4FEA2343EAD25BF828200BEB880326
:1084C00082B91A1F93450BD253F8042C42B9083BCA
:1084D00002E01A68043B1AB99B4508F1FF38F8D34B
:1084E000C4F81080484603B0BDE8F08F0020704704
:1084F0002DE9F04F57EC106B9BB0046C249D00915C
:1085000081460592039310EE10AABB4654B1426C0B
:10851000626001239340A360214601F00BFF00231A
:10852000C9F84030BBF1000F5C4634DB00232B6000
:10853000A14B1A462340934216D0002200235046F6
:108540005946F8F7F7FB56465F46804648B3039A0C
:1085500001231360259B002B00F0BE809748186014
:1085600001381BB0BDE8F08F039A42F20F7313601D
:10857000BAF1000F00F09A809148259B002BF0D0B3
:10858000C378002B00F0AA8000F10803259A13603D
:108590001BB0BDE8F08F01232BF000442B60A346F5
:1085A000C6E718AA19A947EC106B484602F050F923
:1085B000250D0A9040F08380189D199E2E4406F2E6
:1085C0003243202B40F38882C3F1400306F212406D
:1085D0009C402AFA00F02043F8F7CEF80123741EDD
:1085E000A1F1F8710F930022764BF7F787FF6CA388
:1085F000D3E90023F8F736F96BA3D3E90023F7F7A3
:108600007FFF064620460F46F8F7C6F868A3D3E971
:108610000023F8F727F902460B4630463946F7F7AC
:108620006FFF06460F46F8F7CDFB002204900023AB
:1086300030463946F8F788FB002840F02882049E2F
:10864000162E00F22182604B03EBC603D3E9000132
:1086500052465B46F8F796FB002800F04282731EF4
:10866000049300230D932D1BB5F1010800F12A821C
:1086700000230793049B002BC0F21B8298440C93A9
:1086800000230693009B092B2AD8052B40F3448630
:10869000043B00930026009B023B032B00F2238641
:1086A000DFE813F02B03240236035004444B474AFF
:1086B000C4F31300002814BF184610465DE7CBF33F
:1086C000130343F07F51A5F2FF345046CDF83C80B0
:1086D00041F44011189D86E73D4842E7C31C55E729
:1086E0000021C9F8441048460C46009101F0FCFDF9
:1086F0004FF0FF3308930E9301230990C9F840000F
:1087000005940B93199B002BC0F2D080049A0E2A7B
:1087100000F3CC802C4B03EBC20393ED007B059B55
:10872000002B8DED007BC0F2FE8256465F46DDE9F0
:1087300000AB304652465B463946F8F7BDF9F8F7CC
:1087400041FB0446F8F728F852465B46F8F78AF8EA
:108750000B46024639463046F7F7D0FE099D04F134
:1087600030032B70089B012B06460F4605F10105CF
:1087700061D00022174BF8F775F800220023064657
:108780000F46F8F7D7FA00287DD1CDF81490DDF820
:1087900020A0DDF824B0DDE9008928E0AFF30080F7
:1087A00061436F63A787D23FB3C8608B288AC63FF7
:1087B000FB799F501344D33F0000F07F45BA010876
:1087C00064BA01080000F83F80BA010858BA0108ED
:1087D00044BA010800002440F8F744F800220023BE
:1087E00006460F46F8F7A6FA002840F0AE83424648
:1087F0004B4630463946F8F75FF9F8F7E3FA044696
:10880000F7F7CAFF42464B46F8F72CF802460B46EC
:1088100030463946F7F772FE04F1300E05F801EBE9
:10882000CBEB050ED64506460F464FF00002AE4B89
:10883000D2D1DDF8149032463B4630463946F7F740
:108840005FFE06460F4602460B46DDE90001F8F7DB
:108850007BFA40B932463B46DDE90001F8F76AFA97
:1088600088B1E3070FD515F8014C099A6B1E04E097
:108870009A4200F0FC8313F8014D392C03F10105F5
:10888000F6D001341C700A99484601F053FD0022CD
:10889000049B2A70039A01331360259B002B00F080
:1088A0009B8309981D601BB0BDE8F08F0B9A002ACE
:1088B00000F00E81009A012A40F35782089B069A25
:1088C0005F1EBA42C0F28B83D71B089B002BC0F2FD
:1088D0008084079D089B079A01211A444846079205
:1088E000984401F0BFFD064665B1B8F1000F09DDFF
:1088F0004545079A2B46A8BF4346D21A0792ED1A60
:10890000C3EB0808069B002B40F3F5820B9A002A64
:1089100000F00282002F00F0FF8131463A464846BF
:1089200001F042FE0A9A01460646484601F0A4FDBF
:108930000A990446484601F0FDFC069BDB1B0693A2
:1089400040F0E9810121484601F08CFD0C9B069026
:10895000002B00F0158201461A46484601F024FE1D
:10896000009B0690012B40F3F3820027069A1369BF
:1089700002EB8303186901F027FDC0F12000404499
:1089800010F01F0000F0FA81C0F12003042B40F327
:10899000BD84C0F11C00079B034407930544804439
:1089A000079B002B05DD21461A46484601F04CFE88
:1089B0000446B8F1000F05DD42460699484601F02D
:1089C00043FE06900D9B002B40F07A82089B002B03
:1089D00040F393820B9B002B40F0F481DDF824B030
:1089E000089FDDF818805D4602E001F0ADFC04460A
:1089F00041462046FFF7E8FC00F1300A05F801ABDC
:108A0000CBEB0503BB424FF00A024FF000032146B7
:108A10004846EADB099B089A012AACBF9B18013340
:108A20001D464FF0000B21460122484601F00CFE86
:108A300006990A9001F060FE002840F3058315F8BE
:108A4000012C09996B1E04E08B4200F0748213F82C
:108A5000012D392A03F10105F6D001321A70069969
:108A6000484601F067FC002E3FF40DAFBBF1000F4C
:108A700005D0B34503D05946484601F05BFC31466A
:108A8000484601F057FCFEE601230D93EBE5DDF8C7
:108A900010804046F7F780FE02460B4630463946C6
:108AA000F8F748F900287FF4CAAD08F1FF330493C2
:108AB000C5E5079A049BD21A5B42069300230792EE
:108AC0000C93DFE5C8F1000307934FF00008D1E5F0
:108AD000069F079D0B9E07E7C3F120040AFA04F0E6
:108AE0007AE50D90BFE500BF0000244000230B9302
:108AF000049B059A13440E930133002B089340F313
:108B00007D82089C25460021172DC9F844100BD9F9
:108B1000012204235B0003F11400A842114602F174
:108B20000102F7D9C9F84410484601F0DDFB0E2CCC
:108B30000990C9F840003FF6E5AD002E3FF4E2ADE4
:108B400004990029CDE910AB40F39A82904B01F0D3
:108B50000F020E1103EBC203F006D3E9004540F10A
:108B600046828C4B50465946D3E90823F7F7A4FFB9
:108B7000CDE9120106F00F064FF0030A86B1854FCA
:108B8000F10709D520462946D7E90023F7F76AFE01
:108B90000AF1010A04460D46761007F10807EFD1E5
:108BA00022462B46DDE91201F7F786FF06460F46FF
:108BB0000D9B43B10022784B30463946F8F7C4F894
:108BC000002840F01A835046F7F7E6FD32463B4650
:108BD000F7F748FE714B0022F7F792FC089B04461A
:108BE000A1F15075002B00F0DB81049B1693089BCC
:108BF00012930B9B002B00F09482129A644B6849ED
:108C000003EBC20353E902230020F7F755FF224686
:108C10002B46F7F773FC82468B4630463946F8F709
:108C2000D1F80446F7F7B8FD02460B463046394600
:108C3000F7F764FC3034099DE4B206460F462C7009
:108C400002460B46504659460135F8F79BF8002876
:108C500050D132463B4600204F49F7F74FFC0246C1
:108C60000B4650465946F8F78DF8002840F0088327
:108C7000129A012A40F3F781129B099ACDF8488095
:108C8000134498460DE000204349F7F737FC52465D
:108C90005B46F8F759F8002840F0F282454500F0AD
:108CA000E0815046594600223E4BF7F7DBFD00229B
:108CB0003C4B82468B4630463946F7F7D3FD0F468C
:108CC0000646F8F77FF80446F7F766FD02460B46BE
:108CD00030463946F7F712FC3034E4B252465B4670
:108CE00005F8014B06460F46F8F72EF832463B468C
:108CF0000028C8D0169B0493C5E500230B93059B61
:108D0000002B40F380811D461C460E930893FAE623
:108D100001230B93F3E70A94069A0A99484601F057
:108D200043FC04460EE6089B002B3FF7FEAC40F0E8
:108D30004F8100221C4BDDE90001F7F793FD5B46F4
:108D40005246F8F715F8089B06931E46002800F0D7
:108D5000EA80059B099DDB4304930699484601F090
:108D6000E9FA002E3FF48FAD89E60F9A002A00F051
:108D7000388203F23343069F079DACE51C200AE6C8
:108D8000009B012B40F380820C9F0120F7E500BF80
:108D900080BA010848BB01080000F03F00001C40F9
:108DA0000000E03F00002440000014403146002352
:108DB0000A22484601F0C8FA0E9B002B064640F3F3
:108DC0008D820893002D05DD31462A46484601F084
:108DD0003BFC0646002F40F07C81B046089B099A78
:108DE000013BD31808930AF001030A931746DDF8F4
:108DF00018B020465946FFF7E7FA314605462046A7
:108E000001F07AFC424659468246484601F096FCFB
:108E1000C268834605F13003002A49D10146204645
:108E2000079301F069FC59460590484601F082FA23
:108E3000059A079B2AB9009919B90A99002900F0E7
:108E40003582BAF1000FC0F2E38005D1009919B95B
:108E50000A99002900F0DC80002A00F34E81089A6C
:108E60003B7007F1010A9742554600F052812146B6
:108E700000230A22484601F067FA46450446314677
:108E80004FF000034FF00A0248460BD001F05CFAA5
:108E90004146064600230A22484601F055FA574645
:108EA0008046A4E701F050FA5746064680469EE702
:108EB00001464846059301F03DFA0122059BC0E7B3
:108EC0000699204601F018FC0028BFF67FAD214628
:108ED000049C0023013C0A224846049401F034FA21
:108EE0000B9B0446002B7FF461AF0E9B002B40F3DD
:108EF000ED81089372E50A9C24E5009B022B7FF725
:108F000069AD089B002B40F09D81069905224846DB
:108F100001F01AFA01460690204601F0EDFB002808
:108F20000A947FF716AF049A09993123013204920B
:108F30000B704D1C11E7049A01320492099A3123F7
:108F400013708CE501230B93D2E5DDF814909AE4BD
:108F5000BAF1000F7FF409ADCBF31303002B40F0FF
:108F60003E812BF000473F0D3F052FB1079B01339A
:108F7000079308F1010801270C9B0120002B3FF407
:108F8000FEACF3E45046F7F707FC32463B46F7F7F2
:108F900069FC0022BF4BF7F7B3FA0446A1F1507504
:108FA000304639460022BC4BF7F7A8FA22462B463A
:108FB00006460F46F7F7E6FE002840F0AE80224650
:108FC00005F1004330463946F7F7BEFE00284AD087
:108FD000002306931E46BCE60998FFF7C2BA069B1B
:108FE0000C9A0697FB1A1A440C9200276DE49DED2B
:108FF000107B4FF0020A8DED127BBFE51C4600216D
:10900000C9F8441090E501240E9408940594F6E7FD
:10901000002A9A4611DD21460122484601F014FB40
:109020000699044601F068FB002840F34881BAF134
:10903000390F00F0098105F1310AB34687F800A025
:109040007D1C46460A940AE504D11AF0010F01D0AE
:10905000F5E4154615F8013C302B05F1FF32F8D048
:10906000FDE4DDF84880DDE910ABFFF74BBB099963
:1090700030220A70049A15F8014C0132049200E47F
:10908000049B5C42002C00F0B380844B04F00F0280
:1090900003EBC203D3E90023DDE91001F7F7E2FB9C
:1090A000241106460F4600F016817D4D4FF0020A4E
:1090B000E20709D530463946D5E90023F7F7D2FB58
:1090C0000AF1010A06460F46641005F10805EFD1C2
:1090D0006EE57168484601F007F933699A1C054648
:1090E000920006F10C010C30F7F76AF929460122CB
:1090F000484601F0A9FA804670E6392B00F0A480BA
:1091000003F1010AB34687F800A07D1C46460A9485
:10911000A5E4B3469A46464685E4002306931E46D8
:1091200001E7129B5D495A1E01EBC2012B461792C3
:10913000D1E900012246F7F795FBCDE91401394644
:109140003046F7F73FFE0446F7F726FB0B4602468C
:1091500039463046F7F7D2F9129B0F460999303459
:10916000012B06460C7001F1010520D0129B099AD3
:1091700013449A46AB4600224A4B30463946F7F72D
:1091800071FB0F460646F7F71DFE0446F7F704FB92
:10919000303402460B4630463946F7F7AFF90BF844
:1091A000014BDA4506460F46E5D1179B1D440022C8
:1091B0003D4BDDE91401F7F7A3F932463B46F7F7DB
:1091C000C3FD002848D0169B049315F8014CFFF707
:1091D0004CBB079B089A9D1A0023FFF77CBB002716
:1091E000CAE6189B069F079DC3F13603FFF773BBC2
:1091F000DDE910674FF0020ADAE4089B002B3FF428
:10920000C1AE0E9B002B7FF72EAF0022254B3046C0
:109210003946F7F727FB06460F460AF10100F7F734
:10922000BBFA32463B46F7F71DFB0022194BF7F716
:1092300067F9049A0E9B1293013A0446A1F1507506
:109240001692D6E40A9484E53922B3460A94464637
:109250003A707D1CFFF7F5BBDDE9142300201249AD
:10926000F7F74CF932463B46F7F78CFD08B9FAE6BA
:10927000154615F8013C302B05F1FF32F8D039E5E1
:10928000169B0493FFF7F1BABAF1000F7FF47CAD9F
:1092900062E600BF00001C400000144080BA0108D4
:1092A00048BB0108000024400000E03F392BD346B2
:1092B0009A46C9D0BBF1000F3FF7BDAEBDE67FF4C3
:1092C000BCAE1AF0010F3FF4B8AEB0E6009B022B23
:1092D00025DC0E9B0DE64FF0020A69E4009B022B91
:1092E0001DDC0E9B6DE50024C9F84440214648462C
:1092F00000F0FAFF4FF0FF3308930E93012309901B
:109300000594C9F840000B93FFF7FCB93FF448AB54
:10931000C0F13C00FFF73FBB0126FFF7BCB90E9B35
:109320000893EEE5B1F90C309AB22DE9F0410D4603
:10933000110780463CD46A6843F40063002AAB817D
:1093400073DDAC6A002C4BD09BB203F48052002139
:1093500092B2D8F80060C8F80010002A69D02A6DCF
:109360005F0705D569682B6B521A0BB1EB6BD21AEC
:109370000023E9694046A047441C3CD0B5F90C30B5
:109380002A692A6023F400630022AB81DB046A604F
:1093900049D4296BC8F8006011B305F14003994224
:1093A00002D0404600F062F900202863BDE8F08159
:1093B0002E69AEB12C682E6090070CBF6B6900233C
:1093C000A41BAB600AE0234632466F6AE969404657
:1093D000B8470028A4EB0004064404DD002CF2DCAE
:1093E0000020BDE8F081AB8943F04003AB814FF032
:1093F000FF30BDE8F081D8F800201D2AF3D81A4BC1
:10940000D34003F0010383F00104002BEBD0B5F946
:109410000C302969296023F40063D9046C60AB81A6
:10942000B7D5002AB5D12865B3E7EA6B002A88DCF6
:10943000D6E70123E9694046A047431C024602D013
:10944000AB89AC6A8CE7D8F80030002BF8D01D2B24
:1094500001D0162B02D1C8F80060C1E7AB8943F0F8
:109460004003AB81BDE8F0810100402010B5044607
:1094700082B008B1836B53B1B1F90C0008B902B0E6
:1094800010BD204602B0BDE81040FFF74BBF019170
:1094900000F080F80199EFE7014900F051BB00BFEF
:1094A000F5AF00082DE9F04F354B4568C363002444
:1094B000074600F53B7204230321C0F8E412C0F80C
:1094C000E822C0F8E04283B02C606C60AC606C664F
:1094D000EC812C616C61AC61AB81214605F15C00D3
:1094E0000822FDF787F8BE68DFF898B0DFF898A08B
:1094F000DFF89890DFF89880C5F820B001230922A2
:10950000C5F824A0C5F82890C5F82C80ED61214647
:10951000F381B28106F15C0034607460B4607466FB
:1095200034617461B46108220193FDF763F8FD684A
:10953000F66112200222C6F820B0C6F824A0C6F8B0
:109540002890C6F82C802146A881EA812C606C60A6
:10955000AC606C662C616C61AC6105F15C0008224A
:10956000FDF748F8019BED61C5F820B0C5F824A0CF
:10957000C5F82890C5F82C80BB6303B0BDE8F08F18
:109580009994000831AD000855AD000891AD000870
:10959000B1AD0008836B03B17047FFF783BF00BF15
:1095A000704700BF704700BF38B5074D074C2C1BF4
:1095B000A41005D0013C55F8043D9847002CF9D182
:1095C000BDE8384001F0F6BD84BB010880BB01084E
:1095D000F8B5234F0C46064600F082FEBB685D6876
:1095E00025F00305291B01F6EF7121F47F6121F0BD
:1095F0000F01A1F58054B4F5805F07DB00213046F0
:10960000F8F74EF8BB682B44984204D0304600F07F
:1096100069FE0020F8BD61423046F8F741F801309C
:109620000DD0104BBA6819682D1B45F00105304666
:10963000091B5560196000F055FE0120F8BD00219E
:109640003046F8F72DF8BA68831A0F2BDEDD064C8A
:109650000449246843F00103001B53600860D5E708
:1096600088060020E80E0020940A0020002945D03A
:109670002DE9F0410D46804600F032FE55F8047C9D
:109680006A4927F00103A5F10804E2188E685068C2
:10969000B24220F0030062D0FE0750600BD455F8B0
:1096A000087CE41B01F1080EA56875453B446FD0AA
:1096B000E768EF60BD6015186D68ED0742D543F0AF
:1096C00001026260E350B3F5007F18D2DB085A1C38
:1096D0004D6851F83270A76001209B1000FA03F327
:1096E00001EBC2001D430838E0604D6041F8324094
:1096F000FC604046BDE8F04100F0F4BD70475A0AF6
:10970000042A53D89A0902F139077F0002F138057B
:1097100001EB870051F827204449083890424DD08A
:10972000516821F003018B4202D292689042F7D136
:10973000D068E060A2608460D4604046BDE8F0413B
:1097400000F0D0BD95683A4FBD4203443FD0D06889
:10975000E86043F0010285606260E350B3E7FF0711
:10976000034407D455F8082CA41A1344A068E268EF
:10977000C26090602F4A126843F00100934260601B
:109780008C60B6D32C4B40461968FFF721FFB0E739
:1097900011184968C90744D49168D268CA60034463
:1097A00043F0010091606060E350A2E7142A17D8EB
:1097B00002F15C077F0002F15B05A9E7AA104B6884
:1097C000012505FA02F213434B600246B1E743F06C
:1097D00001024C610C61E560A5606260E35088E7BE
:1097E000542A06D81A0B02F16F077F0002F16E05AA
:1097F0008EE7B2F5AA7F06D8DA0B02F178077F0070
:1098000002F1770584E740F25450824206D89A0C60
:1098100002F17D077F0002F17C0579E7FE277E25B6
:1098200076E743F001026260E35062E788060020B9
:1098300090060020900A0020E40E00209368002B80
:1098400076D02DE9F04F8B8985B00C461907019031
:10985000164629D522693AB303F002081FFA88F0A8
:10986000356800282FD04FF00009B44FC846B246E3
:10987000B84543464A4628BF3B460198B8F1000F19
:1098800050D0E169666AB047002871DDDAF8083027
:109890001B1A8144C0EB0808CAF80830002BE7D136
:1098A000002005B0BDE8F08F21460198FEF718FDB5
:1098B000002840F03A81A389356803F002081FFAB6
:1098C00088F00028CFD113F001095BD14F460296F2
:1098D0001FB39A05D4F808802CD54745C246C0F07E
:1098E000A48013F4906F40F0B1802068524649463E
:1098F00000F092FCA0682368C8EB00005344A0600D
:1099000023603846029A93681B1A81443F1A936079
:10991000002BC5D0A389002FDBD1D5F800906F684C
:109920000835D5E7D5F80090D5F8048008359FE7CD
:109930000020704720682369984203D861698F42EC
:1099400080F0B780B84528BFB8464246494600F087
:1099500063FCA3682268C8EB03034244A36022604F
:10996000002B49D121460198FFF780FD002843D004
:10997000B4F90C3043F040034FF0FF30A38105B041
:10998000BDE8F08F8046029082468146B9F1000F13
:109990002AD0029B002B4CD0206823696269C845FD
:1099A000C34628BFCB4698425F4604D9A3681344F8
:1099B0009B4500F39080934520DB1346676AE1697D
:1099C00001985246B847071ED2DDB8EB070823D0EE
:1099D000B368DB1BBA44C7EB0909B360002B3FF443
:1099E0005FAFB9F1000FD4D10023D5F800A0D5F8AE
:1099F000049002930835C9E7404683E75A4651462A
:109A000000F00AFCA2682368CBEB02025B44B8EBCF
:109A10000708A2602360DBD121460198FFF726FDED
:109A20000028A5D1CDF80880D2E72068B846BA460C
:109A30005CE74A460A215046F6F772FC00286FD0D0
:109A400001300123CAEB00080293A5E76269206890
:109A5000216902EB4208C1EB000A08EBD8780AF151
:109A600001004FEA680838444045424684BF8046BA
:109A700042465B0542D51146019800F015F9834630
:109A8000002855D052462169F6F79AFCA38923F4A1
:109A9000906343F08003A381CAEB08030BEB0A0039
:109AA000C4F81480C4F810B02060A360B846BA4669
:109AB0001CE76FF00043BB4228BF3B464A4693FB7E
:109AC000F1F30198666A01FB03F3E169B0470028EE
:109AD0003FF718AF4CE71A465146039300F09CFB42
:109AE0002268039B01981A4422602146FFF7BEFCBE
:109AF000039B00287FF43CAF1F4666E7019800F007
:109B000027FF83460028C7D1019D21692846FFF71A
:109B1000ADFDB4F90C300C2223F080032A6029E754
:109B2000012309F10108029336E74FF0FF30B8E650
:109B3000019A0C231360B4F90C301BE700FCFF7F83
:109B40002DE9F84310F538771FD0884606464FF0C8
:109B500000097D68BC68013D11D4A389012B05F182
:109B6000FF3508D9B4F90E3001332146304602D012
:109B7000C04749EA00096B1C04F16804EDD13F6855
:109B8000002FE6D14846BDE8F883B9464846BDE80F
:109B9000F88300BF0048704764060020014B186836
:109BA000704700BF84060020004870472C06002044
:109BB00070B50D46B1F90E10002990B014461E463E
:109BC00014DB01AAF7F789FD00280FDB029A02F4E3
:109BD0007042A2F50052B2FA82F252094FF4806349
:109BE0004FF400603260236010B070BDA88900F0AF
:109BF000800082B2002030601AB14023236010B090
:109C000070BD4FF480631046236010B070BD00BF7C
:109C10008A8992070B4606D501F1430201211A6099
:109C20001A6159617047F0B583B001AB6A460C46C2
:109C30000546FFF7BDFF00990646284600F034F8B8
:109C4000B4F90C30D0B1019A124F0099EF6343F090
:109C50008003A3812060206161611AB93343A3812D
:109C600003B0F0BD2846B4F90E10F7F73BFDB4F988
:109C70000C300028F2D043F00103EFE79A05EFD44F
:109C800004F1430243F002030121A3812260226117
:109C90006161E5E799940008024B0146186800F0FD
:109CA00003B800BF280600202DE9F04F01F10B0595
:109CB000162D83B0064640F29F8035F0070500F16F
:109CC000BF80A94200F2BC8000F00AFBB5F5FC7F22
:109CD000C0F09C826B0A00F0BA80042B00F28381F2
:109CE000A80900F1390E4FEA4E033830C44F07EB94
:109CF0008303A3F108015C68A14207D1ACE0002A0C
:109D000080F2AC80E468A14200F0A680636823F092
:109D100003035A1B0F2AF2DDB9493C6901F1080E11
:109D2000744500F0B381636823F003035A1B0F2AC4
:109D300000F39981002AC1F814E0C1F810E080F224
:109D40009E80B3F5007F80F06781DB0803F1010C92
:109D500001229B1002FA03F34A6851F83C80C4F8D0
:109D6000088001EBCC091A43A9F10803E3604A60BB
:109D700041F83C40C8F80C40831001249C409442B8
:109D800000F28A80144206D120F0030064001442DD
:109D900000F10400FAD007EBC009CC468046DCF89D
:109DA0000C108C4507D173E1002A80F28181C968CB
:109DB0008C4500F06D814B6823F003035A1B0F2A7A
:109DC000F2DD0C46D1F80CC054F8088F4B1945F061
:109DD00001054D6042F00101C8F80CC03046CCF8D6
:109DE00008807B613B61C3F80CE0C3F808E0596070
:109DF0009A5000F077FA1FE0102921D800F070FA8D
:109E00001025062302207E4F07EB8303A3F10802EF
:109E10005C68944200F045816368E168A56823F0BE
:109E20000303234430465A68E96042F001028D6022
:109E30005A6000F057FA0834204603B0BDE8F08FAE
:109E400000240C232046336003B0BDE8F08F80234C
:109E50004FF0400E3F2049E770465DE72344E1683C
:109E60005A68A56842F00102E96030468D605A6088
:109E700000F038FA0834204603B0BDE8F08F2344E0
:109E800030465A6842F001025A6000F02BFA08345A
:109E9000204603B0BDE8F08FBC68636823F0030878
:109EA000A84504D3C5EB08030F2B00F38C80554B5A
:109EB000DFF860911A68D9F8003001332A4404EBC6
:109EC000080A00F0608102F580520F3222F47F62AE
:109ED00022F00F02114630460192F7F7E1FBB0F194
:109EE000FF3F8346019A00F05881824500F2FC80D2
:109EF000454B1968DA451144196000F05381D9F8CF
:109F00000000DFF810E101301BBFCAEB0B0A51441F
:109F1000CEF800B019601BF0070100F01781C1F105
:109F20000800C1F58051834408315A44C2F30B0242
:109F3000C2EB0109494630460193F7F7B1FB431CD8
:109F4000019B00F03F81CBEB00024A4442F001024A
:109F50001968C7F808B04944BC42CBF8042019601E
:109F6000DFF8A49016D0B8F10F0F40F2FD806268C0
:109F7000A8F10C0323F00703E01802F001024FF0F0
:109F8000050E1A430F2B6260C0F804E0C0F808E029
:109F900000F21C811D4BBC681A68914288BF196091
:109FA0001B4B1A689142626888BF196022F0030255
:109FB0009542A2EB050301D80F2B04DC304600F0DC
:109FC00091F9002438E7621943F0010345F00105D7
:109FD00065603046BA60536000F084F9083420466A
:109FE00003B0BDE8F08F142B71D9542B00F2A4807C
:109FF000280B00F16F0E4FEA4E036E3076E600BF7D
:10A0000088060020E40E0020E80E0020E00E00206C
:10A01000DC0E0020940A00205A0A042A5ED9142A71
:10A0200000F2B38002F15C0149005B3207EB810C66
:10A0300057F82110DFF8DC81ACF1080C8C4500F0FA
:10A0400088804A6822F00302934202D289688C45D4
:10A05000F7D1D1F80CC07A68C4F80CC0A160CCF874
:10A060000840CC6088E6631942F0010745F001051D
:10A07000656030464B610B61C3F80CE0C3F808E043
:10A080005F609A50083400F02DF9D5E64A6873E60F
:10A0900008F1010818F0030F0CF1080C7FF47FAEF3
:10A0A00030E0DC68A34208BF02303FF435AEB3E6CF
:10A0B0000B440C465A68C96854F8085F42F0010224
:10A0C0005A603046E9608D6000F00CF9B4E603F1A7
:10A0D0005C0E03F15B004FEA4E0307E69A0902F1BA
:10A0E000390149003832A1E7BC424A4B3FF400AF86
:10A0F0009C68626822F003025AE759F808399945CA
:10A1000040F0828010F0030F00F1FF30F5D17B6842
:10A1100023EA04037B6064009C423FF6BDAE002C42
:10A120003FF4BAAE1C4240467FF435AE64001C4298
:10A1300000F10400FAD02EE6B3F5AA7F18D8E80B98
:10A1400000F1780E4FEA4E037730CFE54FF480519F
:10A15000EBE60121D8F80430921001FA02F21A431A
:10A16000C8F80420614677E70123CBF8043025E7DF
:10A1700040F25452934220D8A80C00F17D0E4FEAD1
:10A180004E037C30B2E51032A4E6542A26D81A0BCE
:10A1900002F16F0149006E3248E7BC68626822F044
:10A1A000030205E7CAF30B0000287FF4A8AE42447F
:10A1B000BB6842F001025A60ECE6FE234FF07F0ECE
:10A1C0007E2093E501224FF00009C1E604F1080169
:10A1D0003046FFF74BFAD9F80010DBE6B2F5AA7F5C
:10A1E00005D8DA0B02F17801490077321EE740F218
:10A1F00054518A4205D89A0C02F17D0149007C3203
:10A2000014E7FE217E2211E77B6884E7E808431CFF
:10A210005B00F8E5880600208842F0B50DD98B1860
:10A2200098420AD28118002A51D09A1A13F8014D87
:10A2300001F8014D9342F9D1F0BD0F2A48D941EA06
:10A2400000039B0746D100F1100401F110031546ED
:10A2500053F8106C44F8106C53F80C6C44F80C6C08
:10A2600053F8086C44F8086C103D53F8046C44F83B
:10A27000046C0F2D03F1100304F11004E8D8A2F1CF
:10A28000100323F00F0302F00F0E1033BEF1030F83
:10A290001944034421D91E1F0D467446043C55F849
:10A2A000047B46F8047F032CF8D8AEF1040424F0B4
:10A2B000030404342344214402F0030262B1013B4D
:10A2C0000A4411F8014B03F8014F8A42F9D1F0BD5D
:10A2D0000346F3E70346F2E7F0BD7246EEE700BF40
:10A2E000704700BF704700BFC36C70B505460C4691
:10A2F0004BB153F8240080B1026843F824200023B6
:10A300000361C36070BD2122042100F043FEE864B4
:10A3100003460028EDD1002070BD012101FA04F6AA
:10A32000721D2846920000F035FE0028F3D04460EC
:10A330008660E4E731B1C36C4A6853F822000860D4
:10A3400043F82210704700BFF0B50C6983B00D468A
:10A35000064601F1140E0027DEF8000081B202FB70
:10A3600001310B0C000C02FB003389B2013701EB09
:10A370000341BC424EF8041B4FEA1343ECDC3BB1F3
:10A38000AA68944207DA05EB8402013453612C6118
:10A39000284603B0F0BD6968019301313046FFF7EC
:10A3A000A3FF2A69023205F10C01074692000C3026
:10A3B000F6F706F8F26C6968019B52F821002860F4
:10A3C00042F821503D46DEE7030C1B04B3B90004FC
:10A3D000102310F07F4F04BF0002083310F0704FBD
:10A3E00004BF0001043310F0404F04BF800002336B
:10A3F000002807DB420003D4202070470023E8E751
:10A40000581C704718467047036813F0070207D0BE
:10A41000D90720D49A0720D49B08036002207047F4
:10A4200099B209B91B0C102213F0FF0F04BF1B0ACD
:10A430000832190704BF1B090432990704BF9B089F
:10A440000232D90704D45B0801D1202070470132C1
:10A45000036010467047002070475B0803600120CE
:10A46000704700BF10B50C460121FFF73DFF0122E8
:10A470004461026110BD00BF2DE9F04F0D691769FD
:10A48000BD4283B00C46164604DA2A4634463D46A1
:10A490000E461746A368616805EB07089845C8BFD4
:10A4A0000131FFF721FF00F1140C0CEB8809CC45BA
:10A4B000009005D26346002143F8041B9945FBD860
:10A4C00006F1140202EB870A04F11403524503EB70
:10A4D000850E54D2CDF80490994652F8043B1FFAE9
:10A4E00083FBBBF1000F20D000204F466646054697
:10A4F00000E01E4657F8044B3068A1B283B20BFB54
:10A500000131240C000C4B190BFB040000EB134031
:10A5100099B2334641EA0041BE454FEA104543F83F
:10A52000041BE6D8756052F8043C5FEA134B20D058
:10A53000DCF80030674618464D46002100E03746FB
:10A540002C88000C0BFB040001449CB23E4644EAFC
:10A55000014346F8043B786855F8044B83B2240C59
:10A560000BFB043404EB1143AE454FEA1341E6D82C
:10A570007B6092450CF1040CAFD8DDF80490B8F183
:10A58000000F0BDD59F8043CA9F104091BB105E0EB
:10A5900059F8043D13B9B8F10108F9D10098C0F891
:10A5A000108003B0BDE8F08F12F003032DE9F041F5
:10A5B000144607462ED10E46A4101CD0BD6C95B390
:10A5C000E3074FF0000806D4641014D02868A8B13F
:10A5D0000546E307F8D52A4631463846FFF74CFFD3
:10A5E000B6B17268FB6C641053F82210316043F806
:10A5F00022600646EAD13046BDE8F0812A46294667
:10A600003846FFF739FF2860C0F800800546E0E7CC
:10A610000646D9E75A1E0B4D002355F82220FFF7B6
:10A6200093FE0646C8E701213846FFF75DFE40F27B
:10A63000712101220023416102610546B864036073
:10A64000BEE700BF74BA01082DE9F04791460A69D8
:10A650008B684FEA691404EB020808F101059D427A
:10A660000E468246496804DD5B009D4201F101010E
:10A67000FADC5046FFF738FE002C00F1140238DDFA
:10A6800002EB8403002142F8041B9342FBD134699E
:10A6900006F1140119F01F0901EB840E21D0C9F154
:10A6A000200200240F6807FA09FC4CEA04049C46C7
:10A6B00043F8044B51F8044B8E4524FA02F4F1D8C8
:10A6C000CCF804400CB108F10205DAF84C3072689D
:10A6D000013D53F822100561316043F82260BDE866
:10A6E000F087043B51F8042B43F8042F8E45F9D82A
:10A6F000EBE71346CBE700BF02690B69D21A13D10F
:10A700009B0014301431194410B4034401E0984202
:10A710000CD253F8044D51F8042D9442F7D009D3CC
:10A7200001205DF8044B70471046704700205DF82B
:10A73000044B70474FF0FF30F3E700BF2DE9F843BB
:10A740000B690F4611695B1A002B904617D18900DF
:10A7500007F1140208F114055318294401E09A4244
:10A760005ED253F8046D51F8044DA642F7D060D282
:10A770003B46144647464FF00109984606E05DDB2C
:10A7800007F1140502F114044FF000097968FFF78E
:10A79000ABFDD8F810303E69C0F80C9004EB830C88
:10A7A000A64605EB860700F1140400235EF8041B9F
:10A7B00055F8048B8AB213FA88F3090C9A1AC1EB84
:10A7C000184303EB224392B242EA0342F44544F8B1
:10A7D000042B4FEA2343E9D8AF4217D9A4462946B0
:10A7E00051F804EB13FA8EF2131403EB1E4392B2EA
:10A7F00042EA03428F424CF8042B4FEA2343EFD83E
:10A80000ED433D4425F0030504352C44043C22B9B6
:10A8100054F8043D013E002BFAD00661BDE8F883F0
:10A820000021FFF761FD0122002302614361BDE8C1
:10A83000F8832C464FF000091546A7E73B4607F181
:10A84000140408F1140547464FF0010998469DE7A6
:10A850002DE9F04357EC106B83B0884601213C464C
:10A86000C7F30A551746FFF73FFDC4F313048146AB
:10A870000DB144F4801401941EB302A840F8086D91
:10A88000FFF7C2FD002834D19DE80C00C9F8142060
:10A89000002B0CBF01210221C9F81830C9F8101093
:10A8A000DDB909EB8103A0F23240C8F80000186955
:10A8B000FFF78AFDC0EB41103860484603B0BDE8A1
:10A8C000F08301A8FFF7A0FD019BC9F81430012116
:10A8D0002030C9F81010002DE3D0A5F2334505440F
:10A8E000C0F13500C8F800503860484603B0BDE8F4
:10A8F000F0839DE80C00C0F1200103FA01F10A4346
:10A90000C3400193C9F81420C2E700BF70B50D46DB
:10A910001446064618B1836B0BB9FEF73BFEA368DD
:10A92000013B002BA36005DBE8B223685A1C2260C0
:10A930001D7070BDA269934202DBE8B20A28F4D10F
:10A94000224629463046BDE8704000F07BBA00BF81
:10A950002DE9F04F174683B0002900F0C1800E4664
:10A96000814607F10B05FFF7BBFC56F804EC162DEA
:10A970002EF00304A6F1080840D810221546AF4275
:10A9800041D8944275DAC94B996808EB04008842B3
:10A99000416800F0D98021F0010303445B68DB07C4
:10A9A0007DD51EF0010F35D039464846FFF77CF9BA
:10A9B0000746E0B156F8043C23F001034344A0F1FC
:10A9C00008029A4200F04481221F242A00F23181B9
:10A9D000132A00F204810346324611681960516857
:10A9E000596092689A6031464846FEF73FFE4846F5
:10A9F000FFF778FC384603B0BDE8F08F25F0070577
:10AA0000002D2A46BBDA0C230020C9F8003003B021
:10AA1000BDE8F08F56F8083CC3EB080ADAF80430BA
:10AA200023F0030C04EB0C039342BDDB5746DAF82A
:10AA30000C1057F8080F221F242AC160886000F20A
:10AA40001781132A40F212813168CAF80810716820
:10AA5000CAF80C101B2A00F22B8108360AF11002EA
:10AA60003168116071685160B16891603E461C4662
:10AA7000D046631B0F2B1DD8D8F8043003F0010318
:10AA800023434444C8F80430636843F0010363601F
:10AA90004846FFF727FC304603B0BDE8F08F21F0B1
:10AAA00003012144914221DBC36882680C46D360D4
:10AAB0009A60DEE7D8F8042008EB050102F00102F5
:10AAC000154343F001020B44C8F804504A605A6829
:10AAD00042F0010208315A604846FEF7C7FDD7E749
:10AAE000114603B0BDE8F04FFFF7DEB81EF0010FCE
:10AAF0007FF45AAF56F8083CC3EB080ADAF8043082
:10AB000023F0030C01EB0C0E96458BDBC3688268C7
:10AB10005746D3609A6057F8081FDAF80C30CB60BC
:10AB2000221F242A996000F29980132A62D933687F
:10AB3000CAF808307368CAF80C301B2A00F2A080EB
:10AB400008360AF1100356E021F0030BA34405F187
:10AB50001000834559DA1EF0010F7FF425AF56F837
:10AB6000081CC1EB080ADAF8041021F0030CE344D6
:10AB700058453FF757AF5746DAF80C1057F8080F0B
:10AB8000221F242AC160886000F2B480132A40F298
:10AB9000A5803168CAF808107168CAF80C101B2A21
:10ABA00000F2AF8008360AF1100231681160716856
:10ABB0005160B16891600AEB0501C5EB0B0242F0F0
:10ABC000010299604A60DAF8043003F001031D4382
:10ABD0004846CAF80450FFF785FB38465CE73368FF
:10ABE0000360736843601B2A27D800F1080306F14D
:10ABF0000802F2E63B4632681A6072685A60B26830
:10AC00009A603E467446D04633E708EB0501C5EB33
:10AC10000B0B4BF0010299604A6056F8043C03F0BC
:10AC200001031D43484646F8045CFFF75BFB3046D2
:10AC300032E73146FFF7F0FAD5E6B3688360F36890
:10AC4000C360242A28D000F1100306F11002C4E6E4
:10AC500050F8043C23F003031C440AE7314638460D
:10AC60007446D046FFF7D8FA3E4602E73A46F7E682
:10AC7000314638461C46D046FFF7CEFA3E46F8E647
:10AC8000B368CAF81030F368CAF81430242A1BD00D
:10AC900010360AF11803AEE7336903617369436143
:10ACA00006F1180200F1180397E600BF880600209D
:10ACB000B168CAF81010F168CAF81410242A0FD02D
:10ACC00010360AF11802CBE63369CAF818307369F6
:10ACD000CAF81C3018360AF120038CE73A4664E7BC
:10ACE0003269CAF818207269CAF81C2018360AF1AD
:10ACF0002002B5E6314638460193FFF78DFA019BF5
:10AD000059E7B168CAF81010F168CAF81410242A7B
:10AD100003D010360AF1180247E73269CAF8182042
:10AD20007269CAF81C2018360AF120023DE700BFFC
:10AD300010B50C46B1F90E10F6F7A0FD002803DBA4
:10AD4000236D0344236510BDA38923F48053A3819D
:10AD500010BD00BF2DE9F0411646B1F90C201F4689
:10AD6000D3050C46054607D500220223B1F90E1083
:10AD7000F6F7BAFCB4F90C20B4F90E1022F48052A4
:10AD8000A2813B4632462846BDE8F041F6F700BEB8
:10AD900010B50C46B1F90E10F6F7A6FCA389421CBB
:10ADA0000EBF23F4805343F480532065A38110BD6C
:10ADB000B1F90E10F6F78EBC4B6E2DE9F0479C04EE
:10ADC00092462CD5936812683BB30F46804602F139
:10ADD000080919E96000B60817D0043D002401E015
:10ADE000A64210D03A4655F8041F404600F090F9AC
:10ADF000431C04F10104F3D10023CAF80830CAF857
:10AE00000430BDE8F087DAF80830A3EB8603CAF80F
:10AE1000083009F10809002BDBD10020ECE7FEF730
:10AE20000DFD0023CAF80830CAF80430BDE8F087E9
:10AE300093680BB1FFF7C0BF10B4184653605DF8BC
:10AE4000044B7047F8B50E461446074610B1836BA5
:10AE5000002B4AD0B4F90C20A369A36091B2080773
:10AE600038D52369002B35D08904F5B215D5226871
:10AE70006169D31A8B421CDA0133A168501C013975
:10AE8000A1602060167062699A421AD0A389DB071C
:10AE900001D50A2D15D02846F8BD616E42F4005246
:10AEA00021F40051A281226861666169D31A8B4244
:10AEB000E2DB21463846FEF7D9FA40B92268012381
:10AEC000DBE721463846FEF7D1FA0028E3D04FF001
:10AED000FF30F8BD21463846FDF702FA0028F6D1CA
:10AEE000B4F90C20236991B2BEE7FEF753FBB1E73A
:10AEF0002DE9F047254C2568D5F848410646884697
:10AF000092469946C4B360681F2817DC431C76B18B
:10AF100004EB80050122C5F888A0D4F8881182408E
:10AF20001143022EC4F88811C5F808911ED00230D2
:10AF3000636044F820800020BDE8F087144B03B321
:10AF40004FF4C870FEF7A8FE0446D0B1D5F84831DA
:10AF5000002780E88800C5F8484138460123C4F836
:10AF60008871C4F88C71002EE1D0D1E7D4F88C112F
:10AF70000A43C4F88C21DAE705F5A674C5F8484100
:10AF8000C1E74FF0FF30BDE8F08700BFECB9010822
:10AF9000999C000810B502FB01F1FEF785FE0446FE
:10AFA000D8B150F8042C22F00302043A242A18D80D
:10AFB000132A14D900231B2A0360436016D9242ABC
:10AFC0008360C36011BF00F110020361436100F1AF
:10AFD00018020023136053609360204610BD0246A0
:10AFE000F7E70021FBF706FB204610BD00F1080241
:10AFF000EFE700BF00293DD070B505460C4608B10B
:10B00000836B7BB3B4F90C300BB9002070BD2146C3
:10B010002846FEF787F9E36A064633B1E169284618
:10B0200098470028B8BF4FF0FF36A3891B061CD4F1
:10B03000216B41B104F14003994202D02846FEF74A
:10B0400015FB00232363616C21B12846FEF70EFB3C
:10B0500000236364FEF7A4FA0023A381FEF7A2FA9B
:10B06000304670BDFEF796FACCE721692846FEF718
:10B07000FDFADDE7002070472DE9F04782B08046F9
:10B0800089461446FEF78AFD012833D004F15C039B
:10B090004A4601A9404600F04FF8B0F1FF3F824612
:10B0A00021D088B39DF80460002508E023685A1C6D
:10B0B00022601E700135554526D201AB5E5DA36846
:10B0C000013B002BA360F1DAA769BB42314622465F
:10B0D000404601DB0A2EE9D1FFF7B4FE431CE9D15B
:10B0E00002B0BDE8F087A38943F04003A38102B01A
:10B0F000BDE8F08709F1FF33FE2BC7D85FFA89F668
:10B1000082468DF80460CFE7484602B0BDE8F0877C
:10B11000B2F90C3013F4005F0BD110B4546E43F449
:10B12000005344F40054546693815DF8044BFFF7D8
:10B13000A3BFFFF7A1BF00BF2DE9F041054686B0D0
:10B140001E460C46A1B1104B1746D3F80080FEF7FF
:10B1500021FD009603463A4621462846C047431C37
:10B1600003D100228A2332602B6006B0BDE8F08153
:10B17000054B1F68FEF70EFD00960346224603A905
:10B180002846B847EBE700BF980A002021B1FF2A04
:10B1900004D80A7001207047084670478A2303606C
:10B1A0004FF0FF30704700BFF8B500BFF8BC08BCD7
:10B1B0009E467047F8B500BFF8BC08BC9E46704775
:10B1C0004D697373696E67204C454420696E6465F0
:10B1D00078004D697373696E6720737461746520BC
:10B1E00076616C75652C203020666F72204F666624
:10B1F0002C203120666F72204F6E004C65642069F0
:10B200006E646578206F66202575206973206F75E0
:10B2100074206F66207468652072616E67652028EF
:10B22000332E2E3130290A00416363656C65726FDD
:10B230006D657465722072657475726E733A0A205A
:10B240002020583A2025640A202020593A202564DD
:10B250000A2020205A3A2025640A004779726F7329
:10B26000636F70652072657475726E733A0A202080
:10B2700020583A2025640A202020593A2025640AC3
:10B280002020205A3A2025640A00507265737365A5
:10B29000640052656C656173656400427574746F17
:10B2A0006E2069732063757272656E746C793A20D2
:10B2B00025730A004661696C656420746F20696EAD
:10B2C000697469616C697A6520616363656C657234
:10B2D0006F6D746572004661696C656420746F20DF
:10B2E000696E697469616C697A65204779726F73F8
:10B2F000636F706500202020202020202020202047
:10B3000020202020205072696E742073746174753F
:10B3100073206F66207573657220627574746F6E2A
:10B32000006779726F00202020202020202020201C
:10B3300020202020202052656164204779726F739D
:10B34000636F706500616363656C002020202020BE
:10B3500020202020202020202020205265616420F1
:10B36000416363656C65726F6D65746572006C65D1
:10B3700064003C696E6465783E203C73746174655A
:10B380003E205475726E206F66662F6F6E204C459E
:10B3900044000001020304050607307825303858C0
:10B3A0003A203078253038580A0077003C41444430
:10B3B000523E203C444154413E2020205772697443
:10B3C00065204D656D6F7279003C414444523E20CA
:10B3D00020202020202020202052656164204D65FF
:10B3E0006D6F7279004E554C4C2062756620706FFF
:10B3F000696E7465722070617373656420746F2068
:10B40000257328290A006C656E203D3D2030206997
:10B410006E2025730A004E554C4C207461626C6599
:10B4200020706F696E74657220706173736564203B
:10B43000746F20257328290A0020090A0B0C0D00BF
:10B44000556E61626C6520746F2066696E64206160
:10B4500020636F6D6D616E6420696E207468652075
:10B4600062756666657220696E20257328290A0058
:10B4700068656C700025313273202D2D2025730AEC
:10B480000025733A0A00436F6D6D616E642060257C
:10B490007327206E6F7420666F756E642E2054794A
:10B4A0007065206068656C702720666F72206F6E13
:10B4B0006C696E652068656C700A0041524D4F4E94
:10B4C0003E00082008002573007061727365002536
:10B4D0003038783A00202530327800202025730A51
:10B4E000002020200064756D70207B3C61646472D4
:10B4F0006573733E207B3C636F756E743E7D7D0A81
:10B500000A5468697320636F6D6D616E64206475A1
:10B510006D70732074686520636F6E74656E7473EC
:10B52000206F66206C6F63616C206D656D6F727942
:10B5300020746F20746865207465726D696E616C2B
:10B540002E0A0A3C616464726573733E2063616E07
:10B5500020626520616E792076616C756520667267
:10B560006F6D203078303030303030303020746FB4
:10B5700020307846464646464646462E0A496E766E
:10B58000616C6964206163636573736573207769B7
:10B590006C6C20626520747261707065642E20206E
:10B5A0004966206164647265737320697320756EE7
:10B5B0007370656369666965642C0A636F6E74698C
:10B5C0006E7565732066726F6D206C617374207088
:10B5D00072696E74656420616464726573732E2091
:10B5E00044656661756C742076616C75652069735D
:10B5F00020302E0A0A3C636F756E743E20697320FA
:10B60000746865206E756D626572206F6620627960
:10B6100074657320746F2064756D7020746F20746E
:10B620006865207465726D696E616C2E0A496620CA
:10B6300074686520636F756E7420697320756E730E
:10B6400070656369666965642075736573206C61F4
:10B65000737420636F756E742E2054686520646562
:10B660006661756C740A636F756E7420697320303F
:10B67000783130302062797465732E0A0043757218
:10B6800072656E74206164647265737320697320DF
:10B690003078253038782C2063757272656E74208E
:10B6A000636F756E7420697320307825780A003CCA
:10B6B000616464723E203C636F756E743E2020446A
:10B6C000756D70206D656D6F7279005465726D696E
:10B6D0006E616C202325753A0A20202077726974E8
:10B6E00065546F6F4269673A20202025750A202033
:10B6F000207772697465426C6F636B65643A2020D1
:10B7000025750A2020207772697474656E3A2020AE
:10B71000202020202025750A20202072656365697D
:10B720007665546F6F4269673A2025750A2020209C
:10B7300072656365697665643A20202020202025A3
:10B74000750A007465726D73746174002020202086
:10B7500020202020202020202020202044756D70D3
:10B76000207465726D696E616C20737461746973A5
:10B770007469637300496E76616C69642073697AD9
:10B7800065203078257820666F722072656769734E
:10B7900074657220257320696E2070657269706807
:10B7A00072616C202573210A00626974732C006237
:10B7B00069742C2000202025323173203A20307803
:10B7C000252D32782028253675292025327520250B
:10B7D00073206F66667365743A2025750A002052DF
:10B7E0006567697374657220252D313373203A20A3
:10B7F0003078253038782028253130752920536954
:10B800007A653A2025327520416464726573733A13
:10B81000203078253038780A005065726970686584
:10B8200072616C20252D3133733A2042617365209B
:10B83000616464726573733A203078253038780A11
:10B84000000A09006465636F6465207B3C70657263
:10B850006970683E207B3C7265673E7D7C66756CD6
:10B860006C7D0A6465636F6465203C706572697005
:10B87000683E203C7265673E203C76616C3E0A64FF
:10B8800065636F6465203C7065726970683E203C3A
:10B890007265673E203C6669656C643E203C76615B
:10B8A0006C3E0A0A5468697320636F6D6D616E6443
:10B8B000206465636F6465732074686520726567D2
:10B8C000697374657273206F66206120676976659D
:10B8D0006E207065726970686572616C0A496620D5
:10B8E000746865207065726970686572616C206E3D
:10B8F000616D65206973206E6F7420737570706C54
:10B900006965642C2069742077696C6C2064756D9E
:10B910007020616C6C0A7065727069686572616C28
:10B9200073206F6E2074686520636869702E2049EB
:10B930006620746865207265676973746572206932
:10B9400073206E6F7420737570706C6965640A691A
:10B95000742077696C6C2064756D7020616C6C204C
:10B9600072656769737465727320666F722074689C
:10B9700065207065726970686572616C2E20416423
:10B9800064696E67207468650A776F726420276641
:10B99000756C6C2720616674657220746865207010
:10B9A00065726970686572616C2C2077696C6C20B7
:10B9B0006465636F646520616C6C207468650A66F9
:10B9C00069656C64730A0A54686520666F726D73EA
:10B9D0002077697468203C76616C3E206F6E20741D
:10B9E000686520656E6420616C6C6F7720796F7577
:10B9F00020746F20736574207468650A73656C65C4
:10BA0000637465642072656769737465722F666913
:10BA1000656C642076616C75650A0A56616C6964B0
:10BA2000207065726970686572616C7320617265FF
:10BA30003A0A000A0A466F722061206C697374200A
:10BA40006F662076616C69642072656769737465DE
:10BA5000727320666F72206120676976656E207050
:10BA600065726970686572616C2C20656E746572B0
:10BA70000A0A68656C70206465636F6465203C70B9
:10BA800065726970683E0A004D697373696E67205C
:10BA90007065726970686572616C206E616D652C8D
:10BAA00020706C656173652063686F7365206F6ECD
:10BAB00065206F663A0A0027257327206973206E78
:10BAC0006F7420612076616C6964207265676973A8
:10BAD000746572206E616D652C2076616C696420DE
:10BAE0006E616D657320666F7220257320617265CB
:10BAF0003A0A0A004D697373696E672056616C7566
:10BB00006520746F2070726F6772616D20696E744A
:10BB10006F2072656769737465722025730A00254A
:10BB2000732E25732E25732028256429202D3E2071
:10BB3000282564290A00496E76616C6964206E7557
:10BB40006D626572202725732720656E74657265A6
:10BB5000642E0A0025732E2573203D203078253071
:10BB600038780A002573206973206E6F7420612075
:10BB700076616C6964207065726970686572616C69
:10BB8000206E616D650A56616C696420706572692A
:10BB900070686572616C73206172653A0A0A0056BA
:10BBA000616C69642072656769737465727320667D
:10BBB0006F72207065726970686572616C202573A0
:10BBC0003A0A0A0027257327206973206E6F7420B4
:10BBD000612076616C696420706572697068657255
:10BBE000616C206E616D652C2076616C6964206EDD
:10BBF000616D657320666F72206172653A0A0A0092
:10BC000066756C6C006465636F6465003C7065729A
:10BC10006970683E203C7265673E20204465636F12
:10BC20006465207265676973746572730000000053
:10BC300010910108000100001591010801010000A8
:10BC40001A9101080201000020910108030100007F
:10BC5000D691010804010000DB91010805010000F4
:10BC6000D994010806010000E091010807010000D5
:10BC7000DF94010808010000E494010809010000B4
:10BC8000E99401080A010000EF9401080B0100008B
:10BC9000F59401080C010000FA9401080D01000060
:10BCA000FF9401080F010000059501081001000034
:10BCB0000A950108110100000F9501081401000008
:10BCC00014950108150100000000000000000000AC
:10BCD000CA80010800002000E4640108058F010803
:10BCE0000400200000E800080A8F01080800200076
:10BCF000FC6901080F8F01080C0020005C7201082C
:10BD0000168F010810002000A47501081C8F01087F
:10BD100014002000301E0108228F01081C002000A2
:10BD200048E40008278F010820002000547801080B
:10BD30002E8F010824002000B8FA0008348F010873
:10BD400028002000D45201083A8F0108300020005A
:10BD5000003501083F8F01083400200018FC00085E
:10BD6000468F0108380020007C4D01084C8F0108E7
:10BD70003C0020007CD90008528F010844002000BC
:10BD8000F4AE0108578F01084800200064500108F4
:10BD90005E8F01084C0020005C7A0108648F010866
:10BDA00050002000FCB001086A8F010858002000F4
:10BDB000C40101086F8F01085C0020005CAF01081E
:10BDC000768F010860002000A4FF00087C8F010826
:10BDD000640020009C6D0108828F01086C00200027
:10BDE0002C530108878F0108700020002C020108E5
:10BDF0008E8F01087400200020320108948F010802
:10BE000078002000B0EB00089A8F01088000200025
:10BE100034B201089F8F010884002000E4710108FA
:10BE2000A68F01088800200098CC0008AC8F01087C
:10BE30008C002000D0380108000000000000000045
:10BE400000000000DB7F010800100000000000007F
:10BE50000000000023800108000100002E8001087E
:10BE60000101000041800108020100004A80010830
:10BE7000030100003880010804010000408001082F
:10BE800005010000498001080601000052800108F8
:10BE9000070100005B8001080801000064800108C0
:10BEA000090100006D8001080A0100007780010887
:10BEB0001001000081800108110100009480010838
:10BEC000120100009D800108130100008B80010811
:10BED0001401000093800108150100009C800108F6
:10BEE00016010000A580010817010000AE800108BE
:10BEF00018010000B780010819010000C080010886
:10BF00001A01000000000000000000006EA80108F7
:10BF10000004000071A801080402000079A80108CB
:10BF20000601000081A801080701000088A8010897
:10BF30000801000090A801080902000098A8010863
:10BF40000B0100009EA801080C020000A6A8010831
:10BF50000E010000AEA801080F0100000000000063
:10BF6000000000000D860108000200001486010890
:10BF7000020200001B86010804020000228601085C
:10BF80000602000029860108080200003086010828
:10BF90000A020000378601080C0200003E860108F4
:10BFA0000E02000045860108100200004C860108C0
:10BFB0001202000053860108140200005B8601088B
:10BFC0001602000063860108180200006B86010853
:10BFD0001A020000738601081C0200007B8601081B
:10BFE0001E0200000000000000000000779301081E
:10BFF000000E000000000000000000008E94010808
:10C000000201000094940108030100009A940108C1
:10C01000040300009F94010807010000A594010893
:10C020000A010000AB9401080B010000B194010863
:10C030000C030000B69401080F010000BC94010835
:10C0400010010000C3940108180100000000000066
:10C05000000000002C92010800030000DE9501089A
:10C0600003010000B99201080403000030920108A6
:10C0700007010000E395010808040000E7950108A6
:10C080000C020000EC9501080E010000099A01085D
:10C090000F010000F09501081001000000000000F1
:10C0A00000000000B2AC0108000F0000B8AC0108AD
:10C0B0001F01000000000000000000008BA201082A
:10C0C000000100008FA201080101000093A20108F5
:10C0D0000201000097A20108030100009BA20108D1
:10C0E000040100009FA2010805010000A3A20108AD
:10C0F00006010000A7A2010807010000ABA2010889
:10C1000008010000AFA2010809010000B3A2010864
:10C110000A010000B8A201080B010000BDA201083D
:10C120000C010000C2A201080D010000C7A2010815
:10C130000E010000CCA201080F010000D1A20108ED
:10C1400010010000D6A2010811010000DBA20108C5
:10C1500012010000E0A2010813010000E5A201089D
:10C1600014010000EAA2010815010000EFA2010875
:10C1700016010000F4A2010817010000F9A201084D
:10C1800018010000FEA201081901000003A3010824
:10C190001A01000008A301081B0100000DA30108FB
:10C1A0001C01000012A301081D01000017A30108D3
:10C1B0001E0100001CA301081F0100000000000078
:10C1C000000000009EAC0108000400001E9401085D
:10C1D000040200009AAC0108080400006EAD0108DA
:10C1E0000C0100009DAC01080D03000000000000E0
:10C1F0000000000000910108002000000000000085
:10C200000000000019950108000200001E950108B9
:10C210000201000024950108030100002A9501088D
:10C22000040300002F95010807010000359501085F
:10C23000080200003A9501080A0100004095010833
:10C240000B010000469501080C0300004B95010806
:10C250000F010000519501081001000058950108D8
:10C260001801000000000000000000000C9101080F
:10C27000000800000000000000000000F498010821
:10C28000000100005B970108010100007897010898
:10C2900002010000F898010803010000FC98010861
:10C2A000040100000099010805010000049901083B
:10C2B0000601000008990108070100000C99010817
:10C2C00008010000109901080901000014990108F3
:10C2D0000A010000199901080B0100001E990108CC
:10C2E0000C010000239901080D01000028990108A4
:10C2F0000E0100002D9901080F010000329901087C
:10C300001001000037990108110100003C99010853
:10C31000120100004199010813010000469901082B
:10C32000140100004B990108150100005099010803
:10C330001601000055990108170100005A990108DB
:10C34000180100005F9901081901000064990108B3
:10C350001A010000699901081B0100006E9901088B
:10C360001C010000739901081D0100007899010863
:10C370001E0100007D9901081F010000000000005F
:10C38000000000008BA20108000100008FA201083C
:10C390000101000093A201080201000097A2010818
:10C3A000030100009BA20108040100009FA20108F4
:10C3B00005010000A3A2010806010000A7A20108D0
:10C3C00007010000ABA2010808010000AFA20108AC
:10C3D00009010000B3A201080A010000B8A2010887
:10C3E0000B010000BDA201080C010000C2A201085F
:10C3F0000D010000C7A201080E010000CCA2010837
:10C400000F010000D1A2010810010000D6A201080E
:10C4100011010000DBA2010812010000E0A20108E6
:10C4200013010000E5A2010814010000EAA20108BE
:10C4300015010000EFA2010816010000F4A2010896
:10C4400017010000F9A2010818010000FEA201086E
:10C450001901000003A301081A01000008A3010844
:10C460001B0100000DA301081C01000012A301081C
:10C470001D01000017A301081E0100001CA30108F4
:10C480001F01000000000000000000000EA80108CD
:10C4900000040000C88F01080401000014A801086E
:10C4A0000801000015A8010809010000A78901087A
:10C4B0000A01000037A801080B01000019A80108B3
:10C4C0000C01000047A901080D0100001EA8010889
:10C4D0000E010000B07E01080F0100000000000006
:10C4E00000000000F1A8010803010000F8A80108FD
:10C4F00004010000FFA801080501000006A90108C9
:10C50000080100000DA901080901000014A9010893
:10C510000A0100001AA901080B01000020A9010866
:10C520000C01000029A901080D0100000000000015
:10C5300000000000D390010800100000000000007F
:10C5400000000000EEAC010800010000F5AC01089D
:10C5500001010000FCAC01080201000002AD01086D
:10C560000301000007AD0108040100000DAD010842
:10C570000501000011AD010806010000B6A5010883
:10C580000701000017AD0108080100001DAD0108FA
:10C590000901000023AD01080A01000028AD0108CF
:10C5A0000B0100002CAD01080C01000032AD0108A8
:10C5B0000D01000039AD01080E01000040AD010879
:10C5C0000F01000047AD010810010000000000004D
:10C5D00000000000009101080020000000000000A1
:10C5E00000000000828F0108001000000000000021
:10C5F00000000000EE90010800080000A69D010860
:10C6000008020000F29001080A010000F7900108FA
:10C610000B010000FC9001080C01000000910108D2
:10C620000D010000049101080E01000008910108AD
:10C630000F010000DA920108100400000000000061
:10C640000000000026910108000200007795010813
:10C65000020200003291010804040000E691010882
:10C66000080200007E9501080A020000F29101080C
:10C670000C0400000000000000000000F987010821
:10C680000000200058E00008859F010804002000F9
:10C690005C0701088D9F01080800200068B50108AB
:10C6A000959F01080C002000D4F600089D9F01080A
:10C6B00010002000A4DB0008A49F01081400200043
:10C6C000040B0108AC9F010818002000E047010896
:10C6D000B49F01081C002000182A0108BB9F010814
:10C6E00020002000D4540108C39F0108240020002A
:10C6F000C4750108CB9F010828002000146C0108B4
:10C70000D29F01082C002000D0C90008D79F010843
:10C7100030002000B4010108F28701083400200035
:10C720001453010800000000000000000000000099
:10C730008FAA0108000C00000000000000000000AB
:10C740008BA20108000100008FA201080101000076
:10C7500093A201080201000097A201080301000052
:10C760009BA20108040100009FA20108050100002E
:10C77000A3A2010806010000A7A20108070100000A
:10C78000ABA2010808010000AFA2010809010000E6
:10C79000B3A201080A010000B8A201080B010000C1
:10C7A000BDA201080C010000C2A201080D01000099
:10C7B000C7A201080E010000CCA201080F01000071
:10C7C000D1A2010810010000D6A201081101000049
:10C7D000DBA2010812010000E0A201081301000021
:10C7E000E5A2010814010000EAA2010815010000F9
:10C7F000EFA2010816010000F4A2010817010000D1
:10C80000F9A2010818010000FEA2010819010000A8
:10C8100003A301081A01000008A301081B0100007E
:10C820000DA301081C01000012A301081D01000056
:10C8300017A301081E0100001CA301081F0100002E
:10C84000000000000000000085A6010800020000B2
:10C850008AA601080301000090A601080401000057
:10C8600096A601080501000000000000000000007D
:10C8700000910108002000000000000000000000FE
:10C8800083AC01080009000088AC01080D0100001C
:10C890008FAC01080E01000095AC01080F010000EB
:10C8A00000000000000000005F910108000100008E
:10C8B00063910108010100001492010802010000C7
:10C8C0009F95010803010000A595010804010000DF
:10C8D0006F9101080601000077910108090100002D
:10C8E0001A9201080A010000B09501080B0100002E
:10C8F000B69501080C0100000000000000000000D7
:10C90000419E010800040000479E01080404000045
:10C910004D9E010808040000539E01080C0400000D
:10C92000000000000000000052A701080001000004
:10C93000457D01080101000057A701080201000020
:10C940005CA701080301000061A7010804010000C1
:10C9500066A70108050100006BA701080601000099
:10C9600070A7010807010000A78901080F01000056
:10C9700075A7010810010000000000000000000081
:10C980005F910108000100006391010801010000AE
:10C9900069910108050100006F910108060100007E
:10C9A0007391010807010000779101080901000057
:10C9B00000000000000000002E91010800080000A7
:10C9C000F6A50108080800000000000000000000B3
:10C9D000F59F0108000C00000000000000000000AE
:10C9E0008BA20108000100008FA2010801010000D4
:10C9F00093A201080201000097A2010803010000B0
:10CA00009BA20108040100009FA20108050100008B
:10CA1000A3A2010806010000A7A201080701000067
:10CA2000ABA2010808010000AFA201080901000043
:10CA3000B3A201080A010000B8A201080B0100001E
:10CA4000BDA201080C010000C2A201080D010000F6
:10CA5000C7A201080E010000CCA201080F010000CE
:10CA6000D1A2010810010000D6A2010811010000A6
:10CA7000DBA2010812010000E0A20108130100007E
:10CA8000E5A2010814010000EAA201081501000056
:10CA9000EFA2010816010000F4A20108170100002E
:10CAA000F9A2010818010000FEA201081901000006
:10CAB00003A301081A01000008A301081B010000DC
:10CAC0000DA301081C01000012A301081D010000B4
:10CAD00017A301081E0100001CA301081F0100008C
:10CAE000000000000000000021A301080001000078
:10CAF00027A30108010100002DA301080201000085
:10CB000033A301080301000039A301080401000058
:10CB10003FA301080501000045A30108060100002C
:10CB20004BA301080701000051A301080801000000
:10CB300057A30108090100005DA301080A010000D4
:10CB400064A301080B0100006BA301080C010000A5
:10CB500072A301080D01000079A301080E01000075
:10CB600080A301080F01000087A301081001000045
:10CB70008EA301081101000095A301081201000015
:10CB80009CA3010813010000A3A3010814010000E5
:10CB9000AAA3010815010000B1A3010816010000B5
:10CBA000B8A3010817010000BFA301081801000085
:10CBB000C6A3010819010000CDA301081A01000055
:10CBC000D4A301081B0100000000000000000000C9
:10CBD000009101080020000000000000000000009B
:10CBE000038B0108000200007E8E01080202000093
:10CBF000828E010804040000878E010808030000EB
:10CC00008D8E01080B030000938E010810010000B7
:10CC10009A8E010811010000A38E01081204000081
:10CC2000AA8E010816010000B28E0108170100004B
:10CC3000B98E010818030000BD8E01081C01000018
:10CC400000000000000000008DA0010800010000AD
:10CC500092A001080101000097A001080201000054
:10CC60009CA0010803010000A1A00108040100002C
:10CC7000A6A0010805030000AAA001080801000001
:10CC80000000000000000000C77F01080020000035
:10CC90000000000000000000B28F0108002000002A
:10CCA00000000000000000006D8801080001000085
:10CCB00074880108010100007B880108020100005E
:10CCC000828801080301000089880108040100002E
:10CCD00090880108050100009788010806010000FE
:10CCE0009E88010807010000A588010808010000CE
:10CCF000AC88010809010000B38801080A0100009E
:10CD0000BA8801080B010000C18801080C0100006D
:10CD1000C88801080D010000CF8801080E0100003D
:10CD2000D68801080F010000DD880108100100000D
:10CD3000E488010811010000EB88010812010000DD
:10CD4000F288010813010000F988010814010000AD
:10CD5000008901081501000007890108160100007B
:10CD60000E8901081701000015890108180100004B
:10CD70001C89010819010000238901081A0100001B
:10CD80002A8901081B010000318901081C010000EB
:10CD9000388901081D0100003F8901081E010000BB
:10CDA000468901081F01000000000000000000008B
:10CDB0008BA20108000100008FA201080101000000
:10CDC00093A201080201000097A2010803010000DC
:10CDD0009BA20108040100009FA2010805010000B8
:10CDE000A3A2010806010000A7A201080701000094
:10CDF000ABA2010808010000AFA201080901000070
:10CE0000B3A201080A010000B8A201080B0100004A
:10CE1000BDA201080C010000C2A201080D01000022
:10CE2000C7A201080E010000CCA201080F010000FA
:10CE3000D1A2010810010000D6A2010811010000D2
:10CE4000DBA2010812010000E0A2010813010000AA
:10CE5000E5A2010814010000EAA201081501000082
:10CE6000EFA2010816010000F4A20108170100005A
:10CE7000F9A2010818010000FEA201081901000032
:10CE800003A301081A01000008A301081B01000008
:10CE90000DA301081C01000012A301081D010000E0
:10CEA00017A301081E0100001CA301081F010000B8
:10CEB0000000000000000000D390010800100000F6
:10CEC00000000000000000008BA20108000100002B
:10CED0008FA201080101000093A2010802010000D5
:10CEE00097A20108030100009BA2010804010000B1
:10CEF0009FA2010805010000A3A20108060100008D
:10CF0000A7A2010807010000ABA201080801000068
:10CF1000AFA2010809010000B3A201080A01000044
:10CF2000B8A201080B010000BDA201080C0100001D
:10CF3000C2A201080D010000C7A201080E010000F5
:10CF4000CCA201080F010000D1A2010810010000CD
:10CF5000D6A2010811010000DBA2010812010000A5
:10CF6000E0A2010813010000E5A20108140100007D
:10CF7000EAA2010815010000EFA201081601000055
:10CF8000F4A2010817010000F9A20108180100002D
:10CF9000FEA201081901000003A301081A01000004
:10CFA00008A301081B0100000DA301081C010000DB
:10CFB00012A301081D01000017A301081E010000B3
:10CFC0001CA301081F010000000000000000000079
:10CFD000E690010800050000EA900108080500003D
:10CFE00000000000000000008D7F01080008000024
:10CFF000947F0108080800009B7F010810080000CA
:10D00000A27F0108180800000000000000000000D6
:10D010000091010800200000000000000000000056
:10D02000FEA50108000A000002A601081004000085
:10D0300006A60108140300000AA601081802000051
:10D040000EA601081E01000013A601081F01000022
:10D050000000000000000000EE9001080008000041
:10D06000A69D010808020000F29001080A010000D4
:10D07000F79001080B010000FC9001080C01000072
:10D08000009101080D010000049101080E0100004B
:10D09000089101080F010000DA9201081004000055
:10D0A00000000000000000008D7F01080008000063
:10D0B000947F0108080800009B7F01081008000009
:10D0C000A27F010818080000000000000000000016
:10D0D0002E91010800100000000000000000000078
:10D0E0009A8A010800030000A28A010804010000D6
:10D0F000A98A0108050100000000000000000000EE
:10D100002691010800020000379101080201000089
:10D110003D91010803010000439101080403000050
:10D12000489101081001000000000000000000000C
:10D13000E2AD010800100000E7AD0108101000008A
:10D140000000000000000000867D010800002000B3
:10D15000E0D00008958A010804002000D4D400081B
:10D16000C5890108080020004C4F0108F28701081A
:10D170000C002000905E0108F987010810002000D3
:10D1800024DF0008937D0108140020007037010897
:10D19000CD8901081C00200094DF0008D189010816
:10D1A000200020009834010800000000000000006A
:10D1B000000000007481010800080000C2A50108F9
:10D1C00008080000C8A5010810080000CEA5010845
:10D1D000180800000000000000000000E6900108B0
:10D1E00000050000EA9001080805000000000000AA
:10D1F00000000000F9A5010800010000E7A50108F2
:10D20000010100009D96010802010000EBA5010844
:10D2100003120000F0A50108150B0000000000003B
:10D2200000000000798301080001000081830108EB
:10D2300001010000908301080201000097830108AA
:10D240000301000089830108040100008F830108A5
:10D250000501000096830108060100009D83010876
:10D2600007010000A483010808010000AB83010846
:10D2700009010000B28301080A010000000000005B
:10D2800000000000B07F0108002000000000000046
:10D2900000000000F4980108000100005B970108FD
:10D2A000010100007897010802010000F8980108C8
:10D2B00003010000FC980108040100000099010826
:10D2C0000501000004990108060100000899010801
:10D2D000070100000C9901080801000010990108DD
:10D2E00009010000149901080A01000019990108B8
:10D2F0000B0100001E9901080C0100002399010890
:10D300000D010000289901080E0100002D99010867
:10D310000F0100003299010810010000379901083F
:10D32000110100003C990108120100004199010817
:10D330001301000046990108140100004B990108EF
:10D3400015010000509901081601000055990108C7
:10D35000170100005A990108180100005F9901089F
:10D3600019010000649901081A0100006999010877
:10D370001B0100006E9901081C010000739901084F
:10D380001D010000789901081E0100007D99010827
:10D390001F01000000000000000000006D8801086F
:10D3A0000001000074880108010100007B88010869
:10D3B0000201000082880108030100008988010839
:10D3C0000401000090880108050100009788010809
:10D3D000060100009E88010807010000A5880108D9
:10D3E00008010000AC88010809010000B3880108A9
:10D3F0000A010000BA8801080B010000C188010879
:10D400000C010000C88801080D010000CF88010848
:10D410000E010000D68801080F010000DD88010818
:10D4200010010000E488010811010000EB880108E8
:10D4300012010000F288010813010000F9880108B8
:10D440001401000000890108150100000789010886
:10D45000160100000E890108170100001589010856
:10D46000180100001C890108190100002389010826
:10D470001A0100002A8901081B01000031890108F6
:10D480001C010000388901081D0100003F890108C6
:10D490001E010000468901081F0100000000000075
:10D4A000000000003D8B010800040000448B0108CF
:10D4B000040500004E8B0108090500000000000073
:10D4C000000000002E910108001000000000000084
:10D4D00000000000948A0108002000000000000005
:10D4E000000000009D91010800010000A2910108C8
:10D4F00002010000A7910108030100003A9201080F
:10D50000040300003E92010807010000AC910108ED
:10D5100008010000B19101080901000043920108CF
:10D520000A010000F59501080B010000FB950108B8
:10D530000C010000009601080D010000069601088C
:10D540000E0100000B960108100100001096010862
:10D5500012010000159601081404000000000000EC
:10D5600000000000C696010800010000FD7F0108D0
:10D570000101000026A8010803020000EB82010857
:10D58000050100000B820108060400001382010857
:10D590000A020000F18201080C010000F882010873
:10D5A0000D010000FD8201080E0100000483010846
:10D5B0000F01000014830108100100000B83010813
:10D5C0001103000013830108140100001B830108EC
:10D5D000150100001F8301081601000028830108BF
:10D5E0001701000027830108180100002F8301089C
:10D5F00019010000358301081A0500000000000031
:10D60000000000004F910108000100005291010844
:10D61000010100005791010805010000EF90010889
:10D62000060100005C9101080701000000000000F5
:10D63000000000002D880108000100003188010869
:10D640000101000035880108020100003988010845
:10D65000030100003D880108040100004188010821
:10D6600005010000458801080601000049880108FD
:10D67000070100004D8801081001000051880108D1
:10D6800011010000558801081201000059880108A5
:10D69000130100005D880108140100006188010881
:10D6A000150100006588010816010000698801085D
:10D6B0001701000000000000000000008D7F01083D
:10D6C00000080000947F0108080800009B7F010803
:10D6D00010080000A27F01081808000000000000E8
:10D6E000000000008D7F010800080000947F010801
:10D6F000080800009B7F010810080000A27F0108B5
:10D70000180800000000000000000000D8AC01086C
:10D7100000100000000000000000000083860108E7
:10D72000000200008C8601080202000095860108B4
:10D73000040200009E86010806020000A786010878
:10D7400008020000B08601080A020000B98601083C
:10D750000C020000C28601080E020000CB86010800
:10D7600010020000D486010812020000DD860108C4
:10D7700014020000E786010816020000F186010885
:10D7800018020000FB8601081A0200000587010844
:10D790001C0200000F8701081E02000000000000AC
:10D7A00000000000BA83010800010000C0830108E6
:10D7B00001010000C783010802010000CC830108B9
:10D7C0000301000021A8010804010000C68301082C
:10D7D00005010000CB83010806010000D083010889
:10D7E00007010000D583010808010000DA83010861
:10D7F00009010000DF8301080A01000000000000A9
:10D8000000000000C07F01080020000000000000B0
:10D81000000000000091010800200000000000004E
:10D82000000000009CA6010800020000A1A601085B
:10D8300003010000A7A6010804010000ADA601082D
:10D8400005010000000000000000000079A40108AC
:10D85000000100007EA401080101000083A401086A
:10D860000201000088A40108030100008DA4010842
:10D870000401000092A401080501000097A401081A
:10D88000060100009CA4010807010000A1A40108F2
:10D8900008010000A6A4010809010000ABA40108CA
:10D8A0000A010000B1A401080B010000B7A401089F
:10D8B0000C010000BDA401080D010000C3A4010873
:10D8C0000E010000C9A401080F010000CFA4010847
:10D8D00010010000D5A4010811010000DBA401081B
:10D8E00012010000E1A4010813010000E7A40108EF
:10D8F00014010000EDA4010815010000F3A40108C3
:10D9000016010000F9A4010817010000FFA4010896
:10D910001801000005A50108190100000BA5010868
:10D920001A01000011A501081B0100000000000001
:10D9300000000000908401080004000096840108A3
:10D94000040400009C84010808040000A28401086B
:10D950000C040000A884010810040000AE84010833
:10D9600014040000B484010818040000BA840108FB
:10D970001C040000000000000000000006800108F8
:10D98000002000000000000000000000A584010845
:10D99000000400001A820108060500001F82010829
:10D9A0000C050000248201081205000029820108EC
:10D9B0001805000000000000000000008BA2010814
:10D9C000000100008FA201080101000093A20108DC
:10D9D0000201000097A20108030100009BA20108B8
:10D9E000040100009FA2010805010000A3A2010894
:10D9F00006010000A7A2010807010000ABA2010870
:10DA000008010000AFA2010809010000B3A201084B
:10DA10000A010000B8A201080B010000BDA2010824
:10DA20000C010000C2A201080D010000C7A20108FC
:10DA30000E010000CCA201080F010000D1A20108D4
:10DA400010010000D6A2010811010000DBA20108AC
:10DA500012010000E0A2010813010000E5A2010884
:10DA600014010000EAA2010815010000EFA201085C
:10DA700016010000F4A2010817010000F9A2010834
:10DA800018010000FEA201081901000003A301080B
:10DA90001A01000008A301081B0100000DA30108E2
:10DAA0001C01000012A301081D01000017A30108BA
:10DAB0001E0100001CA301081F010000000000005F
:10DAC0000000000021960108000300000000000093
:10DAD00000000000E19001080010000000000000BC
:10DAE0000000000065A90108000C00006EA90108F3
:10DAF0000C01000074A901080F0100007DA90108B4
:10DB0000100C000086A901081F01000000000000A1
:10DB100000000000C084010800010000C584010865
:10DB200001010000CA84010802010000CF8401083D
:10DB300003010000D484010804010000D984010815
:10DB400005010000DE84010806010000E3840108ED
:10DB500007010000E884010808010000ED840108C5
:10DB600009010000F28401080A010000F88401089C
:10DB70000B010000FE8401080C010000048501086F
:10DB80000D0100000A8501080E0100001085010842
:10DB90000F010000168501081001000000000000C0
:10DBA00000000000FE9F01080008000000000000C7
:10DBB00000000000269101080002000037910108D2
:10DBC000020100003D91010803010000439101089A
:10DBD000040300008595010807010000E691010893
:10DBE00008020000F79101080A010000FD910108F8
:10DBF0000B010000039201080C0300008B95010843
:10DC00000F0100004891010810010000089201086E
:10DC1000180100000000000000000000228F010831
:10DC20000010000000000000000000003197010813
:10DC300000020000439701080202000000000000FB
:10DC4000000000005A9201080009000000000000D6
:10DC500000000000877F01080009000000000000AC
:10DC6000000000006EA801080004000071A801086F
:10DC70000402000079A801080601000081A801083B
:10DC80000701000088A801080801000090A8010809
:10DC90000902000098A801080B0100009EA80108D5
:10DCA0000C020000A6A801080E010000AEA80108A1
:10DCB0000F01000000000000000000003982010890
:10DCC000000500003E82010806050000000000007B
:10DCD00000000000AB9D0108000020004038010852
:10DCE00027960108040020008C540108B19D01080A
:10DCF00008002000FC620108B99D01080C0020000A
:10DD000000C90008C19D0108100020003032010840
:10DD1000C99D0108140020000C670108EA8A010867
:10DD200018002000847001080000000000000000BE
:10DD30000000000098A00108000100009DA001085B
:10DD4000010100007CA001080201000081A001087F
:10DD50000801000087A00108090100000000000080
:10DD6000000000005A8401080004000060840108DB
:10DD70000404000066840108080400006D840108A2
:10DD80000C04000074840108100400007B84010866
:10DD9000140400008284010818040000898401082A
:10DDA0001C0400000000000000000000597E010873
:10DDB00000010000607E010801010000657E01088D
:10DDC000030100006C7E010804010000727E01085E
:10DDD00005010000787E0108060100007E7E010832
:10DDE00008010000857E01081E0100008B7E0108ED
:10DDF0001F0100000000000000000000187C010866
:10DE000002010000277C010803010000367C0108A4
:10DE100004010000447C010805010000000000002E
:10DE2000000000000A8F0108001000000000000040
:10DE300000000000A7AA0108000100000000000087
:10DE4000000000007BA60108000100007D91010890
:10DE5000010100008391010805010000BF8F010846
:10DE6000060100002E9401080701000089910108B5
:10DE7000080100008D91010809010000939101083B
:10DE80000D010000999101080E0100000000000042
:10DE9000000000006A8F0108001000007C94010857
:10DEA0001D010000829401081E01000088940108F1
:10DEB0001F0100000000000000000000EE900108BB
:10DEC00000080000A69D010808020000F290010869
:10DED0000A010000F79001080B010000FC90010806
:10DEE0000C010000009101080D01000004910108DF
:10DEF0000E010000089101080F010000DA920108EC
:10DF000010040000CA94010814040000CF94010812
:10DF100018010000D494010819010000000000005D
:10DF200000000000518A010800010000EE83010892
:10DF3000010100004A8A0108020100004E8A01081E
:10DF400004010000548A0108050100005A8A0108F2
:10DF500006010000A69D0108070100005F8A010874
:10DF600009010000668A01080A0100006C8A0108A4
:10DF70000C010000728A01080D0100000000000081
:10DF800000000000009101080020000000000000D7
:10DF900000000000DA89010800010000E1890108A1
:10DFA00001010000ED89010802010000F989010862
:10DFB00008010000008A0108090100000A8A01081E
:10DFC0000A010000158A01080C0100001B8A0108E3
:10DFD0000D010000288A01080E0100003A8A01089C
:10DFE00010080000408A0108180800000000000026
:10DFF000000000006C810108011200000000000018
:10E0000000000000847D010800002000882701082E
:10E010008A7D0108AC012000ACDD0008907D01087C
:10E02000B0012000D8350108967D0108B401200018
:10E03000F02901089D7D0108B8012000E4F60008E0
:10E04000A37D0108BC012000702E01080000000023
:10E05000000000000000000040A0010800010000D6
:10E0600020A001080101000026A001080201000013
:10E070002BA001080303000031A0010806020000E4
:10E0800037A00108080400003DA001080C010000B1
:10E0900044A001080D0100006EA00108100100005D
:10E0A0004EA001081101000054A001081201000057
:10E0B00059A00108130300005FA001081602000028
:10E0C00065A00108180400006BA001081C010000F5
:10E0D00072A001081D010000000000000000000007
:10E0E0008D7F010800080000947F010808080000E7
:10E0F0009B7F010810080000A27F0108180800009B
:10E1000000000000000000000A8F0108001000005D
:10E110000000000000000000A1AC010800040000A5
:10E120005880010804030000BEAC0108070100008C
:10E13000A4AC010808040000A8AC01080C0300000E
:10E14000C3AC01080F010000ACAC010810040000D2
:10E15000AFAC010814020000BC91010816010000D8
:10E16000C8AC0108170100009EAC010818040000AB
:10E170001E9401081C020000CDAC01081E01000025
:10E18000D3AC01081F0100000000000000000000E7
:10E190001B850108000100001F8501080101000026
:10E1A0002385010802010000278501080301000002
:10E1B0002B850108040100002F85010805010000DE
:10E1C00033850108060100003785010807010000BA
:10E1D0003B850108080100003F8501080901000096
:10E1E000438501080A010000488501080B01000071
:10E1F0004D8501080C010000528501080D01000049
:10E20000578501080E0100005C8501080F01000020
:10E21000FE7E010810010000047F010811010000CA
:10E220000A7F010812010000208401081301000088
:10E23000248401081401000028840108150100004D
:10E240002C84010816010000308401081701000029
:10E250003484010818010000388401081901000005
:10E260003C8401081A010000418401081B010000E0
:10E27000468401081C0100004B8401081D010000B8
:10E28000508401081E010000558401081F01000090
:10E2900000000000000000005F9101080001000084
:10E2A0006391010801010000699101080501000066
:10E2B0006F91010806010000739101080701000039
:10E2C0007791010809010000000000000000000033
:10E2D0008BA20108000100008FA2010801010000CB
:10E2E00093A201080201000097A2010803010000A7
:10E2F0009BA20108040100009FA201080501000083
:10E30000A3A2010806010000A7A20108070100005E
:10E31000ABA2010808010000AFA20108090100003A
:10E32000B3A201080A010000B8A201080B01000015
:10E33000BDA201080C010000C2A201080D010000ED
:10E34000C7A201080E010000CCA201080F010000C5
:10E35000D1A2010810010000D6A20108110100009D
:10E36000DBA2010812010000E0A201081301000075
:10E37000E5A2010814010000EAA20108150100004D
:10E38000EFA2010816010000F4A201081701000025
:10E39000F9A2010818010000FEA2010819010000FD
:10E3A00003A301081A01000008A301081B010000D3
:10E3B0000DA301081C01000012A301081D010000AB
:10E3C00017A301081E0100001CA301081F01000083
:10E3D0000000000000000000E9810108000C0000BE
:10E3E000F18101081A050000FC8101081F010000ED
:10E3F00000000000000000007F8C01080001000008
:10E4000045AC010801010000B791010802010000BC
:10E41000BB91010803010000BF9101080701000042
:10E42000C491010808020000C89101080B01000016
:10E430000000000000000000A97F0108002000008B
:10E440000000000000000000D9A901080001000040
:10E45000B98F010801010000BE8F01080201000010
:10E46000C38F010803010000C88F010804010000E8
:10E47000CC8F010805010000D18F010806010000C2
:10E48000D68F010807010000DB8F01080802000099
:10E49000E18F01080A0200009F8901080C020000B8
:10E4A000E78F01080E0100000000000000000000DE
:10E4B0008D7F010800080000947F01080808000013
:10E4C0009B7F010810080000A27F010818080000C7
:10E4D00000000000000000008BA201080001000005
:10E4E0008FA201080101000093A2010802010000AF
:10E4F00097A20108030100009BA20108040100008B
:10E500009FA2010805010000A3A201080601000066
:10E51000A7A2010807010000ABA201080801000042
:10E52000AFA2010809010000B3A201080A0100001E
:10E53000B8A201080B010000BDA201080C010000F7
:10E54000C2A201080D010000C7A201080E010000CF
:10E55000CCA201080F010000D1A2010810010000A7
:10E56000D6A2010811010000DBA20108120100007F
:10E57000E0A2010813010000E5A201081401000057
:10E58000EAA2010815010000EFA20108160100002F
:10E59000F4A2010817010000F9A201081801000007
:10E5A000FEA201081901000003A301081A010000DE
:10E5B00008A301081B0100000DA301081C010000B5
:10E5C00012A301081D01000017A301081E0100008D
:10E5D0001CA301081F010000000000000000000053
:10E5E0008BA20108000100008FA2010801010000B8
:10E5F00093A201080201000097A201080301000094
:10E600009BA20108040100009FA20108050100006F
:10E61000A3A2010806010000A7A20108070100004B
:10E62000ABA2010808010000AFA201080901000027
:10E63000B3A201080A010000B8A201080B01000002
:10E64000BDA201080C010000C2A201080D010000DA
:10E65000C7A201080E010000CCA201080F010000B2
:10E66000D1A2010810010000D6A20108110100008A
:10E67000DBA2010812010000E0A201081301000062
:10E68000E5A2010814010000EAA20108150100003A
:10E69000EFA2010816010000F4A201081701000012
:10E6A000F9A2010818010000FEA2010819010000EA
:10E6B00003A301081A01000008A301081B010000C0
:10E6C0000DA301081C01000012A301081D01000098
:10E6D00017A301081E0100001CA301081F01000070
:10E6E0000000000000000000009101080020000070
:10E6F00000000000000000008BA2010800010000E3
:10E700008FA201080101000093A20108020100008C
:10E7100097A20108030100009BA201080401000068
:10E720009FA2010805010000A3A201080601000044
:10E73000A7A2010807010000ABA201080801000020
:10E74000AFA2010809010000B3A201080A010000FC
:10E75000B8A201080B010000BDA201080C010000D5
:10E76000C2A201080D010000C7A201080E010000AD
:10E77000CCA201080F010000D1A201081001000085
:10E78000D6A2010811010000DBA20108120100005D
:10E79000E0A2010813010000E5A201081401000035
:10E7A000EAA2010815010000EFA20108160100000D
:10E7B000F4A2010817010000F9A2010818010000E5
:10E7C000FEA201081901000003A301081A010000BC
:10E7D00008A301081B0100000DA301081C01000093
:10E7E00012A301081D01000017A301081E0100006B
:10E7F0001CA301081F010000000000000000000031
:10E80000EF8F010800010000F58F010801010000F1
:10E81000FC8F0108020100000390010803010000C1
:10E820000A90010804010000109001080501000091
:10E8300017900108060100001E9001080701000062
:10E8400025900108080100002B9001080901000033
:10E85000329001080A010000399001080B01000004
:10E86000409001080C010000469001080D010000D5
:10E870004D9001080E010000549001080F010000A6
:10E880005B90010810010000619001081101000077
:10E8900068900108120100006F9001081301000048
:10E8A00076900108140100007C9001081501000019
:10E8B00083900108160100008A90010817010000EA
:10E8C00091900108180100009790010819010000BB
:10E8D0009E9001081A010000A59001081B0100008C
:10E8E0000000000000000000269101080002000066
:10E8F0002B9101080202000032910108040400007B
:10E9000000000000000000002C920108000300003D
:10E91000DE95010803010000B9920108040300001C
:10E920003092010807010000E39501080804000087
:10E93000E79501080C020000EC9501080E010000AB
:10E94000099A01080F01000034920108100100002B
:10E950000000000000000000DAA50108000400002B
:10E96000F5A5010808010000E2A50108101000004B
:10E970000000000000000000FD9A010800010000F6
:10E98000059B0108020200000F9B01080403000020
:10E990001A9B010807010000269B010809010000DD
:10E9A000329B01080A040000409B01080F0100008F
:10E9B000499B010810020000539B0108120300004C
:10E9C000629B01081E0100006B9B01081F010000F3
:10E9D0000000000000000000DCA9010800010000A8
:10E9E000E2A9010801070000E8A9010808020000E7
:10E9F000EEA901080A010000F5A901080B010000B9
:10EA0000FBA901080C0100004C8301080D01000066
:10EA1000B17C01080E0100003E9301080F010000C7
:10EA200003AA0108100800000AAA01081801000042
:10EA300011AA01081901000019AA01081A01000011
:10EA400000000000000000007F8C010800010000B1
:10EA500045AC010801010000B79101080201000066
:10EA6000BB91010803010000C88F010804010000E8
:10EA70001A96010805020000BF9101080701000075
:10EA8000C491010808020000C89101080B010000B0
:10EA900000000000000000008BA20108000100003F
:10EAA0008FA201080101000093A2010802010000E9
:10EAB00097A20108030100009BA2010804010000C5
:10EAC0009FA2010805010000A3A2010806010000A1
:10EAD000A7A2010807010000ABA20108080100007D
:10EAE000AFA2010809010000B3A201080A01000059
:10EAF000B8A201080B010000BDA201080C01000032
:10EB0000C2A201080D010000C7A201080E01000009
:10EB1000CCA201080F010000D1A2010810010000E1
:10EB2000D6A2010811010000DBA2010812010000B9
:10EB3000E0A2010813010000E5A201081401000091
:10EB4000EAA2010815010000EFA201081601000069
:10EB5000F4A2010817010000F9A201081801000041
:10EB6000FEA201081901000003A301081A01000018
:10EB700008A301081B0100000DA301081C010000EF
:10EB800012A301081D01000017A301081E010000C7
:10EB90001CA301081F01000000000000000000008D
:10EBA00000910108002000000000000000000000AB
:10EBB00006800108002000000000000000000000A6
:10EBC0008BA20108000100008FA2010801010000D2
:10EBD00093A201080201000097A2010803010000AE
:10EBE0009BA20108040100009FA20108050100008A
:10EBF000A3A2010806010000A7A201080701000066
:10EC0000ABA2010808010000AFA201080901000041
:10EC1000B3A201080A010000B8A201080B0100001C
:10EC2000BDA201080C010000C2A201080D010000F4
:10EC3000C7A201080E010000CCA201080F010000CC
:10EC4000D1A2010810010000D6A2010811010000A4
:10EC5000DBA2010812010000E0A20108130100007C
:10EC6000E5A2010814010000EAA201081501000054
:10EC7000EFA2010816010000F4A20108170100002C
:10EC8000F9A2010818010000FEA201081901000004
:10EC900003A301081A01000008A301081B010000DA
:10ECA0000DA301081C01000012A301081D010000B2
:10ECB00017A301081E0100001CA301081F0100008A
:10ECC00000000000000000008D7F01080008000027
:10ECD000947F0108080800009B7F010810080000CD
:10ECE000A27F0108180800000000000000000000DA
:10ECF0002D8201080010000000000000000000004C
:10ED00008BA20108000100008FA201080101000090
:10ED100093A201080201000097A20108030100006C
:10ED20009BA20108040100009FA201080501000048
:10ED3000A3A2010806010000A7A201080701000024
:10ED4000ABA2010808010000AFA201080901000000
:10ED5000B3A201080A010000B8A201080B010000DB
:10ED6000BDA201080C010000C2A201080D010000B3
:10ED7000C7A201080E010000CCA201080F0100008B
:10ED8000D1A2010810010000D6A201081101000063
:10ED9000DBA2010812010000E0A20108130100003B
:10EDA000E5A2010814010000EAA201081501000013
:10EDB000EFA2010816010000F4A2010817010000EB
:10EDC000F9A2010818010000FEA2010819010000C3
:10EDD00003A301081A01000008A301081B01000099
:10EDE0000DA301081C01000012A301081D01000071
:10EDF00017A301081E0100001CA301081F01000049
:10EE00000000000000000000F98701080000200059
:10EE1000F0FA0008AD90010804002000D820010895
:10EE2000D1870108080020004C730108CA8001083E
:10EE30000C00200070240108D58701081000200074
:10EE4000A8CC0008DB870108180020009CD300082C
:10EE5000E2870108200020008C4D0108E8870108A6
:10EE60002800200018250108EE8701083000200046
:10EE700034D60008F5870108340020007404010826
:10EE8000FC87010838002000482D0108038801088C
:10EE90003C002000CC7001080A88010840002000D6
:10EEA000947501081188010844002000A40101089C
:10EEB0001888010848002000F02F01081F88010869
:10EEC0004C002000EC620108268801085000200058
:10EED000ECBF00080000000000000000000000007F
:10EEE000CA80010800002000A4D70008AD900108E6
:10EEF0000400200024D20008F9870108080020003F
:10EF0000047A0108359601080C00200064D5000839
:10EF1000CE80010814002000C0230108D48001081D
:10EF200018002000B46F0108128F01082000200093
:10EF3000C02201082A8F0108240020004C6F01081C
:10EF4000428F01082800200090350108DA8001086E
:10EF5000300020008CD90008DF8001083400200038
:10EF6000A01E0108E4800108380020000472010896
:10EF7000E98001083C002000BCDC0008DB7F0108C0
:10EF800040002000F0EC0008EE8001084C0020005A
:10EF90003C6C0108F380010860002000D8E3000801
:10EFA000F880010864002000203A0108FD80010873
:10EFB000680020000CAE0108028101086C002000EE
:10EFC0005400010807810108800020009C4A0108C4
:10EFD0000C81010884002000DC7501081181010802
:10EFE00088002000B8FB0008168101088C00200072
:10EFF0003C4F01081B810108A0002000F4DF00083D
:10F0000022810108A4002000646F01082981010801
:10F01000B00020009CB2010830810108B40020003B
:10F020006C720108000000000000000000000000F9
:10F030009D91010800010000A29101080201000059
:10F04000A791010803010000AC910108080100002C
:10F05000B19101080901000000000000000000005B
:10F06000F98701080000200048CC0008F18701085A
:10F070000400200034DD0008000000000000000053
:10F0800000000000D3900108001000000000000004
:10F09000000000009898010800010000128F01088C
:10F0A000010100002A8F010802010000428F0108BF
:10F0B000030100005A8F010804010000728F01084B
:10F0C000050100008A8F010806010000A28F0108D7
:10F0D000070100009C98010808010000A0980108A1
:10F0E00009010000A49801080A010000A99801087C
:10F0F0000B010000AE9801080C010000B398010854
:10F100000D010000B89801080E010000BD9801082B
:10F110000F010000C298010810010000C798010803
:10F1200011010000CC98010812010000D1980108DB
:10F1300013010000D698010814010000DB980108B3
:10F1400015010000E098010816010000E59801088B
:10F150001D010000EA9801081E010000EF98010857
:10F160001F0100000000000000000000838C010867
:10F17000000100008C8C01080B010000938C010839
:10F180000C0100009A8C01080D010000A18C0108FF
:10F190000E010000AA8C010810010000B28C0108C9
:10F1A00011010000BA8C01081201000000000000EB
:10F1B000000000008D7F010800080000947F010816
:10F1C000080800009B7F010810080000A27F0108CA
:10F1D0001808000000000000000000008DA90108D0
:10F1E0000008000092A901080808000097A901087A
:10F1F000100400009EA9010814040000A5A901083C
:10F200001C040000000000000000000051AC0108D8
:10F2100000010000E693010801010000C892010806
:10F22000020100007FAD010803010000EB9301081B
:10F2300004010000F293010805010000B98F0108E4
:10F2400006010000F993010807010000FF9301087F
:10F2500008010000E9950108090100000494010873
:10F260000A010000089401080B0100004691010802
:10F270000C0100000D9401080D010000119401081B
:10F280000E010000169401080F0100001C940108F3
:10F2900010050000219401081505000026940108BE
:10F2A0001A0100002C9401081B010000000000005E
:10F2B000000000008BA20108000100008FA20108DD
:10F2C0000101000093A201080201000097A20108B9
:10F2D000030100009BA20108040100009FA2010895
:10F2E00005010000A3A2010806010000A7A2010871
:10F2F00007010000ABA2010808010000AFA201084D
:10F3000009010000B3A201080A010000B8A2010827
:10F310000B010000BDA201080C010000C2A20108FF
:10F320000D010000C7A201080E010000CCA20108D7
:10F330000F010000D1A2010810010000D6A20108AF
:10F3400011010000DBA2010812010000E0A2010887
:10F3500013010000E5A2010814010000EAA201085F
:10F3600015010000EFA2010816010000F4A2010837
:10F3700017010000F9A2010818010000FEA201080F
:10F380001901000003A301081A01000008A30108E5
:10F390001B0100000DA301081C01000012A30108BD
:10F3A0001D01000017A301081E0100001CA3010895
:10F3B0001F0100000000000000000000A18B0108F8
:10F3C00000010000A78B010801010000AE8B0108BD
:10F3D00018010000B38B010819010000BB8B010864
:10F3E0001A010000C38B01081B010000CB8B010830
:10F3F0001C010000D38B01081D010000DC8B0108FB
:10F400001E010000E58B01081F0100000000000044
:10F41000000000001B850108000100001F85010895
:10F420000101000023850108020100002785010871
:10F43000030100002B850108040100002F8501084D
:10F440000501000033850108060100003785010829
:10F45000070100003B850108080100003F85010805
:10F4600009010000438501080A01000048850108E0
:10F470000B0100004D8501080C01000052850108B8
:10F480000D010000578501080E0100005C85010890
:10F490000F010000FE7E010810010000047F01083A
:10F4A000110100000A7F01081201000020840108F8
:10F4B00013010000248401081401000028840108BD
:10F4C000150100002C840108160100003084010899
:10F4D0001701000034840108180100003884010875
:10F4E000190100003C8401081A0100004184010850
:10F4F0001B010000468401081C0100004B84010828
:10F500001D010000508401081E01000055840108FF
:10F510001F0100000000000000000000F97B01084E
:10F5200000100000FE7B0108101000000000000029
:10F5300000000000A97F010800200000000000007A
:10F54000000000004F9101080001000052910108E5
:10F55000010100000F9201080201000091950108CD
:10F56000030100009695010804010000EF900108D6
:10F570000601000000000000000000006B89010887
:10F58000000100002E9301080101000033930108DF
:10F590000201000038930108030100003E930108B6
:10F5A000040100001683010805010000DC90010839
:10F5B0000601000043930108070100004893010879
:10F5C000080100004D930108090100005293010851
:10F5D0000A010000589301080B0100005F93010825
:10F5E0000C010000669301080D0100006B930108F7
:10F5F0000E0100006F9301080F01000073930108D2
:10F60000110300007B930108140200007F9301089E
:10F610001601000000000000000000007BA60108A9
:10F62000000100007D910108010100002092010805
:10F6300002010000C695010803010000CC950108F5
:10F6400004010000BF8F0108060100008991010834
:10F65000080100008D9101080901000026920108AF
:10F660000A010000D29501080B010000D89501089D
:10F670000C010000999101080E010000000000003B
:10F68000000000002BA701080001000030A70108BE
:10F690000101000035A70108020100003AA7010896
:10F6A000030100003FA701080401000045A701086D
:10F6B0000801000049A70108090100004DA7010841
:10F6C0000A010000ED9601080B0100000000000097
:10F6D00000000000FE9F0108040C00000000000074
:10F6E00000000000D27D010800040000D97D01085F
:10F6F00004040000EA7D010808040000FB7D010805
:10F700000C040000117E010810040000187E01089E
:10F7100014040000247E010818040000327E010851
:10F720001C04000000000000000000009B93010882
:10F73000000100007A89010801010000F896010823
:10F7400002010000D0AA010803030000FD96010891
:10F75000060100000197010807010000F39001086D
:10F76000080100000A970108090100000E9701082E
:10F770000A010000159701080B0100001997010804
:10F780000C010000D88C01080D0100002197010830
:10F790000E010000289701080F0100000000000082
:10F7A00000000000559701080000200094D20008D6
:10F7B0005A970108040020007CC200085F970108E6
:10F7C0000800200094F00008659701080C00200054
:10F7D000301B01086B970108100020006CAF010876
:10F7E000F27E01081400200074630108729701087A
:10F7F00018002000543F0108779701081C002000E2
:10F800003C1101087C9701082000200060270108B6
:10F810008297010824002000B4700108889701082D
:10F82000280020003C020108F87E01082C0020007E
:10F830008026010800000000000000000000000019
:10F84000E0A7010800010000E3A901080101000090
:10F85000E4A7010802010000E9A701080301000074
:10F86000E193010804010000EEA701080501000072
:10F87000F3A70108060100005489010807010000F0
:10F8800000000000000000000091010800200000BE
:10F8900000000000000000008BA201080001000031
:10F8A0008FA201080101000093A2010802010000DB
:10F8B00097A20108030100009BA2010804010000B7
:10F8C0009FA2010805010000A3A201080601000093
:10F8D000A7A2010807010000ABA20108080100006F
:10F8E000AFA2010809010000B3A201080A0100004B
:10F8F000B8A201080B010000BDA201080C01000024
:10F90000C2A201080D010000C7A201080E010000FB
:10F91000CCA201080F010000D1A2010810010000D3
:10F92000D6A2010811010000DBA2010812010000AB
:10F93000E0A2010813010000E5A201081401000083
:10F94000EAA2010815010000EFA20108160100005B
:10F95000F4A2010817010000F9A201081801000033
:10F96000FEA201081901000003A301081A0100000A
:10F9700008A301081B0100000DA301081C010000E1
:10F9800012A301081D01000017A301081E010000B9
:10F990001CA301081F01000000000000000000007F
:10F9A000528F01080010000000000000000000005D
:10F9B0006EA801080004000071A8010804020000FC
:10F9C00079A801080601000081A8010807010000CC
:10F9D00088A801080801000090A801080902000099
:10F9E00098A801080B0100009EA801080C02000065
:10F9F000A6A801080E010000AEA801080F01000032
:10FA000000000000000000007793010800100000D3
:10FA1000FDAD01081F010000000000000000000013
:10FA2000DCAC0108000F0000E5AC01081007000085
:10FA300000000000000000005F91010800010000CC
:10FA40006391010801010000149201080201000005
:10FA50009F95010803010000A5950108040100001D
:10FA600069910108050100006F910108060100007D
:10FA70007391010807010000AB950108080100001F
:10FA800077910108090100001A9201080A0100009B
:10FA9000B09501080B010000B69501080C010000AB
:10FAA000BC95010810010000C1950108110100007A
:10FAB0000000000000000000B28F010800200000DC
:10FAC00000000000000000008D7F01080008000019
:10FAD000947F0108080800009B7F010810080000BF
:10FAE000A27F0108180800000000000000000000CC
:10FAF0006F890108000100004C830108010100002A
:10FB000074890108020100007789010803010000DF
:10FB10007F890108040100008589010805030000B0
:10FB2000898901080C0300008F8901080F0100007A
:10FB3000958901081001000099890108110700004A
:10FB40009D89010818040000A28901081C04000016
:10FB50000000000000000000A49201080001000065
:10FB6000A9920108010100009A9601080201000013
:10FB7000A196010803010000A596010804010000F8
:10FB8000AC9601080501000021A80108060100004B
:10FB9000808A010807010000B196010808010000F1
:10FBA000B896010809020000BE9601080B02000089
:10FBB00000000000000000007A8101080010000031
:10FBC0000000000000000000CE7F010800040000DB
:10FBD000000000000000000000910108002000006B
:10FBE000000000000000000000910108002000005B
:10FBF0000000000000000000ABA9010801070000A0
:10FC0000AFA9010808030000B6A901080F01000010
:10FC10000000000000000000B58F01080010000087
:10FC20000000000000000000C5A001080000200046
:10FC300048300108DB7F01080400200080370108FC
:10FC4000F9870108080020006C4C0108CA800108EF
:10FC50000C00200044C50008BBAA010810002000C9
:10FC600020FA0008C0AA0108140020000CD70008E0
:10FC7000C5AA01081C00200018E10008CCAA010850
:10FC800020002000C0210108D3AA01082400200080
:10FC9000C4130108FEAA010828002000847201088C
:10FCA000D7AA01082C002000A4C00008DEAA010881
:10FCB00030002000181C0108E3AA010834002000CD
:10FCC000C4C10008E8AA010838002000A82A0108D9
:10FCD000EEAA01083C00200080C80008F3AA010831
:10FCE000400020008C080108F9AA01084400200007
:10FCF000C05F010802AB010848002000505601080F
:10FD00000BAB010850002000E8E6000811AB010829
:10FD100054002000282A010817AB010858002000D1
:10FD2000C43E01081DAB01085C002000C857010853
:10FD300023AB0108600020007C08010829AB010802
:10FD400064002000E4AE01082FAB01086800200029
:10FD5000D0CB000835AB01086C00200014D8000897
:10FD60003BAB01087000200088F8000841AB010897
:10FD700074002000D464010847AB0108780020001B
:10FD8000A0EB00084EAB01087C002000782701089A
:10FD900055AB010880002000E46501085CAB010858
:10FDA0008400200010D0000863AB01088800200008
:10FDB0008C0B01086AAB01088C002000244A010862
:10FDC00071AB01089000200070C8000878AB0108F2
:10FDD00094002000741401087FAB010898002000F3
:10FDE000382A010886AB01089C002000346701080E
:10FDF0008DAB0108A0002000E81D010894AB0108AC
:10FE0000A4002000285801089BAB0108A80020008E
:10FE1000F4C10008A2AB0108AC002000E8FB000818
:10FE2000A9AB0108B0002000F4710108B0AB0108D3
:10FE3000B400200034720108B7AB0108B8002000FC
:10FE400084DF0008BEAB0108BC002000D4C5000858
:10FE5000C5AB0108C0002000E0590108CCAB010887
:10FE6000C4002000ECB00108D3AB0108C80020009A
:10FE7000D8FB0008DAAB0108CC002000DCB0010898
:10FE80000000000000000000000000008BA201083C
:10FE9000000100008FA201080101000093A20108E7
:10FEA0000201000097A20108030100009BA20108C3
:10FEB000040100009FA2010805010000A3A201089F
:10FEC00006010000A7A2010807010000ABA201087B
:10FED00008010000AFA2010809010000B3A2010857
:10FEE0000A010000B8A201080B010000BDA2010830
:10FEF0000C010000C2A201080D010000C7A2010808
:10FF00000E010000CCA201080F010000D1A20108DF
:10FF100010010000D6A2010811010000DBA20108B7
:10FF200012010000E0A2010813010000E5A201088F
:10FF300014010000EAA2010815010000EFA2010867
:10FF400016010000F4A2010817010000F9A201083F
:10FF500018010000FEA201081901000003A3010816
:10FF60001A01000008A301081B0100000DA30108ED
:10FF70001C01000012A301081D01000017A30108C5
:10FF80001E0100001CA301081F010000000000006A
:10FF900000000000B87F0108002000000000000001
:10FFA00000000000B28F01080020000000000000E7
:10FFB00000000000B2AD010800100000B8AD01085B
:10FFC000101000000000000000000000B7850108CC
:10FFD00000010000BC85010801010000C185010885
:10FFE00002010000C685010803010000CB8501085D
:10FFF00004010000D085010805010000D585010835
:020000040801F1
:1000000006010000DA85010807010000DF8501080C
:1000100008010000E485010809010000E9850108E4
:100020000A010000EF8501080B010000F5850108B9
:100030000C010000FB8501080D010000018601088C
:100040000E010000078601080F01000000000000FB
:10005000000000008F810108000C0000978101085A
:100060001A050000A28101081F0100000000000025
:1000700000000000E7A50108010100009D960108AD
:1000800002010000EBA5010803120000F0A5010821
:10009000150B000000000000000000008BA201080A
:1000A000000100008FA201080101000093A20108D5
:1000B0000201000097A20108030100009BA20108B1
:1000C000040100009FA2010805010000A3A201088D
:1000D00006010000A7A2010807010000ABA2010869
:1000E00008010000AFA2010809010000B3A2010845
:1000F0000A010000B8A201080B010000BDA201081E
:100100000C010000C2A201080D010000C7A20108F5
:100110000E010000CCA201080F010000D1A20108CD
:1001200010010000D6A2010811010000DBA20108A5
:1001300012010000E0A2010813010000E5A201087D
:1001400014010000EAA2010815010000EFA2010855
:1001500016010000F4A2010817010000F9A201082D
:1001600018010000FEA201081901000003A3010804
:100170001A01000008A301081B0100000DA30108DB
:100180001C01000012A301081D01000017A30108B3
:100190001E0100001CA301081F0100000000000058
:1001A0000000000077930108000E0000000000002E
:1001B00000000000EC9F0108000C0000000000009F
:1001C00000000000D9A9010800010000B98F010852
:1001D00001010000BE8F010802010000C38F010869
:1001E00003010000C88F010804010000CC8F010842
:1001F00005010000D18F010806010000D68F01081B
:1002000007010000DB8F010808020000E18F0108F0
:100210000A0200009F8901080C020000E78F010814
:100220000E0100000000000000000000B58F010872
:100230000010000000000000000000009997010875
:1002400000010000A197010801010000000000006A
:10025000000000007481010800080000C2A5010828
:1002600008080000C8A5010810080000CEA5010874
:100270001808000000000000000000002E91010896
:10028000001000000000000000000000B3A60108FC
:1002900000010000B9A6010801010000BFA6010885
:1002A00002010000C5A6010803010000CBA6010859
:1002B00007010000D1A6010808010000D7A6010827
:1002C00009010000DDA601080A010000E3A60108FB
:1002D0000B010000E9A601080F010000EFA60108CC
:1002E00010010000F5A6010811010000FBA601089D
:1002F0001201000001A701081301000007A701086F
:100300001701000060A90108180200000DA70108EC
:100310001A01000012A701081B01000017A701081D
:100320001C0100001CA701081D01000021A70108F5
:100330001E01000026A701081F01000000000000A8
:1003400000000000D4A50108000800008981010810
:100350000808000082810108100800007B81010864
:100360001808000000000000000000008BA2010837
:10037000000100008FA201080101000093A2010802
:100380000201000097A20108030100009BA20108DE
:10039000040100009FA2010805010000A3A20108BA
:1003A00006010000A7A2010807010000ABA2010896
:1003B00008010000AFA2010809010000B3A2010872
:1003C0000A010000B8A201080B010000BDA201084B
:1003D0000C010000C2A201080D010000C7A2010823
:1003E0000E010000CCA201080F010000D1A20108FB
:1003F00010010000D6A2010811010000DBA20108D3
:1004000012010000E0A2010813010000E5A20108AA
:1004100014010000EAA2010815010000EFA2010882
:1004200016010000F4A2010817010000F9A201085A
:1004300018010000FEA201081901000003A3010831
:100440001A01000008A301081B0100000DA3010808
:100450001C01000012A301081D01000017A30108E0
:100460001E0100001CA301081F0100000000000085
:100470000000000077930108000E0000000000005B
:10048000000000008BA20108000100008FA20108FB
:100490000101000093A201080201000097A20108D7
:1004A000030100009BA20108040100009FA20108B3
:1004B00005010000A3A2010806010000A7A201088F
:1004C00007010000ABA2010808010000AFA201086B
:1004D00009010000B3A201080A010000B8A2010846
:1004E0000B010000BDA201080C010000C2A201081E
:1004F0000D010000C7A201080E010000CCA20108F6
:100500000F010000D1A2010810010000D6A20108CD
:1005100011010000DBA2010812010000E0A20108A5
:1005200013010000E5A2010814010000EAA201087D
:1005300015010000EFA2010816010000F4A2010855
:1005400017010000F9A2010818010000FEA201082D
:100550001901000003A301081A01000008A3010803
:100560001B0100000DA301081C01000012A30108DB
:100570001D01000017A301081E0100001CA30108B3
:100580001F01000000000000000000003A92010876
:100590000403000000000000000000008BA201081E
:1005A000000100008FA201080101000093A20108D0
:1005B0000201000097A20108030100009BA20108AC
:1005C000040100009FA2010805010000A3A2010888
:1005D00006010000A7A2010807010000ABA2010864
:1005E00008010000AFA2010809010000B3A2010840
:1005F0000A010000B8A201080B010000BDA2010819
:100600000C010000C2A201080D010000C7A20108F0
:100610000E010000CCA201080F010000D1A20108C8
:1006200010010000D6A2010811010000DBA20108A0
:1006300012010000E0A2010813010000E5A2010878
:1006400014010000EAA2010815010000EFA2010850
:1006500016010000F4A2010817010000F9A2010828
:1006600018010000FEA201081901000003A30108FF
:100670001A01000008A301081B0100000DA30108D6
:100680001C01000012A301081D01000017A30108AE
:100690001E0100001CA301081F0100000000000053
:1006A00000000000D4A501080008000089810108AD
:1006B0000808000082810108100800007B81010801
:1006C0001808000000000000000000000B8F010867
:1006D000000020000CF20008238F01080400200015
:1006E000D03A01083B8F0108080020007CF5000883
:1006F0001C8401080C002000C4B0010848920108C5
:1007000010002000B8C900084D9201081400200014
:10071000CC6501085292010818002000144D010810
:10072000CA8001081C0020002CAE0108D1870108F6
:10073000200020003C0A01085692010824002000F5
:10074000B45101085A9201082800200044DC000836
:1007500000000000000000000000000010A00108E0
:100760000001000018A001080101000000000000C5
:10077000000000008BA20108000100008FA2010808
:100780000101000093A201080201000097A20108E4
:10079000030100009BA20108040100009FA20108C0
:1007A00005010000A3A2010806010000A7A201089C
:1007B00007010000ABA2010808010000AFA2010878
:1007C00009010000B3A201080A010000B8A2010853
:1007D0000B010000BDA201080C010000C2A201082B
:1007E0000D010000C7A201080E010000CCA2010803
:1007F0000F010000D1A2010810010000D6A20108DB
:1008000011010000DBA2010812010000E0A20108B2
:1008100013010000E5A2010814010000EAA201088A
:1008200015010000EFA2010816010000F4A2010862
:1008300017010000F9A2010818010000FEA201083A
:100840001901000003A301081A01000008A3010810
:100850001B0100000DA301081C01000012A30108E8
:100860001D01000017A301081E0100001CA30108C0
:100870001F010000000000000000000000910108BE
:10088000002000000000000000000000E8AB0108AC
:1008900000010000EFAB010801010000F8AB010806
:1008A00002010000FFAB01080301000006AC0108D3
:1008B000040100000FAC01080501000016AC01089E
:1008C000060100001FAC01080701000026AC01086A
:1008D000080300002FAC01080B02000037AC010830
:1008E0000D02000040AC01080F0100004AAC0108F5
:1008F0001201000054AC0108130100005DAC0108B6
:100900001401000067AC01081501000070AC01087B
:10091000160100007AAC0108170100000000000079
:1009200000000000D390010800100000000000004B
:10093000000000008BA20108000100008FA2010846
:100940000101000093A201080201000097A2010822
:10095000030100009BA20108040100009FA20108FE
:1009600005010000A3A2010806010000A7A20108DA
:1009700007010000ABA2010808010000AFA20108B6
:1009800009010000B3A201080A010000B8A2010891
:100990000B010000BDA201080C010000C2A2010869
:1009A0000D010000C7A201080E010000CCA2010841
:1009B0000F010000D1A2010810010000D6A2010819
:1009C00011010000DBA2010812010000E0A20108F1
:1009D00013010000E5A2010814010000EAA20108C9
:1009E00015010000EFA2010816010000F4A20108A1
:1009F00017010000F9A2010818010000FEA2010879
:100A00001901000003A301081A01000008A301084E
:100A10001B0100000DA301081C01000012A3010826
:100A20001D01000017A301081E0100001CA30108FE
:100A30001F01000000000000000000005E9201089D
:100A400000010000639201080101000068920108A2
:100A5000020100006C92010803010000729201087B
:100A60000401000079920108060100007E9201084D
:100A70000801000084920108090100008A9201081F
:100A80000B010000909201080C01000096920108F1
:100A9000110100009B9201081401000000000000F9
:100AA000000000008D7F010800080000947F01080D
:100AB000080800009B7F010810080000A27F0108C1
:100AC0001808000000000000000000002691010846
:100AD000000200002B91010802020000329101087F
:100AE00004040000E691010808020000EB910108EF
:100AF0000A020000F29101080C040000000000004E
:100B00000000000007A00108000C00000000000029
:100B100000000000C696010800010000C28C010818
:100B200001010000C98C010802010000D08C0108FD
:100B300004010000D88C010806010000DE8C0108C9
:100B400011010000E58C010812010000EC8C010885
:100B500013010000F38C010814010000FA8C010855
:100B600015010000018D010816010000088D010823
:100B7000180100000E8D01081C010000168D0108EF
:100B80001D010000000000000000000000910108AD
:100B90000020000000000000000000008BA20108FF
:100BA000000100008FA201080101000093A20108CA
:100BB0000201000097A20108030100009BA20108A6
:100BC000040100009FA2010805010000A3A2010882
:100BD00006010000A7A2010807010000ABA201085E
:100BE00008010000AFA2010809010000B3A201083A
:100BF0000A010000B8A201080B010000BDA2010813
:100C00000C010000C2A201080D010000C7A20108EA
:100C10000E010000CCA201080F010000D1A20108C2
:100C200010010000D6A2010811010000DBA201089A
:100C300012010000E0A2010813010000E5A2010872
:100C400014010000EAA2010815010000EFA201084A
:100C500016010000F4A2010817010000F9A2010822
:100C600018010000FEA201081901000003A30108F9
:100C70001A01000008A301081B0100000DA30108D0
:100C80001C01000012A301081D01000017A30108A8
:100C90001E0100001CA301081F010000000000004D
:100CA000000000008BA20108000100008FA20108D3
:100CB0000101000093A201080201000097A20108AF
:100CC000030100009BA20108040100009FA201088B
:100CD00005010000A3A2010806010000A7A2010867
:100CE00007010000ABA2010808010000AFA2010843
:100CF00009010000B3A201080A010000B8A201081E
:100D00000B010000BDA201080C010000C2A20108F5
:100D10000D010000C7A201080E010000CCA20108CD
:100D20000F010000D1A2010810010000D6A20108A5
:100D300011010000DBA2010812010000E0A201087D
:100D400013010000E5A2010814010000EAA2010855
:100D500015010000EFA2010816010000F4A201082D
:100D600017010000F9A2010818010000FEA2010805
:100D70001901000003A301081A01000008A30108DB
:100D80001B0100000DA301081C01000012A30108B3
:100D90001D01000017A301081E0100001CA301088B
:100DA0001F01000000000000000000005F9101082A
:100DB000000100000000000000000000F78D0108A5
:100DC00000010000FF8D010801010000078E0108ED
:100DD000020100000F8E010803010000178E0108B8
:100DE000040100001F8E010807010000248E010885
:100DF000080100002D8E010809010000368E01084F
:100E00000A0100003F8E01080B010000488E010816
:100E10000C010000518E010810010000598E0108DC
:100E200011010000618E010812010000698E0108A5
:100E300013010000718E010814010000798E010871
:100E4000170100000000000000000000748101088C
:100E500000080000C2A5010808080000C8A5010894
:100E600010080000CEA501081808000000000000CE
:100E7000000000008D7F010800080000947F010839
:100E8000080800009B7F010810080000A27F0108ED
:100E90001808000000000000000000001091010888
:100EA0000001000015910108010100001A910108DC
:100EB000020100002091010803010000D691010801
:100EC00004010000DB91010805010000D99401082C
:100ED00006010000E091010807010000DF9401080D
:100EE00008010000E494010809010000E9940108E8
:100EF0000A010000EF9401080B010000F5940108BD
:100F00000C010000FA9401080D010000FF94010893
:100F10000F01000005950108100100000A95010865
:100F2000110100000F95010814010000149501083B
:100F3000150100000000000000000000DBA3010814
:100F400000010000E0A3010801010000E5A3010881
:100F500002010000EAA3010803010000EFA3010859
:100F600004010000F4A3010805010000F9A3010831
:100F700006010000FEA301080701000003A4010808
:100F80000801000008A40108090100000DA40108DF
:100F90000A01000013A401080B01000019A40108B4
:100FA0000C0100001FA401080D01000025A4010888
:100FB0000E0100002BA401080F01000031A401085C
:100FC0001001000037A40108110100003DA4010830
:100FD0001201000043A401081301000049A4010804
:100FE000140100004FA401081501000055A40108D8
:100FF000160100005BA401081701000061A40108AC
:101000001801000067A40108190100006DA401087F
:101010001A01000073A401081B0100000000000079
:10102000000000000B8F010800002000746F010811
:10103000238F01080400200030F00008AC90010864
:101040000C002000E8350108F2870108100020009C
:1010500080C90008B19001081400200004D60008DF
:10106000B59001081800200000D10008C2900108C6
:101070001800200000340108CE9001082000200054
:101080006C7501087793010824002000D41301082F
:101090002E91010828002000F0590108D390010882
:1010A0002C002000240901082796010830002000A8
:1010B0006CC200080A8F01083400200030260108A5
:1010C000D790010844002000F4C50008DE8A01081A
:1010D0004800200038580108DC9001084C0020002E
:1010E0003463010800000000000000000000000060
:1010F000E190010800100000000000000000000066
:10110000037C010800002000D01D0108F9870108B8
:1011100004002000A82001080A7C01080800200023
:101120009C770108117C01080C002000FCDD000800
:10113000000000000000000000000000B39701085C
:1011400000010000B897010801010000BD970108E7
:1011500002010000C2970108030100000000000026
:10116000000000002C92010800030000DE95010839
:1011700003010000B9920108040300003092010845
:1011800007010000E395010808040000E795010845
:101190000C020000EC9501080E010000099A0108FC
:1011A0000F010000F0950108100100000000000090
:1011B000000000008BA20108000100008FA20108BE
:1011C0000101000093A201080201000097A201089A
:1011D000030100009BA20108040100009FA2010876
:1011E00005010000A3A2010806010000A7A2010852
:1011F00007010000ABA2010808010000AFA201082E
:1012000009010000B3A201080A010000B8A2010808
:101210000B010000BDA201080C010000C2A20108E0
:101220000D010000C7A201080E010000CCA20108B8
:101230000F010000D1A2010810010000D6A2010890
:1012400011010000DBA2010812010000E0A2010868
:1012500013010000E5A2010814010000EAA2010840
:1012600015010000EFA2010816010000F4A2010818
:1012700017010000F9A2010818010000FEA20108F0
:101280001901000003A301081A01000008A30108C6
:101290001B0100000DA301081C01000012A301089E
:1012A0001D01000017A301081E0100001CA3010876
:1012B0001F010000000000000000000092960108DD
:1012C000001000000000000000000000E69001088F
:1012D00000050000EA900108080500000000000079
:1012E00000000000F27F010800050000F77F010800
:1012F00008040000FD7F01080D01000004800108C2
:101300000E02000009800108100200001080010890
:101310001601000017800108170100001C80010859
:1013200018010000000000000000000010910108FA
:101330000001000015910108010100001A91010847
:10134000020100002091010803010000D69101086C
:1013500004010000DB91010805010000E091010893
:101360000701000000000000000000003D9D010892
:1013700000010000459D010801010000539D010886
:10138000020200005D9D010804030000689D010841
:101390000A040000769D01080F0100007F9D0108EE
:1013A00010020000899D010812030000989D0108A9
:1013B0001E010000A19D01081F01000000000000A7
:1013C000000000009FAA01080008000000000000C3
:1013D000000000007793010800100000FDAD010837
:1013E0001F0100000000000000000000FE7E010858
:1013F00000010000047F0108010100000A7F0108CC
:101400000201000020840108030100002484010877
:101410000401000028840108050100002C84010853
:10142000060100003084010807010000348401082F
:101430000801000038840108090100003C8401080B
:101440000A010000418401080B01000046840108E4
:101450000C0100004B8401080D01000050840108BC
:101460000E010000558401080F010000000000007B
:1014700000000000009101080020000000000000B2
:10148000000000008BA20108000100008FA20108EB
:101490000101000093A201080201000097A20108C7
:1014A000030100009BA20108040100009FA20108A3
:1014B00005010000A3A2010806010000A7A201087F
:1014C00007010000ABA2010808010000AFA201085B
:1014D00009010000B3A201080A010000B8A2010836
:1014E0000B010000BDA201080C010000C2A201080E
:1014F0000D010000C7A201080E010000CCA20108E6
:101500000F010000D1A2010810010000D6A20108BD
:1015100011010000DBA2010812010000E0A2010895
:1015200013010000E5A2010814010000EAA201086D
:1015300015010000EFA2010816010000F4A2010845
:1015400017010000F9A2010818010000FEA201081D
:101550001901000003A301081A01000008A30108F3
:101560001B0100000DA301081C01000012A30108CB
:101570001D01000017A301081E0100001CA30108A3
:101580001F01000000000000000000005B87010850
:10159000000200006287010802020000698701085A
:1015A0000402000070870108060200007787010826
:1015B000080200007E8701080A02000085870108F2
:1015C0000C0200008C8701080E02000093870108BE
:1015D000100200009A87010812020000A18701088A
:1015E00014020000A987010816020000B187010853
:1015F00018020000B98701081A020000C18701081B
:101600001C020000C98701081E0200000000000043
:1016100000000000AA99010800010000B399010828
:1016200001010000BC99010802020000C3990108F1
:1016300005020000CA99010807010000D1990108BC
:1016400008010000D999010809020000E199010888
:101650000B010000E79901080C020000EE99010857
:101660000E040000F799010812010000019A010818
:10167000130500000D9A010818050000199A0108C9
:101680001D010000209A01081E010000A69D01080E
:101690001F0100000000000000000000B7850108E5
:1016A00000010000BC85010801010000C18501089E
:1016B00002010000C685010803010000CB85010876
:1016C00004010000D085010805010000D58501084E
:1016D00006010000DA85010807010000DF85010826
:1016E00008010000E485010809010000E9850108FE
:1016F0000A010000EF8501080B010000F5850108D3
:101700000C010000FB8501080D01000001860108A5
:101710000E010000078601080F0100000000000014
:10172000000000008BA20108000100008FA2010848
:101730000101000093A201080201000097A2010824
:10174000030100009BA20108040100009FA2010800
:1017500005010000A3A2010806010000A7A20108DC
:1017600007010000ABA2010808010000AFA20108B8
:1017700009010000B3A201080A010000B8A2010893
:101780000B010000BDA201080C010000C2A201086B
:101790000D010000C7A201080E010000CCA2010843
:1017A0000F010000D1A2010810010000D6A201081B
:1017B00011010000DBA2010812010000E0A20108F3
:1017C00013010000E5A2010814010000EAA20108CB
:1017D00015010000EFA2010816010000F4A20108A3
:1017E00017010000F9A2010818010000FEA201087B
:1017F0001901000003A301081A01000008A3010851
:101800001B0100000DA301081C01000012A3010828
:101810001D01000017A301081E0100001CA3010800
:101820001F01000000000000000000002C920108D1
:1018300000030000B992010804030000309201087F
:1018400007010000349201081001000000000000B0
:1018500000000000A99201080001000031A9010860
:1018600001010000A492010802010000D4A70108B0
:101870000301000036A90108040100003CA9010889
:10188000050100009E7A01080601000042A9010836
:101890000701000046A90108080100004BA9010842
:1018A0000901000021A801080A01000050A901084F
:1018B0000B010000197D01080C01000057A9010867
:1018C0000D010000D09201080F010000C88F01082F
:1018D000100100005DA901081107000000000000D0
:1018E000000000008BA20108000100008FA2010887
:1018F0000101000093A201080201000097A2010863
:10190000030100009BA20108040100009FA201083E
:1019100005010000A3A2010806010000A7A201081A
:1019200007010000ABA2010808010000AFA20108F6
:1019300009010000B3A201080A010000B8A20108D1
:101940000B010000BDA201080C010000C2A20108A9
:101950000D010000C7A201080E010000CCA2010881
:101960000F010000D1A2010810010000D6A2010859
:1019700011010000DBA2010812010000E0A2010831
:1019800013010000E5A2010814010000EAA2010809
:1019900015010000EFA2010816010000F4A20108E1
:1019A00017010000F9A2010818010000FEA20108B9
:1019B0001901000003A301081A01000008A301088F
:1019C0001B0100000DA301081C01000012A3010867
:1019D0001D01000017A301081E0100001CA301083F
:1019E0001F01000000000000000000000B8F010834
:1019F00000002000D8570108238F010804002000B0
:101A0000E4D40008D1910108080020006411010805
:101A1000AC9001080C002000EC540108F28701088A
:101A200010002000E8B40108B19001081400200063
:101A300070B40108B5900108180020007450010826
:101A4000C29001081800200044C600083294010822
:101A50001C00200044B001083E9401081C00200036
:101A600020340108CE900108200020009C0E0108BF
:101A7000779301082400200008FA00082E9101083D
:101A800028002000AC3D0108D39001082C00200064
:101A900084F00008279601083000200064730108D4
:101AA0000A8F01083400200024DE0008228F01087C
:101AB00038002000382D01083A8F01083C00200032
:101AC0005C750108528F010840002000A0F9000851
:101AD000D790010844002000BCDE0008DE8A01081F
:101AE00048002000403A0108DC9001084C0020002A
:101AF000B02101084B94010854002000AC4A0108B1
:101B00006A8F010858002000944B0108828F010859
:101B10005C002000E4C50008FB9F01086000200075
:101B20007C6C0108000000000000000000000000C4
:101B30009898010800010000128F010801010000BF
:101B40002A8F010802010000428F010803010000F2
:101B50005A8F010804010000728F0108050100007E
:101B60008A8F010806010000A28F0108070100000A
:101B70009C98010808010000A098010809010000D4
:101B8000A49801080A010000A99801080B010000AF
:101B9000AE9801080C010000B39801080D01000087
:101BA000B89801080E010000BD9801080F0100005F
:101BB000C298010810010000C79801081101000037
:101BC000CC98010812010000D1980108130100000F
:101BD000D698010814010000DB98010815010000E7
:101BE000E098010816010000E59801081D010000B9
:101BF000EA9801081E010000EF9801081F0100008B
:101C0000000000000000000014840108000C000027
:101C10000000000000000000A1AC0108000400006A
:101C20005880010804030000A4AC01080804000067
:101C3000A8AC01080C030000ACAC010810040000C3
